{
	"mappingWithStructure.sol": {
		"learnMapping": {
			"abi": [
				{
					"inputs": [
						{
							"internalType": "uint256",
							"name": "_key",
							"type": "uint256"
						},
						{
							"internalType": "string",
							"name": "_title",
							"type": "string"
						},
						{
							"internalType": "string",
							"name": "_director",
							"type": "string"
						}
					],
					"name": "addMovie",
					"outputs": [],
					"stateMutability": "nonpayable",
					"type": "function"
				},
				{
					"inputs": [
						{
							"internalType": "uint256",
							"name": "",
							"type": "uint256"
						}
					],
					"name": "myMovie",
					"outputs": [
						{
							"internalType": "string",
							"name": "title",
							"type": "string"
						},
						{
							"internalType": "string",
							"name": "director",
							"type": "string"
						}
					],
					"stateMutability": "view",
					"type": "function"
				}
			],
			"devdoc": {
				"kind": "dev",
				"methods": {},
				"version": 1
			},
			"evm": {
				"assembly": "    /* \"mappingWithStructure.sol\":70:363  contract learnMapping... */\n  mstore(0x40, 0x80)\n  callvalue\n  dup1\n  iszero\n  tag_1\n  jumpi\n  0x00\n  dup1\n  revert\ntag_1:\n  pop\n  dataSize(sub_0)\n  dup1\n  dataOffset(sub_0)\n  0x00\n  codecopy\n  0x00\n  return\nstop\n\nsub_0: assembly {\n        /* \"mappingWithStructure.sol\":70:363  contract learnMapping... */\n      mstore(0x40, 0x80)\n      callvalue\n      dup1\n      iszero\n      tag_1\n      jumpi\n      0x00\n      dup1\n      revert\n    tag_1:\n      pop\n      jumpi(tag_2, lt(calldatasize, 0x04))\n      shr(0xe0, calldataload(0x00))\n      dup1\n      0x44a058b5\n      eq\n      tag_3\n      jumpi\n      dup1\n      0xf40f48c9\n      eq\n      tag_4\n      jumpi\n    tag_2:\n      0x00\n      dup1\n      revert\n        /* \"mappingWithStructure.sol\":175:210  mapping(uint=>movie) public myMovie */\n    tag_3:\n      tag_5\n      0x04\n      dup1\n      calldatasize\n      sub\n      dup2\n      add\n      swap1\n      tag_6\n      swap2\n      swap1\n      tag_7\n      jump\t// in\n    tag_6:\n      tag_8\n      jump\t// in\n    tag_5:\n      mload(0x40)\n      tag_9\n      swap3\n      swap2\n      swap1\n      tag_10\n      jump\t// in\n    tag_9:\n      mload(0x40)\n      dup1\n      swap2\n      sub\n      swap1\n      return\n        /* \"mappingWithStructure.sol\":217:357  function addMovie(uint _key,string memory _title,string memory _director) public... */\n    tag_4:\n      tag_11\n      0x04\n      dup1\n      calldatasize\n      sub\n      dup2\n      add\n      swap1\n      tag_12\n      swap2\n      swap1\n      tag_13\n      jump\t// in\n    tag_12:\n      tag_14\n      jump\t// in\n    tag_11:\n      stop\n        /* \"mappingWithStructure.sol\":175:210  mapping(uint=>movie) public myMovie */\n    tag_8:\n      mstore(0x20, 0x00)\n      dup1\n      0x00\n      mstore\n      keccak256(0x00, 0x40)\n      0x00\n      swap2\n      pop\n      swap1\n      pop\n      dup1\n      0x00\n      add\n      dup1\n      sload\n      tag_15\n      swap1\n      tag_16\n      jump\t// in\n    tag_15:\n      dup1\n      0x1f\n      add\n      0x20\n      dup1\n      swap2\n      div\n      mul\n      0x20\n      add\n      mload(0x40)\n      swap1\n      dup2\n      add\n      0x40\n      mstore\n      dup1\n      swap3\n      swap2\n      swap1\n      dup2\n      dup2\n      mstore\n      0x20\n      add\n      dup3\n      dup1\n      sload\n      tag_17\n      swap1\n      tag_16\n      jump\t// in\n    tag_17:\n      dup1\n      iszero\n      tag_18\n      jumpi\n      dup1\n      0x1f\n      lt\n      tag_19\n      jumpi\n      0x0100\n      dup1\n      dup4\n      sload\n      div\n      mul\n      dup4\n      mstore\n      swap2\n      0x20\n      add\n      swap2\n      jump(tag_18)\n    tag_19:\n      dup3\n      add\n      swap2\n      swap1\n      0x00\n      mstore\n      keccak256(0x00, 0x20)\n      swap1\n    tag_20:\n      dup2\n      sload\n      dup2\n      mstore\n      swap1\n      0x01\n      add\n      swap1\n      0x20\n      add\n      dup1\n      dup4\n      gt\n      tag_20\n      jumpi\n      dup3\n      swap1\n      sub\n      0x1f\n      and\n      dup3\n      add\n      swap2\n    tag_18:\n      pop\n      pop\n      pop\n      pop\n      pop\n      swap1\n      dup1\n      0x01\n      add\n      dup1\n      sload\n      tag_21\n      swap1\n      tag_16\n      jump\t// in\n    tag_21:\n      dup1\n      0x1f\n      add\n      0x20\n      dup1\n      swap2\n      div\n      mul\n      0x20\n      add\n      mload(0x40)\n      swap1\n      dup2\n      add\n      0x40\n      mstore\n      dup1\n      swap3\n      swap2\n      swap1\n      dup2\n      dup2\n      mstore\n      0x20\n      add\n      dup3\n      dup1\n      sload\n      tag_22\n      swap1\n      tag_16\n      jump\t// in\n    tag_22:\n      dup1\n      iszero\n      tag_23\n      jumpi\n      dup1\n      0x1f\n      lt\n      tag_24\n      jumpi\n      0x0100\n      dup1\n      dup4\n      sload\n      div\n      mul\n      dup4\n      mstore\n      swap2\n      0x20\n      add\n      swap2\n      jump(tag_23)\n    tag_24:\n      dup3\n      add\n      swap2\n      swap1\n      0x00\n      mstore\n      keccak256(0x00, 0x20)\n      swap1\n    tag_25:\n      dup2\n      sload\n      dup2\n      mstore\n      swap1\n      0x01\n      add\n      swap1\n      0x20\n      add\n      dup1\n      dup4\n      gt\n      tag_25\n      jumpi\n      dup3\n      swap1\n      sub\n      0x1f\n      and\n      dup3\n      add\n      swap2\n    tag_23:\n      pop\n      pop\n      pop\n      pop\n      pop\n      swap1\n      pop\n      dup3\n      jump\t// out\n        /* \"mappingWithStructure.sol\":217:357  function addMovie(uint _key,string memory _title,string memory _director) public... */\n    tag_14:\n        /* \"mappingWithStructure.sol\":326:349  movie(_title,_director) */\n      mload(0x40)\n      dup1\n      0x40\n      add\n      0x40\n      mstore\n      dup1\n        /* \"mappingWithStructure.sol\":332:338  _title */\n      dup4\n        /* \"mappingWithStructure.sol\":326:349  movie(_title,_director) */\n      dup2\n      mstore\n      0x20\n      add\n        /* \"mappingWithStructure.sol\":339:348  _director */\n      dup3\n        /* \"mappingWithStructure.sol\":326:349  movie(_title,_director) */\n      dup2\n      mstore\n      pop\n        /* \"mappingWithStructure.sol\":312:319  myMovie */\n      0x00\n        /* \"mappingWithStructure.sol\":312:325  myMovie[_key] */\n      dup1\n        /* \"mappingWithStructure.sol\":320:324  _key */\n      dup6\n        /* \"mappingWithStructure.sol\":312:325  myMovie[_key] */\n      dup2\n      mstore\n      0x20\n      add\n      swap1\n      dup2\n      mstore\n      0x20\n      add\n      0x00\n      keccak256\n        /* \"mappingWithStructure.sol\":312:349  myMovie[_key]=movie(_title,_director) */\n      0x00\n      dup3\n      add\n      mload\n      dup2\n      0x00\n      add\n      swap1\n      dup2\n      tag_27\n      swap2\n      swap1\n      tag_28\n      jump\t// in\n    tag_27:\n      pop\n      0x20\n      dup3\n      add\n      mload\n      dup2\n      0x01\n      add\n      swap1\n      dup2\n      tag_29\n      swap2\n      swap1\n      tag_28\n      jump\t// in\n    tag_29:\n      pop\n      swap1\n      pop\n      pop\n        /* \"mappingWithStructure.sol\":217:357  function addMovie(uint _key,string memory _title,string memory _director) public... */\n      pop\n      pop\n      pop\n      jump\t// out\n        /* \"#utility.yul\":7:82   */\n    tag_30:\n        /* \"#utility.yul\":40:46   */\n      0x00\n        /* \"#utility.yul\":73:75   */\n      0x40\n        /* \"#utility.yul\":67:76   */\n      mload\n        /* \"#utility.yul\":57:76   */\n      swap1\n      pop\n        /* \"#utility.yul\":7:82   */\n      swap1\n      jump\t// out\n        /* \"#utility.yul\":88:205   */\n    tag_31:\n        /* \"#utility.yul\":197:198   */\n      0x00\n        /* \"#utility.yul\":194:195   */\n      dup1\n        /* \"#utility.yul\":187:199   */\n      revert\n        /* \"#utility.yul\":211:328   */\n    tag_32:\n        /* \"#utility.yul\":320:321   */\n      0x00\n        /* \"#utility.yul\":317:318   */\n      dup1\n        /* \"#utility.yul\":310:322   */\n      revert\n        /* \"#utility.yul\":334:411   */\n    tag_33:\n        /* \"#utility.yul\":371:378   */\n      0x00\n        /* \"#utility.yul\":400:405   */\n      dup2\n        /* \"#utility.yul\":389:405   */\n      swap1\n      pop\n        /* \"#utility.yul\":334:411   */\n      swap2\n      swap1\n      pop\n      jump\t// out\n        /* \"#utility.yul\":417:539   */\n    tag_34:\n        /* \"#utility.yul\":490:514   */\n      tag_72\n        /* \"#utility.yul\":508:513   */\n      dup2\n        /* \"#utility.yul\":490:514   */\n      tag_33\n      jump\t// in\n    tag_72:\n        /* \"#utility.yul\":483:488   */\n      dup2\n        /* \"#utility.yul\":480:515   */\n      eq\n        /* \"#utility.yul\":470:533   */\n      tag_73\n      jumpi\n        /* \"#utility.yul\":529:530   */\n      0x00\n        /* \"#utility.yul\":526:527   */\n      dup1\n        /* \"#utility.yul\":519:531   */\n      revert\n        /* \"#utility.yul\":470:533   */\n    tag_73:\n        /* \"#utility.yul\":417:539   */\n      pop\n      jump\t// out\n        /* \"#utility.yul\":545:684   */\n    tag_35:\n        /* \"#utility.yul\":591:596   */\n      0x00\n        /* \"#utility.yul\":629:635   */\n      dup2\n        /* \"#utility.yul\":616:636   */\n      calldataload\n        /* \"#utility.yul\":607:636   */\n      swap1\n      pop\n        /* \"#utility.yul\":645:678   */\n      tag_75\n        /* \"#utility.yul\":672:677   */\n      dup2\n        /* \"#utility.yul\":645:678   */\n      tag_34\n      jump\t// in\n    tag_75:\n        /* \"#utility.yul\":545:684   */\n      swap3\n      swap2\n      pop\n      pop\n      jump\t// out\n        /* \"#utility.yul\":690:1019   */\n    tag_7:\n        /* \"#utility.yul\":749:755   */\n      0x00\n        /* \"#utility.yul\":798:800   */\n      0x20\n        /* \"#utility.yul\":786:795   */\n      dup3\n        /* \"#utility.yul\":777:784   */\n      dup5\n        /* \"#utility.yul\":773:796   */\n      sub\n        /* \"#utility.yul\":769:801   */\n      slt\n        /* \"#utility.yul\":766:885   */\n      iszero\n      tag_77\n      jumpi\n        /* \"#utility.yul\":804:883   */\n      tag_78\n      tag_31\n      jump\t// in\n    tag_78:\n        /* \"#utility.yul\":766:885   */\n    tag_77:\n        /* \"#utility.yul\":924:925   */\n      0x00\n        /* \"#utility.yul\":949:1002   */\n      tag_79\n        /* \"#utility.yul\":994:1001   */\n      dup5\n        /* \"#utility.yul\":985:991   */\n      dup3\n        /* \"#utility.yul\":974:983   */\n      dup6\n        /* \"#utility.yul\":970:992   */\n      add\n        /* \"#utility.yul\":949:1002   */\n      tag_35\n      jump\t// in\n    tag_79:\n        /* \"#utility.yul\":939:1002   */\n      swap2\n      pop\n        /* \"#utility.yul\":895:1012   */\n      pop\n        /* \"#utility.yul\":690:1019   */\n      swap3\n      swap2\n      pop\n      pop\n      jump\t// out\n        /* \"#utility.yul\":1025:1124   */\n    tag_36:\n        /* \"#utility.yul\":1077:1083   */\n      0x00\n        /* \"#utility.yul\":1111:1116   */\n      dup2\n        /* \"#utility.yul\":1105:1117   */\n      mload\n        /* \"#utility.yul\":1095:1117   */\n      swap1\n      pop\n        /* \"#utility.yul\":1025:1124   */\n      swap2\n      swap1\n      pop\n      jump\t// out\n        /* \"#utility.yul\":1130:1299   */\n    tag_37:\n        /* \"#utility.yul\":1214:1225   */\n      0x00\n        /* \"#utility.yul\":1248:1254   */\n      dup3\n        /* \"#utility.yul\":1243:1246   */\n      dup3\n        /* \"#utility.yul\":1236:1255   */\n      mstore\n        /* \"#utility.yul\":1288:1292   */\n      0x20\n        /* \"#utility.yul\":1283:1286   */\n      dup3\n        /* \"#utility.yul\":1279:1293   */\n      add\n        /* \"#utility.yul\":1264:1293   */\n      swap1\n      pop\n        /* \"#utility.yul\":1130:1299   */\n      swap3\n      swap2\n      pop\n      pop\n      jump\t// out\n        /* \"#utility.yul\":1305:1551   */\n    tag_38:\n        /* \"#utility.yul\":1386:1387   */\n      0x00\n        /* \"#utility.yul\":1396:1509   */\n    tag_83:\n        /* \"#utility.yul\":1410:1416   */\n      dup4\n        /* \"#utility.yul\":1407:1408   */\n      dup2\n        /* \"#utility.yul\":1404:1417   */\n      lt\n        /* \"#utility.yul\":1396:1509   */\n      iszero\n      tag_85\n      jumpi\n        /* \"#utility.yul\":1495:1496   */\n      dup1\n        /* \"#utility.yul\":1490:1493   */\n      dup3\n        /* \"#utility.yul\":1486:1497   */\n      add\n        /* \"#utility.yul\":1480:1498   */\n      mload\n        /* \"#utility.yul\":1476:1477   */\n      dup2\n        /* \"#utility.yul\":1471:1474   */\n      dup5\n        /* \"#utility.yul\":1467:1478   */\n      add\n        /* \"#utility.yul\":1460:1499   */\n      mstore\n        /* \"#utility.yul\":1432:1434   */\n      0x20\n        /* \"#utility.yul\":1429:1430   */\n      dup2\n        /* \"#utility.yul\":1425:1435   */\n      add\n        /* \"#utility.yul\":1420:1435   */\n      swap1\n      pop\n        /* \"#utility.yul\":1396:1509   */\n      jump(tag_83)\n    tag_85:\n        /* \"#utility.yul\":1543:1544   */\n      0x00\n        /* \"#utility.yul\":1534:1540   */\n      dup5\n        /* \"#utility.yul\":1529:1532   */\n      dup5\n        /* \"#utility.yul\":1525:1541   */\n      add\n        /* \"#utility.yul\":1518:1545   */\n      mstore\n        /* \"#utility.yul\":1367:1551   */\n      pop\n        /* \"#utility.yul\":1305:1551   */\n      pop\n      pop\n      pop\n      jump\t// out\n        /* \"#utility.yul\":1557:1659   */\n    tag_39:\n        /* \"#utility.yul\":1598:1604   */\n      0x00\n        /* \"#utility.yul\":1649:1651   */\n      0x1f\n        /* \"#utility.yul\":1645:1652   */\n      not\n        /* \"#utility.yul\":1640:1642   */\n      0x1f\n        /* \"#utility.yul\":1633:1638   */\n      dup4\n        /* \"#utility.yul\":1629:1643   */\n      add\n        /* \"#utility.yul\":1625:1653   */\n      and\n        /* \"#utility.yul\":1615:1653   */\n      swap1\n      pop\n        /* \"#utility.yul\":1557:1659   */\n      swap2\n      swap1\n      pop\n      jump\t// out\n        /* \"#utility.yul\":1665:2042   */\n    tag_40:\n        /* \"#utility.yul\":1753:1756   */\n      0x00\n        /* \"#utility.yul\":1781:1820   */\n      tag_88\n        /* \"#utility.yul\":1814:1819   */\n      dup3\n        /* \"#utility.yul\":1781:1820   */\n      tag_36\n      jump\t// in\n    tag_88:\n        /* \"#utility.yul\":1836:1907   */\n      tag_89\n        /* \"#utility.yul\":1900:1906   */\n      dup2\n        /* \"#utility.yul\":1895:1898   */\n      dup6\n        /* \"#utility.yul\":1836:1907   */\n      tag_37\n      jump\t// in\n    tag_89:\n        /* \"#utility.yul\":1829:1907   */\n      swap4\n      pop\n        /* \"#utility.yul\":1916:1981   */\n      tag_90\n        /* \"#utility.yul\":1974:1980   */\n      dup2\n        /* \"#utility.yul\":1969:1972   */\n      dup6\n        /* \"#utility.yul\":1962:1966   */\n      0x20\n        /* \"#utility.yul\":1955:1960   */\n      dup7\n        /* \"#utility.yul\":1951:1967   */\n      add\n        /* \"#utility.yul\":1916:1981   */\n      tag_38\n      jump\t// in\n    tag_90:\n        /* \"#utility.yul\":2006:2035   */\n      tag_91\n        /* \"#utility.yul\":2028:2034   */\n      dup2\n        /* \"#utility.yul\":2006:2035   */\n      tag_39\n      jump\t// in\n    tag_91:\n        /* \"#utility.yul\":2001:2004   */\n      dup5\n        /* \"#utility.yul\":1997:2036   */\n      add\n        /* \"#utility.yul\":1990:2036   */\n      swap2\n      pop\n        /* \"#utility.yul\":1757:2042   */\n      pop\n        /* \"#utility.yul\":1665:2042   */\n      swap3\n      swap2\n      pop\n      pop\n      jump\t// out\n        /* \"#utility.yul\":2048:2562   */\n    tag_10:\n        /* \"#utility.yul\":2209:2213   */\n      0x00\n        /* \"#utility.yul\":2247:2249   */\n      0x40\n        /* \"#utility.yul\":2236:2245   */\n      dup3\n        /* \"#utility.yul\":2232:2250   */\n      add\n        /* \"#utility.yul\":2224:2250   */\n      swap1\n      pop\n        /* \"#utility.yul\":2296:2305   */\n      dup2\n        /* \"#utility.yul\":2290:2294   */\n      dup2\n        /* \"#utility.yul\":2286:2306   */\n      sub\n        /* \"#utility.yul\":2282:2283   */\n      0x00\n        /* \"#utility.yul\":2271:2280   */\n      dup4\n        /* \"#utility.yul\":2267:2284   */\n      add\n        /* \"#utility.yul\":2260:2307   */\n      mstore\n        /* \"#utility.yul\":2324:2402   */\n      tag_93\n        /* \"#utility.yul\":2397:2401   */\n      dup2\n        /* \"#utility.yul\":2388:2394   */\n      dup6\n        /* \"#utility.yul\":2324:2402   */\n      tag_40\n      jump\t// in\n    tag_93:\n        /* \"#utility.yul\":2316:2402   */\n      swap1\n      pop\n        /* \"#utility.yul\":2449:2458   */\n      dup2\n        /* \"#utility.yul\":2443:2447   */\n      dup2\n        /* \"#utility.yul\":2439:2459   */\n      sub\n        /* \"#utility.yul\":2434:2436   */\n      0x20\n        /* \"#utility.yul\":2423:2432   */\n      dup4\n        /* \"#utility.yul\":2419:2437   */\n      add\n        /* \"#utility.yul\":2412:2460   */\n      mstore\n        /* \"#utility.yul\":2477:2555   */\n      tag_94\n        /* \"#utility.yul\":2550:2554   */\n      dup2\n        /* \"#utility.yul\":2541:2547   */\n      dup5\n        /* \"#utility.yul\":2477:2555   */\n      tag_40\n      jump\t// in\n    tag_94:\n        /* \"#utility.yul\":2469:2555   */\n      swap1\n      pop\n        /* \"#utility.yul\":2048:2562   */\n      swap4\n      swap3\n      pop\n      pop\n      pop\n      jump\t// out\n        /* \"#utility.yul\":2568:2685   */\n    tag_41:\n        /* \"#utility.yul\":2677:2678   */\n      0x00\n        /* \"#utility.yul\":2674:2675   */\n      dup1\n        /* \"#utility.yul\":2667:2679   */\n      revert\n        /* \"#utility.yul\":2691:2808   */\n    tag_42:\n        /* \"#utility.yul\":2800:2801   */\n      0x00\n        /* \"#utility.yul\":2797:2798   */\n      dup1\n        /* \"#utility.yul\":2790:2802   */\n      revert\n        /* \"#utility.yul\":2814:2994   */\n    tag_43:\n        /* \"#utility.yul\":2862:2939   */\n      0x4e487b7100000000000000000000000000000000000000000000000000000000\n        /* \"#utility.yul\":2859:2860   */\n      0x00\n        /* \"#utility.yul\":2852:2940   */\n      mstore\n        /* \"#utility.yul\":2959:2963   */\n      0x41\n        /* \"#utility.yul\":2956:2957   */\n      0x04\n        /* \"#utility.yul\":2949:2964   */\n      mstore\n        /* \"#utility.yul\":2983:2987   */\n      0x24\n        /* \"#utility.yul\":2980:2981   */\n      0x00\n        /* \"#utility.yul\":2973:2988   */\n      revert\n        /* \"#utility.yul\":3000:3281   */\n    tag_44:\n        /* \"#utility.yul\":3083:3110   */\n      tag_99\n        /* \"#utility.yul\":3105:3109   */\n      dup3\n        /* \"#utility.yul\":3083:3110   */\n      tag_39\n      jump\t// in\n    tag_99:\n        /* \"#utility.yul\":3075:3081   */\n      dup2\n        /* \"#utility.yul\":3071:3111   */\n      add\n        /* \"#utility.yul\":3213:3219   */\n      dup2\n        /* \"#utility.yul\":3201:3211   */\n      dup2\n        /* \"#utility.yul\":3198:3220   */\n      lt\n        /* \"#utility.yul\":3177:3195   */\n      0xffffffffffffffff\n        /* \"#utility.yul\":3165:3175   */\n      dup3\n        /* \"#utility.yul\":3162:3196   */\n      gt\n        /* \"#utility.yul\":3159:3221   */\n      or\n        /* \"#utility.yul\":3156:3244   */\n      iszero\n      tag_100\n      jumpi\n        /* \"#utility.yul\":3224:3242   */\n      tag_101\n      tag_43\n      jump\t// in\n    tag_101:\n        /* \"#utility.yul\":3156:3244   */\n    tag_100:\n        /* \"#utility.yul\":3264:3274   */\n      dup1\n        /* \"#utility.yul\":3260:3262   */\n      0x40\n        /* \"#utility.yul\":3253:3275   */\n      mstore\n        /* \"#utility.yul\":3043:3281   */\n      pop\n        /* \"#utility.yul\":3000:3281   */\n      pop\n      pop\n      jump\t// out\n        /* \"#utility.yul\":3287:3416   */\n    tag_45:\n        /* \"#utility.yul\":3321:3327   */\n      0x00\n        /* \"#utility.yul\":3348:3368   */\n      tag_103\n      tag_30\n      jump\t// in\n    tag_103:\n        /* \"#utility.yul\":3338:3368   */\n      swap1\n      pop\n        /* \"#utility.yul\":3377:3410   */\n      tag_104\n        /* \"#utility.yul\":3405:3409   */\n      dup3\n        /* \"#utility.yul\":3397:3403   */\n      dup3\n        /* \"#utility.yul\":3377:3410   */\n      tag_44\n      jump\t// in\n    tag_104:\n        /* \"#utility.yul\":3287:3416   */\n      swap2\n      swap1\n      pop\n      jump\t// out\n        /* \"#utility.yul\":3422:3730   */\n    tag_46:\n        /* \"#utility.yul\":3484:3488   */\n      0x00\n        /* \"#utility.yul\":3574:3592   */\n      0xffffffffffffffff\n        /* \"#utility.yul\":3566:3572   */\n      dup3\n        /* \"#utility.yul\":3563:3593   */\n      gt\n        /* \"#utility.yul\":3560:3616   */\n      iszero\n      tag_106\n      jumpi\n        /* \"#utility.yul\":3596:3614   */\n      tag_107\n      tag_43\n      jump\t// in\n    tag_107:\n        /* \"#utility.yul\":3560:3616   */\n    tag_106:\n        /* \"#utility.yul\":3634:3663   */\n      tag_108\n        /* \"#utility.yul\":3656:3662   */\n      dup3\n        /* \"#utility.yul\":3634:3663   */\n      tag_39\n      jump\t// in\n    tag_108:\n        /* \"#utility.yul\":3626:3663   */\n      swap1\n      pop\n        /* \"#utility.yul\":3718:3722   */\n      0x20\n        /* \"#utility.yul\":3712:3716   */\n      dup2\n        /* \"#utility.yul\":3708:3723   */\n      add\n        /* \"#utility.yul\":3700:3723   */\n      swap1\n      pop\n        /* \"#utility.yul\":3422:3730   */\n      swap2\n      swap1\n      pop\n      jump\t// out\n        /* \"#utility.yul\":3736:3882   */\n    tag_47:\n        /* \"#utility.yul\":3833:3839   */\n      dup3\n        /* \"#utility.yul\":3828:3831   */\n      dup2\n        /* \"#utility.yul\":3823:3826   */\n      dup4\n        /* \"#utility.yul\":3810:3840   */\n      calldatacopy\n        /* \"#utility.yul\":3874:3875   */\n      0x00\n        /* \"#utility.yul\":3865:3871   */\n      dup4\n        /* \"#utility.yul\":3860:3863   */\n      dup4\n        /* \"#utility.yul\":3856:3872   */\n      add\n        /* \"#utility.yul\":3849:3876   */\n      mstore\n        /* \"#utility.yul\":3736:3882   */\n      pop\n      pop\n      pop\n      jump\t// out\n        /* \"#utility.yul\":3888:4313   */\n    tag_48:\n        /* \"#utility.yul\":3966:3971   */\n      0x00\n        /* \"#utility.yul\":3991:4057   */\n      tag_111\n        /* \"#utility.yul\":4007:4056   */\n      tag_112\n        /* \"#utility.yul\":4049:4055   */\n      dup5\n        /* \"#utility.yul\":4007:4056   */\n      tag_46\n      jump\t// in\n    tag_112:\n        /* \"#utility.yul\":3991:4057   */\n      tag_45\n      jump\t// in\n    tag_111:\n        /* \"#utility.yul\":3982:4057   */\n      swap1\n      pop\n        /* \"#utility.yul\":4080:4086   */\n      dup3\n        /* \"#utility.yul\":4073:4078   */\n      dup2\n        /* \"#utility.yul\":4066:4087   */\n      mstore\n        /* \"#utility.yul\":4118:4122   */\n      0x20\n        /* \"#utility.yul\":4111:4116   */\n      dup2\n        /* \"#utility.yul\":4107:4123   */\n      add\n        /* \"#utility.yul\":4156:4159   */\n      dup5\n        /* \"#utility.yul\":4147:4153   */\n      dup5\n        /* \"#utility.yul\":4142:4145   */\n      dup5\n        /* \"#utility.yul\":4138:4154   */\n      add\n        /* \"#utility.yul\":4135:4160   */\n      gt\n        /* \"#utility.yul\":4132:4244   */\n      iszero\n      tag_113\n      jumpi\n        /* \"#utility.yul\":4163:4242   */\n      tag_114\n      tag_42\n      jump\t// in\n    tag_114:\n        /* \"#utility.yul\":4132:4244   */\n    tag_113:\n        /* \"#utility.yul\":4253:4307   */\n      tag_115\n        /* \"#utility.yul\":4300:4306   */\n      dup5\n        /* \"#utility.yul\":4295:4298   */\n      dup3\n        /* \"#utility.yul\":4290:4293   */\n      dup6\n        /* \"#utility.yul\":4253:4307   */\n      tag_47\n      jump\t// in\n    tag_115:\n        /* \"#utility.yul\":3972:4313   */\n      pop\n        /* \"#utility.yul\":3888:4313   */\n      swap4\n      swap3\n      pop\n      pop\n      pop\n      jump\t// out\n        /* \"#utility.yul\":4333:4673   */\n    tag_49:\n        /* \"#utility.yul\":4389:4394   */\n      0x00\n        /* \"#utility.yul\":4438:4441   */\n      dup3\n        /* \"#utility.yul\":4431:4435   */\n      0x1f\n        /* \"#utility.yul\":4423:4429   */\n      dup4\n        /* \"#utility.yul\":4419:4436   */\n      add\n        /* \"#utility.yul\":4415:4442   */\n      slt\n        /* \"#utility.yul\":4405:4527   */\n      tag_117\n      jumpi\n        /* \"#utility.yul\":4446:4525   */\n      tag_118\n      tag_41\n      jump\t// in\n    tag_118:\n        /* \"#utility.yul\":4405:4527   */\n    tag_117:\n        /* \"#utility.yul\":4563:4569   */\n      dup2\n        /* \"#utility.yul\":4550:4570   */\n      calldataload\n        /* \"#utility.yul\":4588:4667   */\n      tag_119\n        /* \"#utility.yul\":4663:4666   */\n      dup5\n        /* \"#utility.yul\":4655:4661   */\n      dup3\n        /* \"#utility.yul\":4648:4652   */\n      0x20\n        /* \"#utility.yul\":4640:4646   */\n      dup7\n        /* \"#utility.yul\":4636:4653   */\n      add\n        /* \"#utility.yul\":4588:4667   */\n      tag_48\n      jump\t// in\n    tag_119:\n        /* \"#utility.yul\":4579:4667   */\n      swap2\n      pop\n        /* \"#utility.yul\":4395:4673   */\n      pop\n        /* \"#utility.yul\":4333:4673   */\n      swap3\n      swap2\n      pop\n      pop\n      jump\t// out\n        /* \"#utility.yul\":4679:5658   */\n    tag_13:\n        /* \"#utility.yul\":4776:4782   */\n      0x00\n        /* \"#utility.yul\":4784:4790   */\n      dup1\n        /* \"#utility.yul\":4792:4798   */\n      0x00\n        /* \"#utility.yul\":4841:4843   */\n      0x60\n        /* \"#utility.yul\":4829:4838   */\n      dup5\n        /* \"#utility.yul\":4820:4827   */\n      dup7\n        /* \"#utility.yul\":4816:4839   */\n      sub\n        /* \"#utility.yul\":4812:4844   */\n      slt\n        /* \"#utility.yul\":4809:4928   */\n      iszero\n      tag_121\n      jumpi\n        /* \"#utility.yul\":4847:4926   */\n      tag_122\n      tag_31\n      jump\t// in\n    tag_122:\n        /* \"#utility.yul\":4809:4928   */\n    tag_121:\n        /* \"#utility.yul\":4967:4968   */\n      0x00\n        /* \"#utility.yul\":4992:5045   */\n      tag_123\n        /* \"#utility.yul\":5037:5044   */\n      dup7\n        /* \"#utility.yul\":5028:5034   */\n      dup3\n        /* \"#utility.yul\":5017:5026   */\n      dup8\n        /* \"#utility.yul\":5013:5035   */\n      add\n        /* \"#utility.yul\":4992:5045   */\n      tag_35\n      jump\t// in\n    tag_123:\n        /* \"#utility.yul\":4982:5045   */\n      swap4\n      pop\n        /* \"#utility.yul\":4938:5055   */\n      pop\n        /* \"#utility.yul\":5122:5124   */\n      0x20\n        /* \"#utility.yul\":5111:5120   */\n      dup5\n        /* \"#utility.yul\":5107:5125   */\n      add\n        /* \"#utility.yul\":5094:5126   */\n      calldataload\n        /* \"#utility.yul\":5153:5171   */\n      0xffffffffffffffff\n        /* \"#utility.yul\":5145:5151   */\n      dup2\n        /* \"#utility.yul\":5142:5172   */\n      gt\n        /* \"#utility.yul\":5139:5256   */\n      iszero\n      tag_124\n      jumpi\n        /* \"#utility.yul\":5175:5254   */\n      tag_125\n      tag_32\n      jump\t// in\n    tag_125:\n        /* \"#utility.yul\":5139:5256   */\n    tag_124:\n        /* \"#utility.yul\":5280:5343   */\n      tag_126\n        /* \"#utility.yul\":5335:5342   */\n      dup7\n        /* \"#utility.yul\":5326:5332   */\n      dup3\n        /* \"#utility.yul\":5315:5324   */\n      dup8\n        /* \"#utility.yul\":5311:5333   */\n      add\n        /* \"#utility.yul\":5280:5343   */\n      tag_49\n      jump\t// in\n    tag_126:\n        /* \"#utility.yul\":5270:5343   */\n      swap3\n      pop\n        /* \"#utility.yul\":5065:5353   */\n      pop\n        /* \"#utility.yul\":5420:5422   */\n      0x40\n        /* \"#utility.yul\":5409:5418   */\n      dup5\n        /* \"#utility.yul\":5405:5423   */\n      add\n        /* \"#utility.yul\":5392:5424   */\n      calldataload\n        /* \"#utility.yul\":5451:5469   */\n      0xffffffffffffffff\n        /* \"#utility.yul\":5443:5449   */\n      dup2\n        /* \"#utility.yul\":5440:5470   */\n      gt\n        /* \"#utility.yul\":5437:5554   */\n      iszero\n      tag_127\n      jumpi\n        /* \"#utility.yul\":5473:5552   */\n      tag_128\n      tag_32\n      jump\t// in\n    tag_128:\n        /* \"#utility.yul\":5437:5554   */\n    tag_127:\n        /* \"#utility.yul\":5578:5641   */\n      tag_129\n        /* \"#utility.yul\":5633:5640   */\n      dup7\n        /* \"#utility.yul\":5624:5630   */\n      dup3\n        /* \"#utility.yul\":5613:5622   */\n      dup8\n        /* \"#utility.yul\":5609:5631   */\n      add\n        /* \"#utility.yul\":5578:5641   */\n      tag_49\n      jump\t// in\n    tag_129:\n        /* \"#utility.yul\":5568:5641   */\n      swap2\n      pop\n        /* \"#utility.yul\":5363:5651   */\n      pop\n        /* \"#utility.yul\":4679:5658   */\n      swap3\n      pop\n      swap3\n      pop\n      swap3\n      jump\t// out\n        /* \"#utility.yul\":5664:5844   */\n    tag_50:\n        /* \"#utility.yul\":5712:5789   */\n      0x4e487b7100000000000000000000000000000000000000000000000000000000\n        /* \"#utility.yul\":5709:5710   */\n      0x00\n        /* \"#utility.yul\":5702:5790   */\n      mstore\n        /* \"#utility.yul\":5809:5813   */\n      0x22\n        /* \"#utility.yul\":5806:5807   */\n      0x04\n        /* \"#utility.yul\":5799:5814   */\n      mstore\n        /* \"#utility.yul\":5833:5837   */\n      0x24\n        /* \"#utility.yul\":5830:5831   */\n      0x00\n        /* \"#utility.yul\":5823:5838   */\n      revert\n        /* \"#utility.yul\":5850:6170   */\n    tag_16:\n        /* \"#utility.yul\":5894:5900   */\n      0x00\n        /* \"#utility.yul\":5931:5932   */\n      0x02\n        /* \"#utility.yul\":5925:5929   */\n      dup3\n        /* \"#utility.yul\":5921:5933   */\n      div\n        /* \"#utility.yul\":5911:5933   */\n      swap1\n      pop\n        /* \"#utility.yul\":5978:5979   */\n      0x01\n        /* \"#utility.yul\":5972:5976   */\n      dup3\n        /* \"#utility.yul\":5968:5980   */\n      and\n        /* \"#utility.yul\":5999:6017   */\n      dup1\n        /* \"#utility.yul\":5989:6070   */\n      tag_132\n      jumpi\n        /* \"#utility.yul\":6055:6059   */\n      0x7f\n        /* \"#utility.yul\":6047:6053   */\n      dup3\n        /* \"#utility.yul\":6043:6060   */\n      and\n        /* \"#utility.yul\":6033:6060   */\n      swap2\n      pop\n        /* \"#utility.yul\":5989:6070   */\n    tag_132:\n        /* \"#utility.yul\":6117:6119   */\n      0x20\n        /* \"#utility.yul\":6109:6115   */\n      dup3\n        /* \"#utility.yul\":6106:6120   */\n      lt\n        /* \"#utility.yul\":6086:6104   */\n      dup2\n        /* \"#utility.yul\":6083:6121   */\n      sub\n        /* \"#utility.yul\":6080:6164   */\n      tag_133\n      jumpi\n        /* \"#utility.yul\":6136:6154   */\n      tag_134\n      tag_50\n      jump\t// in\n    tag_134:\n        /* \"#utility.yul\":6080:6164   */\n    tag_133:\n        /* \"#utility.yul\":5901:6170   */\n      pop\n        /* \"#utility.yul\":5850:6170   */\n      swap2\n      swap1\n      pop\n      jump\t// out\n        /* \"#utility.yul\":6176:6317   */\n    tag_51:\n        /* \"#utility.yul\":6225:6229   */\n      0x00\n        /* \"#utility.yul\":6248:6251   */\n      dup2\n        /* \"#utility.yul\":6240:6251   */\n      swap1\n      pop\n        /* \"#utility.yul\":6271:6274   */\n      dup2\n        /* \"#utility.yul\":6268:6269   */\n      0x00\n        /* \"#utility.yul\":6261:6275   */\n      mstore\n        /* \"#utility.yul\":6305:6309   */\n      0x20\n        /* \"#utility.yul\":6302:6303   */\n      0x00\n        /* \"#utility.yul\":6292:6310   */\n      keccak256\n        /* \"#utility.yul\":6284:6310   */\n      swap1\n      pop\n        /* \"#utility.yul\":6176:6317   */\n      swap2\n      swap1\n      pop\n      jump\t// out\n        /* \"#utility.yul\":6323:6416   */\n    tag_52:\n        /* \"#utility.yul\":6360:6366   */\n      0x00\n        /* \"#utility.yul\":6407:6409   */\n      0x20\n        /* \"#utility.yul\":6402:6404   */\n      0x1f\n        /* \"#utility.yul\":6395:6400   */\n      dup4\n        /* \"#utility.yul\":6391:6405   */\n      add\n        /* \"#utility.yul\":6387:6410   */\n      div\n        /* \"#utility.yul\":6377:6410   */\n      swap1\n      pop\n        /* \"#utility.yul\":6323:6416   */\n      swap2\n      swap1\n      pop\n      jump\t// out\n        /* \"#utility.yul\":6422:6529   */\n    tag_53:\n        /* \"#utility.yul\":6466:6474   */\n      0x00\n        /* \"#utility.yul\":6516:6521   */\n      dup3\n        /* \"#utility.yul\":6510:6514   */\n      dup3\n        /* \"#utility.yul\":6506:6522   */\n      shl\n        /* \"#utility.yul\":6485:6522   */\n      swap1\n      pop\n        /* \"#utility.yul\":6422:6529   */\n      swap3\n      swap2\n      pop\n      pop\n      jump\t// out\n        /* \"#utility.yul\":6535:6928   */\n    tag_54:\n        /* \"#utility.yul\":6604:6610   */\n      0x00\n        /* \"#utility.yul\":6654:6655   */\n      0x08\n        /* \"#utility.yul\":6642:6652   */\n      dup4\n        /* \"#utility.yul\":6638:6656   */\n      mul\n        /* \"#utility.yul\":6677:6774   */\n      tag_139\n        /* \"#utility.yul\":6707:6773   */\n      0xffffffffffffffffffffffffffffffffffffffffffffffffffffffffffffffff\n        /* \"#utility.yul\":6696:6705   */\n      dup3\n        /* \"#utility.yul\":6677:6774   */\n      tag_53\n      jump\t// in\n    tag_139:\n        /* \"#utility.yul\":6795:6834   */\n      tag_140\n        /* \"#utility.yul\":6825:6833   */\n      dup7\n        /* \"#utility.yul\":6814:6823   */\n      dup4\n        /* \"#utility.yul\":6795:6834   */\n      tag_53\n      jump\t// in\n    tag_140:\n        /* \"#utility.yul\":6783:6834   */\n      swap6\n      pop\n        /* \"#utility.yul\":6867:6871   */\n      dup1\n        /* \"#utility.yul\":6863:6872   */\n      not\n        /* \"#utility.yul\":6856:6861   */\n      dup5\n        /* \"#utility.yul\":6852:6873   */\n      and\n        /* \"#utility.yul\":6843:6873   */\n      swap4\n      pop\n        /* \"#utility.yul\":6916:6920   */\n      dup1\n        /* \"#utility.yul\":6906:6914   */\n      dup7\n        /* \"#utility.yul\":6902:6921   */\n      and\n        /* \"#utility.yul\":6895:6900   */\n      dup5\n        /* \"#utility.yul\":6892:6922   */\n      or\n        /* \"#utility.yul\":6882:6922   */\n      swap3\n      pop\n        /* \"#utility.yul\":6611:6928   */\n      pop\n      pop\n        /* \"#utility.yul\":6535:6928   */\n      swap4\n      swap3\n      pop\n      pop\n      pop\n      jump\t// out\n        /* \"#utility.yul\":6934:6994   */\n    tag_55:\n        /* \"#utility.yul\":6962:6965   */\n      0x00\n        /* \"#utility.yul\":6983:6988   */\n      dup2\n        /* \"#utility.yul\":6976:6988   */\n      swap1\n      pop\n        /* \"#utility.yul\":6934:6994   */\n      swap2\n      swap1\n      pop\n      jump\t// out\n        /* \"#utility.yul\":7000:7142   */\n    tag_56:\n        /* \"#utility.yul\":7050:7059   */\n      0x00\n        /* \"#utility.yul\":7083:7136   */\n      tag_143\n        /* \"#utility.yul\":7101:7135   */\n      tag_144\n        /* \"#utility.yul\":7110:7134   */\n      tag_145\n        /* \"#utility.yul\":7128:7133   */\n      dup5\n        /* \"#utility.yul\":7110:7134   */\n      tag_33\n      jump\t// in\n    tag_145:\n        /* \"#utility.yul\":7101:7135   */\n      tag_55\n      jump\t// in\n    tag_144:\n        /* \"#utility.yul\":7083:7136   */\n      tag_33\n      jump\t// in\n    tag_143:\n        /* \"#utility.yul\":7070:7136   */\n      swap1\n      pop\n        /* \"#utility.yul\":7000:7142   */\n      swap2\n      swap1\n      pop\n      jump\t// out\n        /* \"#utility.yul\":7148:7223   */\n    tag_57:\n        /* \"#utility.yul\":7191:7194   */\n      0x00\n        /* \"#utility.yul\":7212:7217   */\n      dup2\n        /* \"#utility.yul\":7205:7217   */\n      swap1\n      pop\n        /* \"#utility.yul\":7148:7223   */\n      swap2\n      swap1\n      pop\n      jump\t// out\n        /* \"#utility.yul\":7229:7498   */\n    tag_58:\n        /* \"#utility.yul\":7339:7378   */\n      tag_148\n        /* \"#utility.yul\":7370:7377   */\n      dup4\n        /* \"#utility.yul\":7339:7378   */\n      tag_56\n      jump\t// in\n    tag_148:\n        /* \"#utility.yul\":7400:7491   */\n      tag_149\n        /* \"#utility.yul\":7449:7490   */\n      tag_150\n        /* \"#utility.yul\":7473:7489   */\n      dup3\n        /* \"#utility.yul\":7449:7490   */\n      tag_57\n      jump\t// in\n    tag_150:\n        /* \"#utility.yul\":7441:7447   */\n      dup5\n        /* \"#utility.yul\":7434:7438   */\n      dup5\n        /* \"#utility.yul\":7428:7439   */\n      sload\n        /* \"#utility.yul\":7400:7491   */\n      tag_54\n      jump\t// in\n    tag_149:\n        /* \"#utility.yul\":7394:7398   */\n      dup3\n        /* \"#utility.yul\":7387:7492   */\n      sstore\n        /* \"#utility.yul\":7305:7498   */\n      pop\n        /* \"#utility.yul\":7229:7498   */\n      pop\n      pop\n      pop\n      jump\t// out\n        /* \"#utility.yul\":7504:7577   */\n    tag_59:\n        /* \"#utility.yul\":7549:7552   */\n      0x00\n        /* \"#utility.yul\":7504:7577   */\n      swap1\n      jump\t// out\n        /* \"#utility.yul\":7583:7772   */\n    tag_60:\n        /* \"#utility.yul\":7660:7692   */\n      tag_153\n      tag_59\n      jump\t// in\n    tag_153:\n        /* \"#utility.yul\":7701:7766   */\n      tag_154\n        /* \"#utility.yul\":7759:7765   */\n      dup2\n        /* \"#utility.yul\":7751:7757   */\n      dup5\n        /* \"#utility.yul\":7745:7749   */\n      dup5\n        /* \"#utility.yul\":7701:7766   */\n      tag_58\n      jump\t// in\n    tag_154:\n        /* \"#utility.yul\":7636:7772   */\n      pop\n        /* \"#utility.yul\":7583:7772   */\n      pop\n      pop\n      jump\t// out\n        /* \"#utility.yul\":7778:7964   */\n    tag_61:\n        /* \"#utility.yul\":7838:7958   */\n    tag_156:\n        /* \"#utility.yul\":7855:7858   */\n      dup2\n        /* \"#utility.yul\":7848:7853   */\n      dup2\n        /* \"#utility.yul\":7845:7859   */\n      lt\n        /* \"#utility.yul\":7838:7958   */\n      iszero\n      tag_158\n      jumpi\n        /* \"#utility.yul\":7909:7948   */\n      tag_159\n        /* \"#utility.yul\":7946:7947   */\n      0x00\n        /* \"#utility.yul\":7939:7944   */\n      dup3\n        /* \"#utility.yul\":7909:7948   */\n      tag_60\n      jump\t// in\n    tag_159:\n        /* \"#utility.yul\":7882:7883   */\n      0x01\n        /* \"#utility.yul\":7875:7880   */\n      dup2\n        /* \"#utility.yul\":7871:7884   */\n      add\n        /* \"#utility.yul\":7862:7884   */\n      swap1\n      pop\n        /* \"#utility.yul\":7838:7958   */\n      jump(tag_156)\n    tag_158:\n        /* \"#utility.yul\":7778:7964   */\n      pop\n      pop\n      jump\t// out\n        /* \"#utility.yul\":7970:8513   */\n    tag_62:\n        /* \"#utility.yul\":8071:8073   */\n      0x1f\n        /* \"#utility.yul\":8066:8069   */\n      dup3\n        /* \"#utility.yul\":8063:8074   */\n      gt\n        /* \"#utility.yul\":8060:8506   */\n      iszero\n      tag_161\n      jumpi\n        /* \"#utility.yul\":8105:8143   */\n      tag_162\n        /* \"#utility.yul\":8137:8142   */\n      dup2\n        /* \"#utility.yul\":8105:8143   */\n      tag_51\n      jump\t// in\n    tag_162:\n        /* \"#utility.yul\":8189:8218   */\n      tag_163\n        /* \"#utility.yul\":8207:8217   */\n      dup5\n        /* \"#utility.yul\":8189:8218   */\n      tag_52\n      jump\t// in\n    tag_163:\n        /* \"#utility.yul\":8179:8187   */\n      dup2\n        /* \"#utility.yul\":8175:8219   */\n      add\n        /* \"#utility.yul\":8372:8374   */\n      0x20\n        /* \"#utility.yul\":8360:8370   */\n      dup6\n        /* \"#utility.yul\":8357:8375   */\n      lt\n        /* \"#utility.yul\":8354:8403   */\n      iszero\n      tag_164\n      jumpi\n        /* \"#utility.yul\":8393:8401   */\n      dup2\n        /* \"#utility.yul\":8378:8401   */\n      swap1\n      pop\n        /* \"#utility.yul\":8354:8403   */\n    tag_164:\n        /* \"#utility.yul\":8416:8496   */\n      tag_165\n        /* \"#utility.yul\":8472:8494   */\n      tag_166\n        /* \"#utility.yul\":8490:8493   */\n      dup6\n        /* \"#utility.yul\":8472:8494   */\n      tag_52\n      jump\t// in\n    tag_166:\n        /* \"#utility.yul\":8462:8470   */\n      dup4\n        /* \"#utility.yul\":8458:8495   */\n      add\n        /* \"#utility.yul\":8445:8456   */\n      dup3\n        /* \"#utility.yul\":8416:8496   */\n      tag_61\n      jump\t// in\n    tag_165:\n        /* \"#utility.yul\":8075:8506   */\n      pop\n      pop\n        /* \"#utility.yul\":8060:8506   */\n    tag_161:\n        /* \"#utility.yul\":7970:8513   */\n      pop\n      pop\n      pop\n      jump\t// out\n        /* \"#utility.yul\":8519:8636   */\n    tag_63:\n        /* \"#utility.yul\":8573:8581   */\n      0x00\n        /* \"#utility.yul\":8623:8628   */\n      dup3\n        /* \"#utility.yul\":8617:8621   */\n      dup3\n        /* \"#utility.yul\":8613:8629   */\n      shr\n        /* \"#utility.yul\":8592:8629   */\n      swap1\n      pop\n        /* \"#utility.yul\":8519:8636   */\n      swap3\n      swap2\n      pop\n      pop\n      jump\t// out\n        /* \"#utility.yul\":8642:8811   */\n    tag_64:\n        /* \"#utility.yul\":8686:8692   */\n      0x00\n        /* \"#utility.yul\":8719:8770   */\n      tag_169\n        /* \"#utility.yul\":8767:8768   */\n      0x00\n        /* \"#utility.yul\":8763:8769   */\n      not\n        /* \"#utility.yul\":8755:8760   */\n      dup5\n        /* \"#utility.yul\":8752:8753   */\n      0x08\n        /* \"#utility.yul\":8748:8761   */\n      mul\n        /* \"#utility.yul\":8719:8770   */\n      tag_63\n      jump\t// in\n    tag_169:\n        /* \"#utility.yul\":8715:8771   */\n      not\n        /* \"#utility.yul\":8800:8804   */\n      dup1\n        /* \"#utility.yul\":8794:8798   */\n      dup4\n        /* \"#utility.yul\":8790:8805   */\n      and\n        /* \"#utility.yul\":8780:8805   */\n      swap2\n      pop\n        /* \"#utility.yul\":8693:8811   */\n      pop\n        /* \"#utility.yul\":8642:8811   */\n      swap3\n      swap2\n      pop\n      pop\n      jump\t// out\n        /* \"#utility.yul\":8816:9111   */\n    tag_65:\n        /* \"#utility.yul\":8892:8896   */\n      0x00\n        /* \"#utility.yul\":9038:9067   */\n      tag_171\n        /* \"#utility.yul\":9063:9066   */\n      dup4\n        /* \"#utility.yul\":9057:9061   */\n      dup4\n        /* \"#utility.yul\":9038:9067   */\n      tag_64\n      jump\t// in\n    tag_171:\n        /* \"#utility.yul\":9030:9067   */\n      swap2\n      pop\n        /* \"#utility.yul\":9100:9103   */\n      dup3\n        /* \"#utility.yul\":9097:9098   */\n      0x02\n        /* \"#utility.yul\":9093:9104   */\n      mul\n        /* \"#utility.yul\":9087:9091   */\n      dup3\n        /* \"#utility.yul\":9084:9105   */\n      or\n        /* \"#utility.yul\":9076:9105   */\n      swap1\n      pop\n        /* \"#utility.yul\":8816:9111   */\n      swap3\n      swap2\n      pop\n      pop\n      jump\t// out\n        /* \"#utility.yul\":9116:10511   */\n    tag_28:\n        /* \"#utility.yul\":9233:9270   */\n      tag_173\n        /* \"#utility.yul\":9266:9269   */\n      dup3\n        /* \"#utility.yul\":9233:9270   */\n      tag_36\n      jump\t// in\n    tag_173:\n        /* \"#utility.yul\":9335:9353   */\n      0xffffffffffffffff\n        /* \"#utility.yul\":9327:9333   */\n      dup2\n        /* \"#utility.yul\":9324:9354   */\n      gt\n        /* \"#utility.yul\":9321:9377   */\n      iszero\n      tag_174\n      jumpi\n        /* \"#utility.yul\":9357:9375   */\n      tag_175\n      tag_43\n      jump\t// in\n    tag_175:\n        /* \"#utility.yul\":9321:9377   */\n    tag_174:\n        /* \"#utility.yul\":9401:9439   */\n      tag_176\n        /* \"#utility.yul\":9433:9437   */\n      dup3\n        /* \"#utility.yul\":9427:9438   */\n      sload\n        /* \"#utility.yul\":9401:9439   */\n      tag_16\n      jump\t// in\n    tag_176:\n        /* \"#utility.yul\":9486:9553   */\n      tag_177\n        /* \"#utility.yul\":9546:9552   */\n      dup3\n        /* \"#utility.yul\":9538:9544   */\n      dup3\n        /* \"#utility.yul\":9532:9536   */\n      dup6\n        /* \"#utility.yul\":9486:9553   */\n      tag_62\n      jump\t// in\n    tag_177:\n        /* \"#utility.yul\":9580:9581   */\n      0x00\n        /* \"#utility.yul\":9604:9608   */\n      0x20\n        /* \"#utility.yul\":9591:9608   */\n      swap1\n      pop\n        /* \"#utility.yul\":9636:9638   */\n      0x1f\n        /* \"#utility.yul\":9628:9634   */\n      dup4\n        /* \"#utility.yul\":9625:9639   */\n      gt\n        /* \"#utility.yul\":9653:9654   */\n      0x01\n        /* \"#utility.yul\":9648:10266   */\n      dup2\n      eq\n      tag_179\n      jumpi\n        /* \"#utility.yul\":10310:10311   */\n      0x00\n        /* \"#utility.yul\":10327:10333   */\n      dup5\n        /* \"#utility.yul\":10324:10401   */\n      iszero\n      tag_180\n      jumpi\n        /* \"#utility.yul\":10376:10385   */\n      dup3\n        /* \"#utility.yul\":10371:10374   */\n      dup8\n        /* \"#utility.yul\":10367:10386   */\n      add\n        /* \"#utility.yul\":10361:10387   */\n      mload\n        /* \"#utility.yul\":10352:10387   */\n      swap1\n      pop\n        /* \"#utility.yul\":10324:10401   */\n    tag_180:\n        /* \"#utility.yul\":10427:10494   */\n      tag_181\n        /* \"#utility.yul\":10487:10493   */\n      dup6\n        /* \"#utility.yul\":10480:10485   */\n      dup3\n        /* \"#utility.yul\":10427:10494   */\n      tag_65\n      jump\t// in\n    tag_181:\n        /* \"#utility.yul\":10421:10425   */\n      dup7\n        /* \"#utility.yul\":10414:10495   */\n      sstore\n        /* \"#utility.yul\":10283:10505   */\n      pop\n        /* \"#utility.yul\":9618:10505   */\n      jump(tag_178)\n        /* \"#utility.yul\":9648:10266   */\n    tag_179:\n        /* \"#utility.yul\":9700:9704   */\n      0x1f\n        /* \"#utility.yul\":9696:9705   */\n      not\n        /* \"#utility.yul\":9688:9694   */\n      dup5\n        /* \"#utility.yul\":9684:9706   */\n      and\n        /* \"#utility.yul\":9734:9771   */\n      tag_182\n        /* \"#utility.yul\":9766:9770   */\n      dup7\n        /* \"#utility.yul\":9734:9771   */\n      tag_51\n      jump\t// in\n    tag_182:\n        /* \"#utility.yul\":9793:9794   */\n      0x00\n        /* \"#utility.yul\":9807:10015   */\n    tag_183:\n        /* \"#utility.yul\":9821:9828   */\n      dup3\n        /* \"#utility.yul\":9818:9819   */\n      dup2\n        /* \"#utility.yul\":9815:9829   */\n      lt\n        /* \"#utility.yul\":9807:10015   */\n      iszero\n      tag_185\n      jumpi\n        /* \"#utility.yul\":9900:9909   */\n      dup5\n        /* \"#utility.yul\":9895:9898   */\n      dup10\n        /* \"#utility.yul\":9891:9910   */\n      add\n        /* \"#utility.yul\":9885:9911   */\n      mload\n        /* \"#utility.yul\":9877:9883   */\n      dup3\n        /* \"#utility.yul\":9870:9912   */\n      sstore\n        /* \"#utility.yul\":9951:9952   */\n      0x01\n        /* \"#utility.yul\":9943:9949   */\n      dup3\n        /* \"#utility.yul\":9939:9953   */\n      add\n        /* \"#utility.yul\":9929:9953   */\n      swap2\n      pop\n        /* \"#utility.yul\":9998:10000   */\n      0x20\n        /* \"#utility.yul\":9987:9996   */\n      dup6\n        /* \"#utility.yul\":9983:10001   */\n      add\n        /* \"#utility.yul\":9970:10001   */\n      swap5\n      pop\n        /* \"#utility.yul\":9844:9848   */\n      0x20\n        /* \"#utility.yul\":9841:9842   */\n      dup2\n        /* \"#utility.yul\":9837:9849   */\n      add\n        /* \"#utility.yul\":9832:9849   */\n      swap1\n      pop\n        /* \"#utility.yul\":9807:10015   */\n      jump(tag_183)\n    tag_185:\n        /* \"#utility.yul\":10043:10049   */\n      dup7\n        /* \"#utility.yul\":10034:10041   */\n      dup4\n        /* \"#utility.yul\":10031:10050   */\n      lt\n        /* \"#utility.yul\":10028:10207   */\n      iszero\n      tag_186\n      jumpi\n        /* \"#utility.yul\":10101:10110   */\n      dup5\n        /* \"#utility.yul\":10096:10099   */\n      dup10\n        /* \"#utility.yul\":10092:10111   */\n      add\n        /* \"#utility.yul\":10086:10112   */\n      mload\n        /* \"#utility.yul\":10144:10192   */\n      tag_187\n        /* \"#utility.yul\":10186:10190   */\n      0x1f\n        /* \"#utility.yul\":10178:10184   */\n      dup10\n        /* \"#utility.yul\":10174:10191   */\n      and\n        /* \"#utility.yul\":10163:10172   */\n      dup3\n        /* \"#utility.yul\":10144:10192   */\n      tag_64\n      jump\t// in\n    tag_187:\n        /* \"#utility.yul\":10136:10142   */\n      dup4\n        /* \"#utility.yul\":10129:10193   */\n      sstore\n        /* \"#utility.yul\":10051:10207   */\n      pop\n        /* \"#utility.yul\":10028:10207   */\n    tag_186:\n        /* \"#utility.yul\":10253:10254   */\n      0x01\n        /* \"#utility.yul\":10249:10250   */\n      0x02\n        /* \"#utility.yul\":10241:10247   */\n      dup9\n        /* \"#utility.yul\":10237:10251   */\n      mul\n        /* \"#utility.yul\":10233:10255   */\n      add\n        /* \"#utility.yul\":10227:10231   */\n      dup9\n        /* \"#utility.yul\":10220:10256   */\n      sstore\n        /* \"#utility.yul\":9655:10266   */\n      pop\n      pop\n      pop\n        /* \"#utility.yul\":9618:10505   */\n    tag_178:\n      pop\n        /* \"#utility.yul\":9208:10511   */\n      pop\n      pop\n      pop\n        /* \"#utility.yul\":9116:10511   */\n      pop\n      pop\n      jump\t// out\n\n    auxdata: 0xa264697066735822122012e96c1575ddc6c7af1d1e261aa19f434bb33b9155a0a860caf55b0336310bba64736f6c63430008110033\n}\n",
				"bytecode": {
					"linkReferences": {},
					"object": "608060405234801561001057600080fd5b50610829806100206000396000f3fe608060405234801561001057600080fd5b50600436106100365760003560e01c806344a058b51461003b578063f40f48c91461006c575b600080fd5b61005560048036038101906100509190610261565b610088565b60405161006392919061031e565b60405180910390f35b6100866004803603810190610081919061048a565b6101bc565b005b60006020528060005260406000206000915090508060000180546100ab90610544565b80601f01602080910402602001604051908101604052809291908181526020018280546100d790610544565b80156101245780601f106100f957610100808354040283529160200191610124565b820191906000526020600020905b81548152906001019060200180831161010757829003601f168201915b50505050509080600101805461013990610544565b80601f016020809104026020016040519081016040528092919081815260200182805461016590610544565b80156101b25780601f10610187576101008083540402835291602001916101b2565b820191906000526020600020905b81548152906001019060200180831161019557829003601f168201915b5050505050905082565b60405180604001604052808381526020018281525060008085815260200190815260200160002060008201518160000190816101f89190610721565b50602082015181600101908161020e9190610721565b50905050505050565b6000604051905090565b600080fd5b600080fd5b6000819050919050565b61023e8161022b565b811461024957600080fd5b50565b60008135905061025b81610235565b92915050565b60006020828403121561027757610276610221565b5b60006102858482850161024c565b91505092915050565b600081519050919050565b600082825260208201905092915050565b60005b838110156102c85780820151818401526020810190506102ad565b60008484015250505050565b6000601f19601f8301169050919050565b60006102f08261028e565b6102fa8185610299565b935061030a8185602086016102aa565b610313816102d4565b840191505092915050565b6000604082019050818103600083015261033881856102e5565b9050818103602083015261034c81846102e5565b90509392505050565b600080fd5b600080fd5b7f4e487b7100000000000000000000000000000000000000000000000000000000600052604160045260246000fd5b610397826102d4565b810181811067ffffffffffffffff821117156103b6576103b561035f565b5b80604052505050565b60006103c9610217565b90506103d5828261038e565b919050565b600067ffffffffffffffff8211156103f5576103f461035f565b5b6103fe826102d4565b9050602081019050919050565b82818337600083830152505050565b600061042d610428846103da565b6103bf565b9050828152602081018484840111156104495761044861035a565b5b61045484828561040b565b509392505050565b600082601f83011261047157610470610355565b5b813561048184826020860161041a565b91505092915050565b6000806000606084860312156104a3576104a2610221565b5b60006104b18682870161024c565b935050602084013567ffffffffffffffff8111156104d2576104d1610226565b5b6104de8682870161045c565b925050604084013567ffffffffffffffff8111156104ff576104fe610226565b5b61050b8682870161045c565b9150509250925092565b7f4e487b7100000000000000000000000000000000000000000000000000000000600052602260045260246000fd5b6000600282049050600182168061055c57607f821691505b60208210810361056f5761056e610515565b5b50919050565b60008190508160005260206000209050919050565b60006020601f8301049050919050565b600082821b905092915050565b6000600883026105d77fffffffffffffffffffffffffffffffffffffffffffffffffffffffffffffffff8261059a565b6105e1868361059a565b95508019841693508086168417925050509392505050565b6000819050919050565b600061061e6106196106148461022b565b6105f9565b61022b565b9050919050565b6000819050919050565b61063883610603565b61064c61064482610625565b8484546105a7565b825550505050565b600090565b610661610654565b61066c81848461062f565b505050565b5b8181101561069057610685600082610659565b600181019050610672565b5050565b601f8211156106d5576106a681610575565b6106af8461058a565b810160208510156106be578190505b6106d26106ca8561058a565b830182610671565b50505b505050565b600082821c905092915050565b60006106f8600019846008026106da565b1980831691505092915050565b600061071183836106e7565b9150826002028217905092915050565b61072a8261028e565b67ffffffffffffffff8111156107435761074261035f565b5b61074d8254610544565b610758828285610694565b600060209050601f83116001811461078b5760008415610779578287015190505b6107838582610705565b8655506107eb565b601f19841661079986610575565b60005b828110156107c15784890151825560018201915060208501945060208101905061079c565b868310156107de57848901516107da601f8916826106e7565b8355505b6001600288020188555050505b50505050505056fea264697066735822122012e96c1575ddc6c7af1d1e261aa19f434bb33b9155a0a860caf55b0336310bba64736f6c63430008110033",
					"opcodes": "PUSH1 0x80 PUSH1 0x40 MSTORE CALLVALUE DUP1 ISZERO PUSH2 0x10 JUMPI PUSH1 0x0 DUP1 REVERT JUMPDEST POP PUSH2 0x829 DUP1 PUSH2 0x20 PUSH1 0x0 CODECOPY PUSH1 0x0 RETURN INVALID PUSH1 0x80 PUSH1 0x40 MSTORE CALLVALUE DUP1 ISZERO PUSH2 0x10 JUMPI PUSH1 0x0 DUP1 REVERT JUMPDEST POP PUSH1 0x4 CALLDATASIZE LT PUSH2 0x36 JUMPI PUSH1 0x0 CALLDATALOAD PUSH1 0xE0 SHR DUP1 PUSH4 0x44A058B5 EQ PUSH2 0x3B JUMPI DUP1 PUSH4 0xF40F48C9 EQ PUSH2 0x6C JUMPI JUMPDEST PUSH1 0x0 DUP1 REVERT JUMPDEST PUSH2 0x55 PUSH1 0x4 DUP1 CALLDATASIZE SUB DUP2 ADD SWAP1 PUSH2 0x50 SWAP2 SWAP1 PUSH2 0x261 JUMP JUMPDEST PUSH2 0x88 JUMP JUMPDEST PUSH1 0x40 MLOAD PUSH2 0x63 SWAP3 SWAP2 SWAP1 PUSH2 0x31E JUMP JUMPDEST PUSH1 0x40 MLOAD DUP1 SWAP2 SUB SWAP1 RETURN JUMPDEST PUSH2 0x86 PUSH1 0x4 DUP1 CALLDATASIZE SUB DUP2 ADD SWAP1 PUSH2 0x81 SWAP2 SWAP1 PUSH2 0x48A JUMP JUMPDEST PUSH2 0x1BC JUMP JUMPDEST STOP JUMPDEST PUSH1 0x0 PUSH1 0x20 MSTORE DUP1 PUSH1 0x0 MSTORE PUSH1 0x40 PUSH1 0x0 KECCAK256 PUSH1 0x0 SWAP2 POP SWAP1 POP DUP1 PUSH1 0x0 ADD DUP1 SLOAD PUSH2 0xAB SWAP1 PUSH2 0x544 JUMP JUMPDEST DUP1 PUSH1 0x1F ADD PUSH1 0x20 DUP1 SWAP2 DIV MUL PUSH1 0x20 ADD PUSH1 0x40 MLOAD SWAP1 DUP2 ADD PUSH1 0x40 MSTORE DUP1 SWAP3 SWAP2 SWAP1 DUP2 DUP2 MSTORE PUSH1 0x20 ADD DUP3 DUP1 SLOAD PUSH2 0xD7 SWAP1 PUSH2 0x544 JUMP JUMPDEST DUP1 ISZERO PUSH2 0x124 JUMPI DUP1 PUSH1 0x1F LT PUSH2 0xF9 JUMPI PUSH2 0x100 DUP1 DUP4 SLOAD DIV MUL DUP4 MSTORE SWAP2 PUSH1 0x20 ADD SWAP2 PUSH2 0x124 JUMP JUMPDEST DUP3 ADD SWAP2 SWAP1 PUSH1 0x0 MSTORE PUSH1 0x20 PUSH1 0x0 KECCAK256 SWAP1 JUMPDEST DUP2 SLOAD DUP2 MSTORE SWAP1 PUSH1 0x1 ADD SWAP1 PUSH1 0x20 ADD DUP1 DUP4 GT PUSH2 0x107 JUMPI DUP3 SWAP1 SUB PUSH1 0x1F AND DUP3 ADD SWAP2 JUMPDEST POP POP POP POP POP SWAP1 DUP1 PUSH1 0x1 ADD DUP1 SLOAD PUSH2 0x139 SWAP1 PUSH2 0x544 JUMP JUMPDEST DUP1 PUSH1 0x1F ADD PUSH1 0x20 DUP1 SWAP2 DIV MUL PUSH1 0x20 ADD PUSH1 0x40 MLOAD SWAP1 DUP2 ADD PUSH1 0x40 MSTORE DUP1 SWAP3 SWAP2 SWAP1 DUP2 DUP2 MSTORE PUSH1 0x20 ADD DUP3 DUP1 SLOAD PUSH2 0x165 SWAP1 PUSH2 0x544 JUMP JUMPDEST DUP1 ISZERO PUSH2 0x1B2 JUMPI DUP1 PUSH1 0x1F LT PUSH2 0x187 JUMPI PUSH2 0x100 DUP1 DUP4 SLOAD DIV MUL DUP4 MSTORE SWAP2 PUSH1 0x20 ADD SWAP2 PUSH2 0x1B2 JUMP JUMPDEST DUP3 ADD SWAP2 SWAP1 PUSH1 0x0 MSTORE PUSH1 0x20 PUSH1 0x0 KECCAK256 SWAP1 JUMPDEST DUP2 SLOAD DUP2 MSTORE SWAP1 PUSH1 0x1 ADD SWAP1 PUSH1 0x20 ADD DUP1 DUP4 GT PUSH2 0x195 JUMPI DUP3 SWAP1 SUB PUSH1 0x1F AND DUP3 ADD SWAP2 JUMPDEST POP POP POP POP POP SWAP1 POP DUP3 JUMP JUMPDEST PUSH1 0x40 MLOAD DUP1 PUSH1 0x40 ADD PUSH1 0x40 MSTORE DUP1 DUP4 DUP2 MSTORE PUSH1 0x20 ADD DUP3 DUP2 MSTORE POP PUSH1 0x0 DUP1 DUP6 DUP2 MSTORE PUSH1 0x20 ADD SWAP1 DUP2 MSTORE PUSH1 0x20 ADD PUSH1 0x0 KECCAK256 PUSH1 0x0 DUP3 ADD MLOAD DUP2 PUSH1 0x0 ADD SWAP1 DUP2 PUSH2 0x1F8 SWAP2 SWAP1 PUSH2 0x721 JUMP JUMPDEST POP PUSH1 0x20 DUP3 ADD MLOAD DUP2 PUSH1 0x1 ADD SWAP1 DUP2 PUSH2 0x20E SWAP2 SWAP1 PUSH2 0x721 JUMP JUMPDEST POP SWAP1 POP POP POP POP POP JUMP JUMPDEST PUSH1 0x0 PUSH1 0x40 MLOAD SWAP1 POP SWAP1 JUMP JUMPDEST PUSH1 0x0 DUP1 REVERT JUMPDEST PUSH1 0x0 DUP1 REVERT JUMPDEST PUSH1 0x0 DUP2 SWAP1 POP SWAP2 SWAP1 POP JUMP JUMPDEST PUSH2 0x23E DUP2 PUSH2 0x22B JUMP JUMPDEST DUP2 EQ PUSH2 0x249 JUMPI PUSH1 0x0 DUP1 REVERT JUMPDEST POP JUMP JUMPDEST PUSH1 0x0 DUP2 CALLDATALOAD SWAP1 POP PUSH2 0x25B DUP2 PUSH2 0x235 JUMP JUMPDEST SWAP3 SWAP2 POP POP JUMP JUMPDEST PUSH1 0x0 PUSH1 0x20 DUP3 DUP5 SUB SLT ISZERO PUSH2 0x277 JUMPI PUSH2 0x276 PUSH2 0x221 JUMP JUMPDEST JUMPDEST PUSH1 0x0 PUSH2 0x285 DUP5 DUP3 DUP6 ADD PUSH2 0x24C JUMP JUMPDEST SWAP2 POP POP SWAP3 SWAP2 POP POP JUMP JUMPDEST PUSH1 0x0 DUP2 MLOAD SWAP1 POP SWAP2 SWAP1 POP JUMP JUMPDEST PUSH1 0x0 DUP3 DUP3 MSTORE PUSH1 0x20 DUP3 ADD SWAP1 POP SWAP3 SWAP2 POP POP JUMP JUMPDEST PUSH1 0x0 JUMPDEST DUP4 DUP2 LT ISZERO PUSH2 0x2C8 JUMPI DUP1 DUP3 ADD MLOAD DUP2 DUP5 ADD MSTORE PUSH1 0x20 DUP2 ADD SWAP1 POP PUSH2 0x2AD JUMP JUMPDEST PUSH1 0x0 DUP5 DUP5 ADD MSTORE POP POP POP POP JUMP JUMPDEST PUSH1 0x0 PUSH1 0x1F NOT PUSH1 0x1F DUP4 ADD AND SWAP1 POP SWAP2 SWAP1 POP JUMP JUMPDEST PUSH1 0x0 PUSH2 0x2F0 DUP3 PUSH2 0x28E JUMP JUMPDEST PUSH2 0x2FA DUP2 DUP6 PUSH2 0x299 JUMP JUMPDEST SWAP4 POP PUSH2 0x30A DUP2 DUP6 PUSH1 0x20 DUP7 ADD PUSH2 0x2AA JUMP JUMPDEST PUSH2 0x313 DUP2 PUSH2 0x2D4 JUMP JUMPDEST DUP5 ADD SWAP2 POP POP SWAP3 SWAP2 POP POP JUMP JUMPDEST PUSH1 0x0 PUSH1 0x40 DUP3 ADD SWAP1 POP DUP2 DUP2 SUB PUSH1 0x0 DUP4 ADD MSTORE PUSH2 0x338 DUP2 DUP6 PUSH2 0x2E5 JUMP JUMPDEST SWAP1 POP DUP2 DUP2 SUB PUSH1 0x20 DUP4 ADD MSTORE PUSH2 0x34C DUP2 DUP5 PUSH2 0x2E5 JUMP JUMPDEST SWAP1 POP SWAP4 SWAP3 POP POP POP JUMP JUMPDEST PUSH1 0x0 DUP1 REVERT JUMPDEST PUSH1 0x0 DUP1 REVERT JUMPDEST PUSH32 0x4E487B7100000000000000000000000000000000000000000000000000000000 PUSH1 0x0 MSTORE PUSH1 0x41 PUSH1 0x4 MSTORE PUSH1 0x24 PUSH1 0x0 REVERT JUMPDEST PUSH2 0x397 DUP3 PUSH2 0x2D4 JUMP JUMPDEST DUP2 ADD DUP2 DUP2 LT PUSH8 0xFFFFFFFFFFFFFFFF DUP3 GT OR ISZERO PUSH2 0x3B6 JUMPI PUSH2 0x3B5 PUSH2 0x35F JUMP JUMPDEST JUMPDEST DUP1 PUSH1 0x40 MSTORE POP POP POP JUMP JUMPDEST PUSH1 0x0 PUSH2 0x3C9 PUSH2 0x217 JUMP JUMPDEST SWAP1 POP PUSH2 0x3D5 DUP3 DUP3 PUSH2 0x38E JUMP JUMPDEST SWAP2 SWAP1 POP JUMP JUMPDEST PUSH1 0x0 PUSH8 0xFFFFFFFFFFFFFFFF DUP3 GT ISZERO PUSH2 0x3F5 JUMPI PUSH2 0x3F4 PUSH2 0x35F JUMP JUMPDEST JUMPDEST PUSH2 0x3FE DUP3 PUSH2 0x2D4 JUMP JUMPDEST SWAP1 POP PUSH1 0x20 DUP2 ADD SWAP1 POP SWAP2 SWAP1 POP JUMP JUMPDEST DUP3 DUP2 DUP4 CALLDATACOPY PUSH1 0x0 DUP4 DUP4 ADD MSTORE POP POP POP JUMP JUMPDEST PUSH1 0x0 PUSH2 0x42D PUSH2 0x428 DUP5 PUSH2 0x3DA JUMP JUMPDEST PUSH2 0x3BF JUMP JUMPDEST SWAP1 POP DUP3 DUP2 MSTORE PUSH1 0x20 DUP2 ADD DUP5 DUP5 DUP5 ADD GT ISZERO PUSH2 0x449 JUMPI PUSH2 0x448 PUSH2 0x35A JUMP JUMPDEST JUMPDEST PUSH2 0x454 DUP5 DUP3 DUP6 PUSH2 0x40B JUMP JUMPDEST POP SWAP4 SWAP3 POP POP POP JUMP JUMPDEST PUSH1 0x0 DUP3 PUSH1 0x1F DUP4 ADD SLT PUSH2 0x471 JUMPI PUSH2 0x470 PUSH2 0x355 JUMP JUMPDEST JUMPDEST DUP2 CALLDATALOAD PUSH2 0x481 DUP5 DUP3 PUSH1 0x20 DUP7 ADD PUSH2 0x41A JUMP JUMPDEST SWAP2 POP POP SWAP3 SWAP2 POP POP JUMP JUMPDEST PUSH1 0x0 DUP1 PUSH1 0x0 PUSH1 0x60 DUP5 DUP7 SUB SLT ISZERO PUSH2 0x4A3 JUMPI PUSH2 0x4A2 PUSH2 0x221 JUMP JUMPDEST JUMPDEST PUSH1 0x0 PUSH2 0x4B1 DUP7 DUP3 DUP8 ADD PUSH2 0x24C JUMP JUMPDEST SWAP4 POP POP PUSH1 0x20 DUP5 ADD CALLDATALOAD PUSH8 0xFFFFFFFFFFFFFFFF DUP2 GT ISZERO PUSH2 0x4D2 JUMPI PUSH2 0x4D1 PUSH2 0x226 JUMP JUMPDEST JUMPDEST PUSH2 0x4DE DUP7 DUP3 DUP8 ADD PUSH2 0x45C JUMP JUMPDEST SWAP3 POP POP PUSH1 0x40 DUP5 ADD CALLDATALOAD PUSH8 0xFFFFFFFFFFFFFFFF DUP2 GT ISZERO PUSH2 0x4FF JUMPI PUSH2 0x4FE PUSH2 0x226 JUMP JUMPDEST JUMPDEST PUSH2 0x50B DUP7 DUP3 DUP8 ADD PUSH2 0x45C JUMP JUMPDEST SWAP2 POP POP SWAP3 POP SWAP3 POP SWAP3 JUMP JUMPDEST PUSH32 0x4E487B7100000000000000000000000000000000000000000000000000000000 PUSH1 0x0 MSTORE PUSH1 0x22 PUSH1 0x4 MSTORE PUSH1 0x24 PUSH1 0x0 REVERT JUMPDEST PUSH1 0x0 PUSH1 0x2 DUP3 DIV SWAP1 POP PUSH1 0x1 DUP3 AND DUP1 PUSH2 0x55C JUMPI PUSH1 0x7F DUP3 AND SWAP2 POP JUMPDEST PUSH1 0x20 DUP3 LT DUP2 SUB PUSH2 0x56F JUMPI PUSH2 0x56E PUSH2 0x515 JUMP JUMPDEST JUMPDEST POP SWAP2 SWAP1 POP JUMP JUMPDEST PUSH1 0x0 DUP2 SWAP1 POP DUP2 PUSH1 0x0 MSTORE PUSH1 0x20 PUSH1 0x0 KECCAK256 SWAP1 POP SWAP2 SWAP1 POP JUMP JUMPDEST PUSH1 0x0 PUSH1 0x20 PUSH1 0x1F DUP4 ADD DIV SWAP1 POP SWAP2 SWAP1 POP JUMP JUMPDEST PUSH1 0x0 DUP3 DUP3 SHL SWAP1 POP SWAP3 SWAP2 POP POP JUMP JUMPDEST PUSH1 0x0 PUSH1 0x8 DUP4 MUL PUSH2 0x5D7 PUSH32 0xFFFFFFFFFFFFFFFFFFFFFFFFFFFFFFFFFFFFFFFFFFFFFFFFFFFFFFFFFFFFFFFF DUP3 PUSH2 0x59A JUMP JUMPDEST PUSH2 0x5E1 DUP7 DUP4 PUSH2 0x59A JUMP JUMPDEST SWAP6 POP DUP1 NOT DUP5 AND SWAP4 POP DUP1 DUP7 AND DUP5 OR SWAP3 POP POP POP SWAP4 SWAP3 POP POP POP JUMP JUMPDEST PUSH1 0x0 DUP2 SWAP1 POP SWAP2 SWAP1 POP JUMP JUMPDEST PUSH1 0x0 PUSH2 0x61E PUSH2 0x619 PUSH2 0x614 DUP5 PUSH2 0x22B JUMP JUMPDEST PUSH2 0x5F9 JUMP JUMPDEST PUSH2 0x22B JUMP JUMPDEST SWAP1 POP SWAP2 SWAP1 POP JUMP JUMPDEST PUSH1 0x0 DUP2 SWAP1 POP SWAP2 SWAP1 POP JUMP JUMPDEST PUSH2 0x638 DUP4 PUSH2 0x603 JUMP JUMPDEST PUSH2 0x64C PUSH2 0x644 DUP3 PUSH2 0x625 JUMP JUMPDEST DUP5 DUP5 SLOAD PUSH2 0x5A7 JUMP JUMPDEST DUP3 SSTORE POP POP POP POP JUMP JUMPDEST PUSH1 0x0 SWAP1 JUMP JUMPDEST PUSH2 0x661 PUSH2 0x654 JUMP JUMPDEST PUSH2 0x66C DUP2 DUP5 DUP5 PUSH2 0x62F JUMP JUMPDEST POP POP POP JUMP JUMPDEST JUMPDEST DUP2 DUP2 LT ISZERO PUSH2 0x690 JUMPI PUSH2 0x685 PUSH1 0x0 DUP3 PUSH2 0x659 JUMP JUMPDEST PUSH1 0x1 DUP2 ADD SWAP1 POP PUSH2 0x672 JUMP JUMPDEST POP POP JUMP JUMPDEST PUSH1 0x1F DUP3 GT ISZERO PUSH2 0x6D5 JUMPI PUSH2 0x6A6 DUP2 PUSH2 0x575 JUMP JUMPDEST PUSH2 0x6AF DUP5 PUSH2 0x58A JUMP JUMPDEST DUP2 ADD PUSH1 0x20 DUP6 LT ISZERO PUSH2 0x6BE JUMPI DUP2 SWAP1 POP JUMPDEST PUSH2 0x6D2 PUSH2 0x6CA DUP6 PUSH2 0x58A JUMP JUMPDEST DUP4 ADD DUP3 PUSH2 0x671 JUMP JUMPDEST POP POP JUMPDEST POP POP POP JUMP JUMPDEST PUSH1 0x0 DUP3 DUP3 SHR SWAP1 POP SWAP3 SWAP2 POP POP JUMP JUMPDEST PUSH1 0x0 PUSH2 0x6F8 PUSH1 0x0 NOT DUP5 PUSH1 0x8 MUL PUSH2 0x6DA JUMP JUMPDEST NOT DUP1 DUP4 AND SWAP2 POP POP SWAP3 SWAP2 POP POP JUMP JUMPDEST PUSH1 0x0 PUSH2 0x711 DUP4 DUP4 PUSH2 0x6E7 JUMP JUMPDEST SWAP2 POP DUP3 PUSH1 0x2 MUL DUP3 OR SWAP1 POP SWAP3 SWAP2 POP POP JUMP JUMPDEST PUSH2 0x72A DUP3 PUSH2 0x28E JUMP JUMPDEST PUSH8 0xFFFFFFFFFFFFFFFF DUP2 GT ISZERO PUSH2 0x743 JUMPI PUSH2 0x742 PUSH2 0x35F JUMP JUMPDEST JUMPDEST PUSH2 0x74D DUP3 SLOAD PUSH2 0x544 JUMP JUMPDEST PUSH2 0x758 DUP3 DUP3 DUP6 PUSH2 0x694 JUMP JUMPDEST PUSH1 0x0 PUSH1 0x20 SWAP1 POP PUSH1 0x1F DUP4 GT PUSH1 0x1 DUP2 EQ PUSH2 0x78B JUMPI PUSH1 0x0 DUP5 ISZERO PUSH2 0x779 JUMPI DUP3 DUP8 ADD MLOAD SWAP1 POP JUMPDEST PUSH2 0x783 DUP6 DUP3 PUSH2 0x705 JUMP JUMPDEST DUP7 SSTORE POP PUSH2 0x7EB JUMP JUMPDEST PUSH1 0x1F NOT DUP5 AND PUSH2 0x799 DUP7 PUSH2 0x575 JUMP JUMPDEST PUSH1 0x0 JUMPDEST DUP3 DUP2 LT ISZERO PUSH2 0x7C1 JUMPI DUP5 DUP10 ADD MLOAD DUP3 SSTORE PUSH1 0x1 DUP3 ADD SWAP2 POP PUSH1 0x20 DUP6 ADD SWAP5 POP PUSH1 0x20 DUP2 ADD SWAP1 POP PUSH2 0x79C JUMP JUMPDEST DUP7 DUP4 LT ISZERO PUSH2 0x7DE JUMPI DUP5 DUP10 ADD MLOAD PUSH2 0x7DA PUSH1 0x1F DUP10 AND DUP3 PUSH2 0x6E7 JUMP JUMPDEST DUP4 SSTORE POP JUMPDEST PUSH1 0x1 PUSH1 0x2 DUP9 MUL ADD DUP9 SSTORE POP POP POP JUMPDEST POP POP POP POP POP POP JUMP INVALID LOG2 PUSH5 0x6970667358 0x22 SLT KECCAK256 SLT 0xE9 PUSH13 0x1575DDC6C7AF1D1E261AA19F43 0x4B 0xB3 EXTCODESIZE SWAP2 SSTORE LOG0 0xA8 PUSH1 0xCA CREATE2 JUMPDEST SUB CALLDATASIZE BALANCE SIGNEXTEND 0xBA PUSH5 0x736F6C6343 STOP ADDMOD GT STOP CALLER "
				},
				"gasEstimates": {
					"creation": {
						"codeDepositCost": "417800",
						"executionCost": "455",
						"totalCost": "418255"
					},
					"external": {
						"addMovie(uint256,string,string)": "infinite",
						"myMovie(uint256)": "infinite"
					}
				},
				"methodIdentifiers": {
					"addMovie(uint256,string,string)": "f40f48c9",
					"myMovie(uint256)": "44a058b5"
				}
			},
			"storageLayout": {
				"storage": [
					{
						"astId": 11,
						"contract": "mappingWithStructure.sol:learnMapping",
						"label": "myMovie",
						"offset": 0,
						"slot": "0",
						"type": "t_mapping(t_uint256,t_struct(movie)6_storage)"
					}
				],
				"types": {
					"t_mapping(t_uint256,t_struct(movie)6_storage)": {
						"encoding": "mapping",
						"key": "t_uint256",
						"label": "mapping(uint256 => struct learnMapping.movie)",
						"numberOfBytes": "32",
						"value": "t_struct(movie)6_storage"
					},
					"t_string_storage": {
						"encoding": "bytes",
						"label": "string",
						"numberOfBytes": "32"
					},
					"t_struct(movie)6_storage": {
						"encoding": "inplace",
						"label": "struct learnMapping.movie",
						"members": [
							{
								"astId": 3,
								"contract": "mappingWithStructure.sol:learnMapping",
								"label": "title",
								"offset": 0,
								"slot": "0",
								"type": "t_string_storage"
							},
							{
								"astId": 5,
								"contract": "mappingWithStructure.sol:learnMapping",
								"label": "director",
								"offset": 0,
								"slot": "1",
								"type": "t_string_storage"
							}
						],
						"numberOfBytes": "64"
					},
					"t_uint256": {
						"encoding": "inplace",
						"label": "uint256",
						"numberOfBytes": "32"
					}
				}
			},
			"userdoc": {
				"kind": "user",
				"methods": {},
				"version": 1
			}
		}
	}
}