{
	"nestedMapping.sol": {
		"nestedMapping": {
			"abi": [
				{
					"inputs": [
						{
							"internalType": "uint256",
							"name": "_key",
							"type": "uint256"
						},
						{
							"internalType": "string",
							"name": "_title",
							"type": "string"
						},
						{
							"internalType": "string",
							"name": "_director",
							"type": "string"
						}
					],
					"name": "addMovie",
					"outputs": [],
					"stateMutability": "nonpayable",
					"type": "function"
				},
				{
					"inputs": [
						{
							"internalType": "uint256",
							"name": "_key",
							"type": "uint256"
						},
						{
							"internalType": "string",
							"name": "_title",
							"type": "string"
						},
						{
							"internalType": "string",
							"name": "_director",
							"type": "string"
						}
					],
					"name": "addYourMovie",
					"outputs": [],
					"stateMutability": "nonpayable",
					"type": "function"
				},
				{
					"inputs": [
						{
							"internalType": "uint256",
							"name": "",
							"type": "uint256"
						}
					],
					"name": "myMovie",
					"outputs": [
						{
							"internalType": "string",
							"name": "title",
							"type": "string"
						},
						{
							"internalType": "string",
							"name": "director",
							"type": "string"
						}
					],
					"stateMutability": "view",
					"type": "function"
				},
				{
					"inputs": [
						{
							"internalType": "address",
							"name": "",
							"type": "address"
						},
						{
							"internalType": "uint256",
							"name": "",
							"type": "uint256"
						}
					],
					"name": "yourMovie",
					"outputs": [
						{
							"internalType": "string",
							"name": "title",
							"type": "string"
						},
						{
							"internalType": "string",
							"name": "director",
							"type": "string"
						}
					],
					"stateMutability": "view",
					"type": "function"
				}
			],
			"devdoc": {
				"kind": "dev",
				"methods": {},
				"version": 1
			},
			"evm": {
				"assembly": "    /* \"nestedMapping.sol\":70:778  contract nestedMapping... */\n  mstore(0x40, 0x80)\n  callvalue\n  dup1\n  iszero\n  tag_1\n  jumpi\n  0x00\n  dup1\n  revert\ntag_1:\n  pop\n  dataSize(sub_0)\n  dup1\n  dataOffset(sub_0)\n  0x00\n  codecopy\n  0x00\n  return\nstop\n\nsub_0: assembly {\n        /* \"nestedMapping.sol\":70:778  contract nestedMapping... */\n      mstore(0x40, 0x80)\n      callvalue\n      dup1\n      iszero\n      tag_1\n      jumpi\n      0x00\n      dup1\n      revert\n    tag_1:\n      pop\n      jumpi(tag_2, lt(calldatasize, 0x04))\n      shr(0xe0, calldataload(0x00))\n      dup1\n      0x44a058b5\n      eq\n      tag_3\n      jumpi\n      dup1\n      0x4ffbcfcf\n      eq\n      tag_4\n      jumpi\n      dup1\n      0xb47d006e\n      eq\n      tag_5\n      jumpi\n      dup1\n      0xf40f48c9\n      eq\n      tag_6\n      jumpi\n    tag_2:\n      0x00\n      dup1\n      revert\n        /* \"nestedMapping.sol\":176:211  mapping(uint=>movie) public myMovie */\n    tag_3:\n      tag_7\n      0x04\n      dup1\n      calldatasize\n      sub\n      dup2\n      add\n      swap1\n      tag_8\n      swap2\n      swap1\n      tag_9\n      jump\t// in\n    tag_8:\n      tag_10\n      jump\t// in\n    tag_7:\n      mload(0x40)\n      tag_11\n      swap3\n      swap2\n      swap1\n      tag_12\n      jump\t// in\n    tag_11:\n      mload(0x40)\n      dup1\n      swap2\n      sub\n      swap1\n      return\n        /* \"nestedMapping.sol\":217:272  mapping(address=>mapping(uint=>movie)) public yourMovie */\n    tag_4:\n      tag_13\n      0x04\n      dup1\n      calldatasize\n      sub\n      dup2\n      add\n      swap1\n      tag_14\n      swap2\n      swap1\n      tag_15\n      jump\t// in\n    tag_14:\n      tag_16\n      jump\t// in\n    tag_13:\n      mload(0x40)\n      tag_17\n      swap3\n      swap2\n      swap1\n      tag_12\n      jump\t// in\n    tag_17:\n      mload(0x40)\n      dup1\n      swap2\n      sub\n      swap1\n      return\n        /* \"nestedMapping.sol\":440:704  function addYourMovie(uint _key,string memory _title,string memory _director) public... */\n    tag_5:\n      tag_18\n      0x04\n      dup1\n      calldatasize\n      sub\n      dup2\n      add\n      swap1\n      tag_19\n      swap2\n      swap1\n      tag_20\n      jump\t// in\n    tag_19:\n      tag_21\n      jump\t// in\n    tag_18:\n      stop\n        /* \"nestedMapping.sol\":294:434  function addMovie(uint _key,string memory _title,string memory _director) public... */\n    tag_6:\n      tag_22\n      0x04\n      dup1\n      calldatasize\n      sub\n      dup2\n      add\n      swap1\n      tag_23\n      swap2\n      swap1\n      tag_20\n      jump\t// in\n    tag_23:\n      tag_24\n      jump\t// in\n    tag_22:\n      stop\n        /* \"nestedMapping.sol\":176:211  mapping(uint=>movie) public myMovie */\n    tag_10:\n      mstore(0x20, 0x00)\n      dup1\n      0x00\n      mstore\n      keccak256(0x00, 0x40)\n      0x00\n      swap2\n      pop\n      swap1\n      pop\n      dup1\n      0x00\n      add\n      dup1\n      sload\n      tag_25\n      swap1\n      tag_26\n      jump\t// in\n    tag_25:\n      dup1\n      0x1f\n      add\n      0x20\n      dup1\n      swap2\n      div\n      mul\n      0x20\n      add\n      mload(0x40)\n      swap1\n      dup2\n      add\n      0x40\n      mstore\n      dup1\n      swap3\n      swap2\n      swap1\n      dup2\n      dup2\n      mstore\n      0x20\n      add\n      dup3\n      dup1\n      sload\n      tag_27\n      swap1\n      tag_26\n      jump\t// in\n    tag_27:\n      dup1\n      iszero\n      tag_28\n      jumpi\n      dup1\n      0x1f\n      lt\n      tag_29\n      jumpi\n      0x0100\n      dup1\n      dup4\n      sload\n      div\n      mul\n      dup4\n      mstore\n      swap2\n      0x20\n      add\n      swap2\n      jump(tag_28)\n    tag_29:\n      dup3\n      add\n      swap2\n      swap1\n      0x00\n      mstore\n      keccak256(0x00, 0x20)\n      swap1\n    tag_30:\n      dup2\n      sload\n      dup2\n      mstore\n      swap1\n      0x01\n      add\n      swap1\n      0x20\n      add\n      dup1\n      dup4\n      gt\n      tag_30\n      jumpi\n      dup3\n      swap1\n      sub\n      0x1f\n      and\n      dup3\n      add\n      swap2\n    tag_28:\n      pop\n      pop\n      pop\n      pop\n      pop\n      swap1\n      dup1\n      0x01\n      add\n      dup1\n      sload\n      tag_31\n      swap1\n      tag_26\n      jump\t// in\n    tag_31:\n      dup1\n      0x1f\n      add\n      0x20\n      dup1\n      swap2\n      div\n      mul\n      0x20\n      add\n      mload(0x40)\n      swap1\n      dup2\n      add\n      0x40\n      mstore\n      dup1\n      swap3\n      swap2\n      swap1\n      dup2\n      dup2\n      mstore\n      0x20\n      add\n      dup3\n      dup1\n      sload\n      tag_32\n      swap1\n      tag_26\n      jump\t// in\n    tag_32:\n      dup1\n      iszero\n      tag_33\n      jumpi\n      dup1\n      0x1f\n      lt\n      tag_34\n      jumpi\n      0x0100\n      dup1\n      dup4\n      sload\n      div\n      mul\n      dup4\n      mstore\n      swap2\n      0x20\n      add\n      swap2\n      jump(tag_33)\n    tag_34:\n      dup3\n      add\n      swap2\n      swap1\n      0x00\n      mstore\n      keccak256(0x00, 0x20)\n      swap1\n    tag_35:\n      dup2\n      sload\n      dup2\n      mstore\n      swap1\n      0x01\n      add\n      swap1\n      0x20\n      add\n      dup1\n      dup4\n      gt\n      tag_35\n      jumpi\n      dup3\n      swap1\n      sub\n      0x1f\n      and\n      dup3\n      add\n      swap2\n    tag_33:\n      pop\n      pop\n      pop\n      pop\n      pop\n      swap1\n      pop\n      dup3\n      jump\t// out\n        /* \"nestedMapping.sol\":217:272  mapping(address=>mapping(uint=>movie)) public yourMovie */\n    tag_16:\n      mstore(0x20, 0x01)\n      dup2\n      0x00\n      mstore\n      mstore(0x20, keccak256(0x00, 0x40))\n      dup1\n      0x00\n      mstore\n      keccak256(0x00, 0x40)\n      0x00\n      swap2\n      pop\n      swap2\n      pop\n      pop\n      dup1\n      0x00\n      add\n      dup1\n      sload\n      tag_36\n      swap1\n      tag_26\n      jump\t// in\n    tag_36:\n      dup1\n      0x1f\n      add\n      0x20\n      dup1\n      swap2\n      div\n      mul\n      0x20\n      add\n      mload(0x40)\n      swap1\n      dup2\n      add\n      0x40\n      mstore\n      dup1\n      swap3\n      swap2\n      swap1\n      dup2\n      dup2\n      mstore\n      0x20\n      add\n      dup3\n      dup1\n      sload\n      tag_37\n      swap1\n      tag_26\n      jump\t// in\n    tag_37:\n      dup1\n      iszero\n      tag_38\n      jumpi\n      dup1\n      0x1f\n      lt\n      tag_39\n      jumpi\n      0x0100\n      dup1\n      dup4\n      sload\n      div\n      mul\n      dup4\n      mstore\n      swap2\n      0x20\n      add\n      swap2\n      jump(tag_38)\n    tag_39:\n      dup3\n      add\n      swap2\n      swap1\n      0x00\n      mstore\n      keccak256(0x00, 0x20)\n      swap1\n    tag_40:\n      dup2\n      sload\n      dup2\n      mstore\n      swap1\n      0x01\n      add\n      swap1\n      0x20\n      add\n      dup1\n      dup4\n      gt\n      tag_40\n      jumpi\n      dup3\n      swap1\n      sub\n      0x1f\n      and\n      dup3\n      add\n      swap2\n    tag_38:\n      pop\n      pop\n      pop\n      pop\n      pop\n      swap1\n      dup1\n      0x01\n      add\n      dup1\n      sload\n      tag_41\n      swap1\n      tag_26\n      jump\t// in\n    tag_41:\n      dup1\n      0x1f\n      add\n      0x20\n      dup1\n      swap2\n      div\n      mul\n      0x20\n      add\n      mload(0x40)\n      swap1\n      dup2\n      add\n      0x40\n      mstore\n      dup1\n      swap3\n      swap2\n      swap1\n      dup2\n      dup2\n      mstore\n      0x20\n      add\n      dup3\n      dup1\n      sload\n      tag_42\n      swap1\n      tag_26\n      jump\t// in\n    tag_42:\n      dup1\n      iszero\n      tag_43\n      jumpi\n      dup1\n      0x1f\n      lt\n      tag_44\n      jumpi\n      0x0100\n      dup1\n      dup4\n      sload\n      div\n      mul\n      dup4\n      mstore\n      swap2\n      0x20\n      add\n      swap2\n      jump(tag_43)\n    tag_44:\n      dup3\n      add\n      swap2\n      swap1\n      0x00\n      mstore\n      keccak256(0x00, 0x20)\n      swap1\n    tag_45:\n      dup2\n      sload\n      dup2\n      mstore\n      swap1\n      0x01\n      add\n      swap1\n      0x20\n      add\n      dup1\n      dup4\n      gt\n      tag_45\n      jumpi\n      dup3\n      swap1\n      sub\n      0x1f\n      and\n      dup3\n      add\n      swap2\n    tag_43:\n      pop\n      pop\n      pop\n      pop\n      pop\n      swap1\n      pop\n      dup3\n      jump\t// out\n        /* \"nestedMapping.sol\":440:704  function addYourMovie(uint _key,string memory _title,string memory _director) public... */\n    tag_21:\n        /* \"nestedMapping.sol\":567:590  movie(_title,_director) */\n      mload(0x40)\n      dup1\n      0x40\n      add\n      0x40\n      mstore\n      dup1\n        /* \"nestedMapping.sol\":573:579  _title */\n      dup4\n        /* \"nestedMapping.sol\":567:590  movie(_title,_director) */\n      dup2\n      mstore\n      0x20\n      add\n        /* \"nestedMapping.sol\":580:589  _director */\n      dup3\n        /* \"nestedMapping.sol\":567:590  movie(_title,_director) */\n      dup2\n      mstore\n      pop\n        /* \"nestedMapping.sol\":539:548  yourMovie */\n      0x01\n        /* \"nestedMapping.sol\":539:560  yourMovie[msg.sender] */\n      0x00\n        /* \"nestedMapping.sol\":549:559  msg.sender */\n      caller\n        /* \"nestedMapping.sol\":539:560  yourMovie[msg.sender] */\n      0xffffffffffffffffffffffffffffffffffffffff\n      and\n      0xffffffffffffffffffffffffffffffffffffffff\n      and\n      dup2\n      mstore\n      0x20\n      add\n      swap1\n      dup2\n      mstore\n      0x20\n      add\n      0x00\n      keccak256\n        /* \"nestedMapping.sol\":539:566  yourMovie[msg.sender][_key] */\n      0x00\n        /* \"nestedMapping.sol\":561:565  _key */\n      dup6\n        /* \"nestedMapping.sol\":539:566  yourMovie[msg.sender][_key] */\n      dup2\n      mstore\n      0x20\n      add\n      swap1\n      dup2\n      mstore\n      0x20\n      add\n      0x00\n      keccak256\n        /* \"nestedMapping.sol\":539:590  yourMovie[msg.sender][_key]=movie(_title,_director) */\n      0x00\n      dup3\n      add\n      mload\n      dup2\n      0x00\n      add\n      swap1\n      dup2\n      tag_47\n      swap2\n      swap1\n      tag_48\n      jump\t// in\n    tag_47:\n      pop\n      0x20\n      dup3\n      add\n      mload\n      dup2\n      0x01\n      add\n      swap1\n      dup2\n      tag_49\n      swap2\n      swap1\n      tag_48\n      jump\t// in\n    tag_49:\n      pop\n      swap1\n      pop\n      pop\n        /* \"nestedMapping.sol\":440:704  function addYourMovie(uint _key,string memory _title,string memory _director) public... */\n      pop\n      pop\n      pop\n      jump\t// out\n        /* \"nestedMapping.sol\":294:434  function addMovie(uint _key,string memory _title,string memory _director) public... */\n    tag_24:\n        /* \"nestedMapping.sol\":403:426  movie(_title,_director) */\n      mload(0x40)\n      dup1\n      0x40\n      add\n      0x40\n      mstore\n      dup1\n        /* \"nestedMapping.sol\":409:415  _title */\n      dup4\n        /* \"nestedMapping.sol\":403:426  movie(_title,_director) */\n      dup2\n      mstore\n      0x20\n      add\n        /* \"nestedMapping.sol\":416:425  _director */\n      dup3\n        /* \"nestedMapping.sol\":403:426  movie(_title,_director) */\n      dup2\n      mstore\n      pop\n        /* \"nestedMapping.sol\":389:396  myMovie */\n      0x00\n        /* \"nestedMapping.sol\":389:402  myMovie[_key] */\n      dup1\n        /* \"nestedMapping.sol\":397:401  _key */\n      dup6\n        /* \"nestedMapping.sol\":389:402  myMovie[_key] */\n      dup2\n      mstore\n      0x20\n      add\n      swap1\n      dup2\n      mstore\n      0x20\n      add\n      0x00\n      keccak256\n        /* \"nestedMapping.sol\":389:426  myMovie[_key]=movie(_title,_director) */\n      0x00\n      dup3\n      add\n      mload\n      dup2\n      0x00\n      add\n      swap1\n      dup2\n      tag_51\n      swap2\n      swap1\n      tag_48\n      jump\t// in\n    tag_51:\n      pop\n      0x20\n      dup3\n      add\n      mload\n      dup2\n      0x01\n      add\n      swap1\n      dup2\n      tag_52\n      swap2\n      swap1\n      tag_48\n      jump\t// in\n    tag_52:\n      pop\n      swap1\n      pop\n      pop\n        /* \"nestedMapping.sol\":294:434  function addMovie(uint _key,string memory _title,string memory _director) public... */\n      pop\n      pop\n      pop\n      jump\t// out\n        /* \"#utility.yul\":7:82   */\n    tag_53:\n        /* \"#utility.yul\":40:46   */\n      0x00\n        /* \"#utility.yul\":73:75   */\n      0x40\n        /* \"#utility.yul\":67:76   */\n      mload\n        /* \"#utility.yul\":57:76   */\n      swap1\n      pop\n        /* \"#utility.yul\":7:82   */\n      swap1\n      jump\t// out\n        /* \"#utility.yul\":88:205   */\n    tag_54:\n        /* \"#utility.yul\":197:198   */\n      0x00\n        /* \"#utility.yul\":194:195   */\n      dup1\n        /* \"#utility.yul\":187:199   */\n      revert\n        /* \"#utility.yul\":211:328   */\n    tag_55:\n        /* \"#utility.yul\":320:321   */\n      0x00\n        /* \"#utility.yul\":317:318   */\n      dup1\n        /* \"#utility.yul\":310:322   */\n      revert\n        /* \"#utility.yul\":334:411   */\n    tag_56:\n        /* \"#utility.yul\":371:378   */\n      0x00\n        /* \"#utility.yul\":400:405   */\n      dup2\n        /* \"#utility.yul\":389:405   */\n      swap1\n      pop\n        /* \"#utility.yul\":334:411   */\n      swap2\n      swap1\n      pop\n      jump\t// out\n        /* \"#utility.yul\":417:539   */\n    tag_57:\n        /* \"#utility.yul\":490:514   */\n      tag_99\n        /* \"#utility.yul\":508:513   */\n      dup2\n        /* \"#utility.yul\":490:514   */\n      tag_56\n      jump\t// in\n    tag_99:\n        /* \"#utility.yul\":483:488   */\n      dup2\n        /* \"#utility.yul\":480:515   */\n      eq\n        /* \"#utility.yul\":470:533   */\n      tag_100\n      jumpi\n        /* \"#utility.yul\":529:530   */\n      0x00\n        /* \"#utility.yul\":526:527   */\n      dup1\n        /* \"#utility.yul\":519:531   */\n      revert\n        /* \"#utility.yul\":470:533   */\n    tag_100:\n        /* \"#utility.yul\":417:539   */\n      pop\n      jump\t// out\n        /* \"#utility.yul\":545:684   */\n    tag_58:\n        /* \"#utility.yul\":591:596   */\n      0x00\n        /* \"#utility.yul\":629:635   */\n      dup2\n        /* \"#utility.yul\":616:636   */\n      calldataload\n        /* \"#utility.yul\":607:636   */\n      swap1\n      pop\n        /* \"#utility.yul\":645:678   */\n      tag_102\n        /* \"#utility.yul\":672:677   */\n      dup2\n        /* \"#utility.yul\":645:678   */\n      tag_57\n      jump\t// in\n    tag_102:\n        /* \"#utility.yul\":545:684   */\n      swap3\n      swap2\n      pop\n      pop\n      jump\t// out\n        /* \"#utility.yul\":690:1019   */\n    tag_9:\n        /* \"#utility.yul\":749:755   */\n      0x00\n        /* \"#utility.yul\":798:800   */\n      0x20\n        /* \"#utility.yul\":786:795   */\n      dup3\n        /* \"#utility.yul\":777:784   */\n      dup5\n        /* \"#utility.yul\":773:796   */\n      sub\n        /* \"#utility.yul\":769:801   */\n      slt\n        /* \"#utility.yul\":766:885   */\n      iszero\n      tag_104\n      jumpi\n        /* \"#utility.yul\":804:883   */\n      tag_105\n      tag_54\n      jump\t// in\n    tag_105:\n        /* \"#utility.yul\":766:885   */\n    tag_104:\n        /* \"#utility.yul\":924:925   */\n      0x00\n        /* \"#utility.yul\":949:1002   */\n      tag_106\n        /* \"#utility.yul\":994:1001   */\n      dup5\n        /* \"#utility.yul\":985:991   */\n      dup3\n        /* \"#utility.yul\":974:983   */\n      dup6\n        /* \"#utility.yul\":970:992   */\n      add\n        /* \"#utility.yul\":949:1002   */\n      tag_58\n      jump\t// in\n    tag_106:\n        /* \"#utility.yul\":939:1002   */\n      swap2\n      pop\n        /* \"#utility.yul\":895:1012   */\n      pop\n        /* \"#utility.yul\":690:1019   */\n      swap3\n      swap2\n      pop\n      pop\n      jump\t// out\n        /* \"#utility.yul\":1025:1124   */\n    tag_59:\n        /* \"#utility.yul\":1077:1083   */\n      0x00\n        /* \"#utility.yul\":1111:1116   */\n      dup2\n        /* \"#utility.yul\":1105:1117   */\n      mload\n        /* \"#utility.yul\":1095:1117   */\n      swap1\n      pop\n        /* \"#utility.yul\":1025:1124   */\n      swap2\n      swap1\n      pop\n      jump\t// out\n        /* \"#utility.yul\":1130:1299   */\n    tag_60:\n        /* \"#utility.yul\":1214:1225   */\n      0x00\n        /* \"#utility.yul\":1248:1254   */\n      dup3\n        /* \"#utility.yul\":1243:1246   */\n      dup3\n        /* \"#utility.yul\":1236:1255   */\n      mstore\n        /* \"#utility.yul\":1288:1292   */\n      0x20\n        /* \"#utility.yul\":1283:1286   */\n      dup3\n        /* \"#utility.yul\":1279:1293   */\n      add\n        /* \"#utility.yul\":1264:1293   */\n      swap1\n      pop\n        /* \"#utility.yul\":1130:1299   */\n      swap3\n      swap2\n      pop\n      pop\n      jump\t// out\n        /* \"#utility.yul\":1305:1551   */\n    tag_61:\n        /* \"#utility.yul\":1386:1387   */\n      0x00\n        /* \"#utility.yul\":1396:1509   */\n    tag_110:\n        /* \"#utility.yul\":1410:1416   */\n      dup4\n        /* \"#utility.yul\":1407:1408   */\n      dup2\n        /* \"#utility.yul\":1404:1417   */\n      lt\n        /* \"#utility.yul\":1396:1509   */\n      iszero\n      tag_112\n      jumpi\n        /* \"#utility.yul\":1495:1496   */\n      dup1\n        /* \"#utility.yul\":1490:1493   */\n      dup3\n        /* \"#utility.yul\":1486:1497   */\n      add\n        /* \"#utility.yul\":1480:1498   */\n      mload\n        /* \"#utility.yul\":1476:1477   */\n      dup2\n        /* \"#utility.yul\":1471:1474   */\n      dup5\n        /* \"#utility.yul\":1467:1478   */\n      add\n        /* \"#utility.yul\":1460:1499   */\n      mstore\n        /* \"#utility.yul\":1432:1434   */\n      0x20\n        /* \"#utility.yul\":1429:1430   */\n      dup2\n        /* \"#utility.yul\":1425:1435   */\n      add\n        /* \"#utility.yul\":1420:1435   */\n      swap1\n      pop\n        /* \"#utility.yul\":1396:1509   */\n      jump(tag_110)\n    tag_112:\n        /* \"#utility.yul\":1543:1544   */\n      0x00\n        /* \"#utility.yul\":1534:1540   */\n      dup5\n        /* \"#utility.yul\":1529:1532   */\n      dup5\n        /* \"#utility.yul\":1525:1541   */\n      add\n        /* \"#utility.yul\":1518:1545   */\n      mstore\n        /* \"#utility.yul\":1367:1551   */\n      pop\n        /* \"#utility.yul\":1305:1551   */\n      pop\n      pop\n      pop\n      jump\t// out\n        /* \"#utility.yul\":1557:1659   */\n    tag_62:\n        /* \"#utility.yul\":1598:1604   */\n      0x00\n        /* \"#utility.yul\":1649:1651   */\n      0x1f\n        /* \"#utility.yul\":1645:1652   */\n      not\n        /* \"#utility.yul\":1640:1642   */\n      0x1f\n        /* \"#utility.yul\":1633:1638   */\n      dup4\n        /* \"#utility.yul\":1629:1643   */\n      add\n        /* \"#utility.yul\":1625:1653   */\n      and\n        /* \"#utility.yul\":1615:1653   */\n      swap1\n      pop\n        /* \"#utility.yul\":1557:1659   */\n      swap2\n      swap1\n      pop\n      jump\t// out\n        /* \"#utility.yul\":1665:2042   */\n    tag_63:\n        /* \"#utility.yul\":1753:1756   */\n      0x00\n        /* \"#utility.yul\":1781:1820   */\n      tag_115\n        /* \"#utility.yul\":1814:1819   */\n      dup3\n        /* \"#utility.yul\":1781:1820   */\n      tag_59\n      jump\t// in\n    tag_115:\n        /* \"#utility.yul\":1836:1907   */\n      tag_116\n        /* \"#utility.yul\":1900:1906   */\n      dup2\n        /* \"#utility.yul\":1895:1898   */\n      dup6\n        /* \"#utility.yul\":1836:1907   */\n      tag_60\n      jump\t// in\n    tag_116:\n        /* \"#utility.yul\":1829:1907   */\n      swap4\n      pop\n        /* \"#utility.yul\":1916:1981   */\n      tag_117\n        /* \"#utility.yul\":1974:1980   */\n      dup2\n        /* \"#utility.yul\":1969:1972   */\n      dup6\n        /* \"#utility.yul\":1962:1966   */\n      0x20\n        /* \"#utility.yul\":1955:1960   */\n      dup7\n        /* \"#utility.yul\":1951:1967   */\n      add\n        /* \"#utility.yul\":1916:1981   */\n      tag_61\n      jump\t// in\n    tag_117:\n        /* \"#utility.yul\":2006:2035   */\n      tag_118\n        /* \"#utility.yul\":2028:2034   */\n      dup2\n        /* \"#utility.yul\":2006:2035   */\n      tag_62\n      jump\t// in\n    tag_118:\n        /* \"#utility.yul\":2001:2004   */\n      dup5\n        /* \"#utility.yul\":1997:2036   */\n      add\n        /* \"#utility.yul\":1990:2036   */\n      swap2\n      pop\n        /* \"#utility.yul\":1757:2042   */\n      pop\n        /* \"#utility.yul\":1665:2042   */\n      swap3\n      swap2\n      pop\n      pop\n      jump\t// out\n        /* \"#utility.yul\":2048:2562   */\n    tag_12:\n        /* \"#utility.yul\":2209:2213   */\n      0x00\n        /* \"#utility.yul\":2247:2249   */\n      0x40\n        /* \"#utility.yul\":2236:2245   */\n      dup3\n        /* \"#utility.yul\":2232:2250   */\n      add\n        /* \"#utility.yul\":2224:2250   */\n      swap1\n      pop\n        /* \"#utility.yul\":2296:2305   */\n      dup2\n        /* \"#utility.yul\":2290:2294   */\n      dup2\n        /* \"#utility.yul\":2286:2306   */\n      sub\n        /* \"#utility.yul\":2282:2283   */\n      0x00\n        /* \"#utility.yul\":2271:2280   */\n      dup4\n        /* \"#utility.yul\":2267:2284   */\n      add\n        /* \"#utility.yul\":2260:2307   */\n      mstore\n        /* \"#utility.yul\":2324:2402   */\n      tag_120\n        /* \"#utility.yul\":2397:2401   */\n      dup2\n        /* \"#utility.yul\":2388:2394   */\n      dup6\n        /* \"#utility.yul\":2324:2402   */\n      tag_63\n      jump\t// in\n    tag_120:\n        /* \"#utility.yul\":2316:2402   */\n      swap1\n      pop\n        /* \"#utility.yul\":2449:2458   */\n      dup2\n        /* \"#utility.yul\":2443:2447   */\n      dup2\n        /* \"#utility.yul\":2439:2459   */\n      sub\n        /* \"#utility.yul\":2434:2436   */\n      0x20\n        /* \"#utility.yul\":2423:2432   */\n      dup4\n        /* \"#utility.yul\":2419:2437   */\n      add\n        /* \"#utility.yul\":2412:2460   */\n      mstore\n        /* \"#utility.yul\":2477:2555   */\n      tag_121\n        /* \"#utility.yul\":2550:2554   */\n      dup2\n        /* \"#utility.yul\":2541:2547   */\n      dup5\n        /* \"#utility.yul\":2477:2555   */\n      tag_63\n      jump\t// in\n    tag_121:\n        /* \"#utility.yul\":2469:2555   */\n      swap1\n      pop\n        /* \"#utility.yul\":2048:2562   */\n      swap4\n      swap3\n      pop\n      pop\n      pop\n      jump\t// out\n        /* \"#utility.yul\":2568:2694   */\n    tag_64:\n        /* \"#utility.yul\":2605:2612   */\n      0x00\n        /* \"#utility.yul\":2645:2687   */\n      0xffffffffffffffffffffffffffffffffffffffff\n        /* \"#utility.yul\":2638:2643   */\n      dup3\n        /* \"#utility.yul\":2634:2688   */\n      and\n        /* \"#utility.yul\":2623:2688   */\n      swap1\n      pop\n        /* \"#utility.yul\":2568:2694   */\n      swap2\n      swap1\n      pop\n      jump\t// out\n        /* \"#utility.yul\":2700:2796   */\n    tag_65:\n        /* \"#utility.yul\":2737:2744   */\n      0x00\n        /* \"#utility.yul\":2766:2790   */\n      tag_124\n        /* \"#utility.yul\":2784:2789   */\n      dup3\n        /* \"#utility.yul\":2766:2790   */\n      tag_64\n      jump\t// in\n    tag_124:\n        /* \"#utility.yul\":2755:2790   */\n      swap1\n      pop\n        /* \"#utility.yul\":2700:2796   */\n      swap2\n      swap1\n      pop\n      jump\t// out\n        /* \"#utility.yul\":2802:2924   */\n    tag_66:\n        /* \"#utility.yul\":2875:2899   */\n      tag_126\n        /* \"#utility.yul\":2893:2898   */\n      dup2\n        /* \"#utility.yul\":2875:2899   */\n      tag_65\n      jump\t// in\n    tag_126:\n        /* \"#utility.yul\":2868:2873   */\n      dup2\n        /* \"#utility.yul\":2865:2900   */\n      eq\n        /* \"#utility.yul\":2855:2918   */\n      tag_127\n      jumpi\n        /* \"#utility.yul\":2914:2915   */\n      0x00\n        /* \"#utility.yul\":2911:2912   */\n      dup1\n        /* \"#utility.yul\":2904:2916   */\n      revert\n        /* \"#utility.yul\":2855:2918   */\n    tag_127:\n        /* \"#utility.yul\":2802:2924   */\n      pop\n      jump\t// out\n        /* \"#utility.yul\":2930:3069   */\n    tag_67:\n        /* \"#utility.yul\":2976:2981   */\n      0x00\n        /* \"#utility.yul\":3014:3020   */\n      dup2\n        /* \"#utility.yul\":3001:3021   */\n      calldataload\n        /* \"#utility.yul\":2992:3021   */\n      swap1\n      pop\n        /* \"#utility.yul\":3030:3063   */\n      tag_129\n        /* \"#utility.yul\":3057:3062   */\n      dup2\n        /* \"#utility.yul\":3030:3063   */\n      tag_66\n      jump\t// in\n    tag_129:\n        /* \"#utility.yul\":2930:3069   */\n      swap3\n      swap2\n      pop\n      pop\n      jump\t// out\n        /* \"#utility.yul\":3075:3549   */\n    tag_15:\n        /* \"#utility.yul\":3143:3149   */\n      0x00\n        /* \"#utility.yul\":3151:3157   */\n      dup1\n        /* \"#utility.yul\":3200:3202   */\n      0x40\n        /* \"#utility.yul\":3188:3197   */\n      dup4\n        /* \"#utility.yul\":3179:3186   */\n      dup6\n        /* \"#utility.yul\":3175:3198   */\n      sub\n        /* \"#utility.yul\":3171:3203   */\n      slt\n        /* \"#utility.yul\":3168:3287   */\n      iszero\n      tag_131\n      jumpi\n        /* \"#utility.yul\":3206:3285   */\n      tag_132\n      tag_54\n      jump\t// in\n    tag_132:\n        /* \"#utility.yul\":3168:3287   */\n    tag_131:\n        /* \"#utility.yul\":3326:3327   */\n      0x00\n        /* \"#utility.yul\":3351:3404   */\n      tag_133\n        /* \"#utility.yul\":3396:3403   */\n      dup6\n        /* \"#utility.yul\":3387:3393   */\n      dup3\n        /* \"#utility.yul\":3376:3385   */\n      dup7\n        /* \"#utility.yul\":3372:3394   */\n      add\n        /* \"#utility.yul\":3351:3404   */\n      tag_67\n      jump\t// in\n    tag_133:\n        /* \"#utility.yul\":3341:3404   */\n      swap3\n      pop\n        /* \"#utility.yul\":3297:3414   */\n      pop\n        /* \"#utility.yul\":3453:3455   */\n      0x20\n        /* \"#utility.yul\":3479:3532   */\n      tag_134\n        /* \"#utility.yul\":3524:3531   */\n      dup6\n        /* \"#utility.yul\":3515:3521   */\n      dup3\n        /* \"#utility.yul\":3504:3513   */\n      dup7\n        /* \"#utility.yul\":3500:3522   */\n      add\n        /* \"#utility.yul\":3479:3532   */\n      tag_58\n      jump\t// in\n    tag_134:\n        /* \"#utility.yul\":3469:3532   */\n      swap2\n      pop\n        /* \"#utility.yul\":3424:3542   */\n      pop\n        /* \"#utility.yul\":3075:3549   */\n      swap3\n      pop\n      swap3\n      swap1\n      pop\n      jump\t// out\n        /* \"#utility.yul\":3555:3672   */\n    tag_68:\n        /* \"#utility.yul\":3664:3665   */\n      0x00\n        /* \"#utility.yul\":3661:3662   */\n      dup1\n        /* \"#utility.yul\":3654:3666   */\n      revert\n        /* \"#utility.yul\":3678:3795   */\n    tag_69:\n        /* \"#utility.yul\":3787:3788   */\n      0x00\n        /* \"#utility.yul\":3784:3785   */\n      dup1\n        /* \"#utility.yul\":3777:3789   */\n      revert\n        /* \"#utility.yul\":3801:3981   */\n    tag_70:\n        /* \"#utility.yul\":3849:3926   */\n      0x4e487b7100000000000000000000000000000000000000000000000000000000\n        /* \"#utility.yul\":3846:3847   */\n      0x00\n        /* \"#utility.yul\":3839:3927   */\n      mstore\n        /* \"#utility.yul\":3946:3950   */\n      0x41\n        /* \"#utility.yul\":3943:3944   */\n      0x04\n        /* \"#utility.yul\":3936:3951   */\n      mstore\n        /* \"#utility.yul\":3970:3974   */\n      0x24\n        /* \"#utility.yul\":3967:3968   */\n      0x00\n        /* \"#utility.yul\":3960:3975   */\n      revert\n        /* \"#utility.yul\":3987:4268   */\n    tag_71:\n        /* \"#utility.yul\":4070:4097   */\n      tag_139\n        /* \"#utility.yul\":4092:4096   */\n      dup3\n        /* \"#utility.yul\":4070:4097   */\n      tag_62\n      jump\t// in\n    tag_139:\n        /* \"#utility.yul\":4062:4068   */\n      dup2\n        /* \"#utility.yul\":4058:4098   */\n      add\n        /* \"#utility.yul\":4200:4206   */\n      dup2\n        /* \"#utility.yul\":4188:4198   */\n      dup2\n        /* \"#utility.yul\":4185:4207   */\n      lt\n        /* \"#utility.yul\":4164:4182   */\n      0xffffffffffffffff\n        /* \"#utility.yul\":4152:4162   */\n      dup3\n        /* \"#utility.yul\":4149:4183   */\n      gt\n        /* \"#utility.yul\":4146:4208   */\n      or\n        /* \"#utility.yul\":4143:4231   */\n      iszero\n      tag_140\n      jumpi\n        /* \"#utility.yul\":4211:4229   */\n      tag_141\n      tag_70\n      jump\t// in\n    tag_141:\n        /* \"#utility.yul\":4143:4231   */\n    tag_140:\n        /* \"#utility.yul\":4251:4261   */\n      dup1\n        /* \"#utility.yul\":4247:4249   */\n      0x40\n        /* \"#utility.yul\":4240:4262   */\n      mstore\n        /* \"#utility.yul\":4030:4268   */\n      pop\n        /* \"#utility.yul\":3987:4268   */\n      pop\n      pop\n      jump\t// out\n        /* \"#utility.yul\":4274:4403   */\n    tag_72:\n        /* \"#utility.yul\":4308:4314   */\n      0x00\n        /* \"#utility.yul\":4335:4355   */\n      tag_143\n      tag_53\n      jump\t// in\n    tag_143:\n        /* \"#utility.yul\":4325:4355   */\n      swap1\n      pop\n        /* \"#utility.yul\":4364:4397   */\n      tag_144\n        /* \"#utility.yul\":4392:4396   */\n      dup3\n        /* \"#utility.yul\":4384:4390   */\n      dup3\n        /* \"#utility.yul\":4364:4397   */\n      tag_71\n      jump\t// in\n    tag_144:\n        /* \"#utility.yul\":4274:4403   */\n      swap2\n      swap1\n      pop\n      jump\t// out\n        /* \"#utility.yul\":4409:4717   */\n    tag_73:\n        /* \"#utility.yul\":4471:4475   */\n      0x00\n        /* \"#utility.yul\":4561:4579   */\n      0xffffffffffffffff\n        /* \"#utility.yul\":4553:4559   */\n      dup3\n        /* \"#utility.yul\":4550:4580   */\n      gt\n        /* \"#utility.yul\":4547:4603   */\n      iszero\n      tag_146\n      jumpi\n        /* \"#utility.yul\":4583:4601   */\n      tag_147\n      tag_70\n      jump\t// in\n    tag_147:\n        /* \"#utility.yul\":4547:4603   */\n    tag_146:\n        /* \"#utility.yul\":4621:4650   */\n      tag_148\n        /* \"#utility.yul\":4643:4649   */\n      dup3\n        /* \"#utility.yul\":4621:4650   */\n      tag_62\n      jump\t// in\n    tag_148:\n        /* \"#utility.yul\":4613:4650   */\n      swap1\n      pop\n        /* \"#utility.yul\":4705:4709   */\n      0x20\n        /* \"#utility.yul\":4699:4703   */\n      dup2\n        /* \"#utility.yul\":4695:4710   */\n      add\n        /* \"#utility.yul\":4687:4710   */\n      swap1\n      pop\n        /* \"#utility.yul\":4409:4717   */\n      swap2\n      swap1\n      pop\n      jump\t// out\n        /* \"#utility.yul\":4723:4869   */\n    tag_74:\n        /* \"#utility.yul\":4820:4826   */\n      dup3\n        /* \"#utility.yul\":4815:4818   */\n      dup2\n        /* \"#utility.yul\":4810:4813   */\n      dup4\n        /* \"#utility.yul\":4797:4827   */\n      calldatacopy\n        /* \"#utility.yul\":4861:4862   */\n      0x00\n        /* \"#utility.yul\":4852:4858   */\n      dup4\n        /* \"#utility.yul\":4847:4850   */\n      dup4\n        /* \"#utility.yul\":4843:4859   */\n      add\n        /* \"#utility.yul\":4836:4863   */\n      mstore\n        /* \"#utility.yul\":4723:4869   */\n      pop\n      pop\n      pop\n      jump\t// out\n        /* \"#utility.yul\":4875:5300   */\n    tag_75:\n        /* \"#utility.yul\":4953:4958   */\n      0x00\n        /* \"#utility.yul\":4978:5044   */\n      tag_151\n        /* \"#utility.yul\":4994:5043   */\n      tag_152\n        /* \"#utility.yul\":5036:5042   */\n      dup5\n        /* \"#utility.yul\":4994:5043   */\n      tag_73\n      jump\t// in\n    tag_152:\n        /* \"#utility.yul\":4978:5044   */\n      tag_72\n      jump\t// in\n    tag_151:\n        /* \"#utility.yul\":4969:5044   */\n      swap1\n      pop\n        /* \"#utility.yul\":5067:5073   */\n      dup3\n        /* \"#utility.yul\":5060:5065   */\n      dup2\n        /* \"#utility.yul\":5053:5074   */\n      mstore\n        /* \"#utility.yul\":5105:5109   */\n      0x20\n        /* \"#utility.yul\":5098:5103   */\n      dup2\n        /* \"#utility.yul\":5094:5110   */\n      add\n        /* \"#utility.yul\":5143:5146   */\n      dup5\n        /* \"#utility.yul\":5134:5140   */\n      dup5\n        /* \"#utility.yul\":5129:5132   */\n      dup5\n        /* \"#utility.yul\":5125:5141   */\n      add\n        /* \"#utility.yul\":5122:5147   */\n      gt\n        /* \"#utility.yul\":5119:5231   */\n      iszero\n      tag_153\n      jumpi\n        /* \"#utility.yul\":5150:5229   */\n      tag_154\n      tag_69\n      jump\t// in\n    tag_154:\n        /* \"#utility.yul\":5119:5231   */\n    tag_153:\n        /* \"#utility.yul\":5240:5294   */\n      tag_155\n        /* \"#utility.yul\":5287:5293   */\n      dup5\n        /* \"#utility.yul\":5282:5285   */\n      dup3\n        /* \"#utility.yul\":5277:5280   */\n      dup6\n        /* \"#utility.yul\":5240:5294   */\n      tag_74\n      jump\t// in\n    tag_155:\n        /* \"#utility.yul\":4959:5300   */\n      pop\n        /* \"#utility.yul\":4875:5300   */\n      swap4\n      swap3\n      pop\n      pop\n      pop\n      jump\t// out\n        /* \"#utility.yul\":5320:5660   */\n    tag_76:\n        /* \"#utility.yul\":5376:5381   */\n      0x00\n        /* \"#utility.yul\":5425:5428   */\n      dup3\n        /* \"#utility.yul\":5418:5422   */\n      0x1f\n        /* \"#utility.yul\":5410:5416   */\n      dup4\n        /* \"#utility.yul\":5406:5423   */\n      add\n        /* \"#utility.yul\":5402:5429   */\n      slt\n        /* \"#utility.yul\":5392:5514   */\n      tag_157\n      jumpi\n        /* \"#utility.yul\":5433:5512   */\n      tag_158\n      tag_68\n      jump\t// in\n    tag_158:\n        /* \"#utility.yul\":5392:5514   */\n    tag_157:\n        /* \"#utility.yul\":5550:5556   */\n      dup2\n        /* \"#utility.yul\":5537:5557   */\n      calldataload\n        /* \"#utility.yul\":5575:5654   */\n      tag_159\n        /* \"#utility.yul\":5650:5653   */\n      dup5\n        /* \"#utility.yul\":5642:5648   */\n      dup3\n        /* \"#utility.yul\":5635:5639   */\n      0x20\n        /* \"#utility.yul\":5627:5633   */\n      dup7\n        /* \"#utility.yul\":5623:5640   */\n      add\n        /* \"#utility.yul\":5575:5654   */\n      tag_75\n      jump\t// in\n    tag_159:\n        /* \"#utility.yul\":5566:5654   */\n      swap2\n      pop\n        /* \"#utility.yul\":5382:5660   */\n      pop\n        /* \"#utility.yul\":5320:5660   */\n      swap3\n      swap2\n      pop\n      pop\n      jump\t// out\n        /* \"#utility.yul\":5666:6645   */\n    tag_20:\n        /* \"#utility.yul\":5763:5769   */\n      0x00\n        /* \"#utility.yul\":5771:5777   */\n      dup1\n        /* \"#utility.yul\":5779:5785   */\n      0x00\n        /* \"#utility.yul\":5828:5830   */\n      0x60\n        /* \"#utility.yul\":5816:5825   */\n      dup5\n        /* \"#utility.yul\":5807:5814   */\n      dup7\n        /* \"#utility.yul\":5803:5826   */\n      sub\n        /* \"#utility.yul\":5799:5831   */\n      slt\n        /* \"#utility.yul\":5796:5915   */\n      iszero\n      tag_161\n      jumpi\n        /* \"#utility.yul\":5834:5913   */\n      tag_162\n      tag_54\n      jump\t// in\n    tag_162:\n        /* \"#utility.yul\":5796:5915   */\n    tag_161:\n        /* \"#utility.yul\":5954:5955   */\n      0x00\n        /* \"#utility.yul\":5979:6032   */\n      tag_163\n        /* \"#utility.yul\":6024:6031   */\n      dup7\n        /* \"#utility.yul\":6015:6021   */\n      dup3\n        /* \"#utility.yul\":6004:6013   */\n      dup8\n        /* \"#utility.yul\":6000:6022   */\n      add\n        /* \"#utility.yul\":5979:6032   */\n      tag_58\n      jump\t// in\n    tag_163:\n        /* \"#utility.yul\":5969:6032   */\n      swap4\n      pop\n        /* \"#utility.yul\":5925:6042   */\n      pop\n        /* \"#utility.yul\":6109:6111   */\n      0x20\n        /* \"#utility.yul\":6098:6107   */\n      dup5\n        /* \"#utility.yul\":6094:6112   */\n      add\n        /* \"#utility.yul\":6081:6113   */\n      calldataload\n        /* \"#utility.yul\":6140:6158   */\n      0xffffffffffffffff\n        /* \"#utility.yul\":6132:6138   */\n      dup2\n        /* \"#utility.yul\":6129:6159   */\n      gt\n        /* \"#utility.yul\":6126:6243   */\n      iszero\n      tag_164\n      jumpi\n        /* \"#utility.yul\":6162:6241   */\n      tag_165\n      tag_55\n      jump\t// in\n    tag_165:\n        /* \"#utility.yul\":6126:6243   */\n    tag_164:\n        /* \"#utility.yul\":6267:6330   */\n      tag_166\n        /* \"#utility.yul\":6322:6329   */\n      dup7\n        /* \"#utility.yul\":6313:6319   */\n      dup3\n        /* \"#utility.yul\":6302:6311   */\n      dup8\n        /* \"#utility.yul\":6298:6320   */\n      add\n        /* \"#utility.yul\":6267:6330   */\n      tag_76\n      jump\t// in\n    tag_166:\n        /* \"#utility.yul\":6257:6330   */\n      swap3\n      pop\n        /* \"#utility.yul\":6052:6340   */\n      pop\n        /* \"#utility.yul\":6407:6409   */\n      0x40\n        /* \"#utility.yul\":6396:6405   */\n      dup5\n        /* \"#utility.yul\":6392:6410   */\n      add\n        /* \"#utility.yul\":6379:6411   */\n      calldataload\n        /* \"#utility.yul\":6438:6456   */\n      0xffffffffffffffff\n        /* \"#utility.yul\":6430:6436   */\n      dup2\n        /* \"#utility.yul\":6427:6457   */\n      gt\n        /* \"#utility.yul\":6424:6541   */\n      iszero\n      tag_167\n      jumpi\n        /* \"#utility.yul\":6460:6539   */\n      tag_168\n      tag_55\n      jump\t// in\n    tag_168:\n        /* \"#utility.yul\":6424:6541   */\n    tag_167:\n        /* \"#utility.yul\":6565:6628   */\n      tag_169\n        /* \"#utility.yul\":6620:6627   */\n      dup7\n        /* \"#utility.yul\":6611:6617   */\n      dup3\n        /* \"#utility.yul\":6600:6609   */\n      dup8\n        /* \"#utility.yul\":6596:6618   */\n      add\n        /* \"#utility.yul\":6565:6628   */\n      tag_76\n      jump\t// in\n    tag_169:\n        /* \"#utility.yul\":6555:6628   */\n      swap2\n      pop\n        /* \"#utility.yul\":6350:6638   */\n      pop\n        /* \"#utility.yul\":5666:6645   */\n      swap3\n      pop\n      swap3\n      pop\n      swap3\n      jump\t// out\n        /* \"#utility.yul\":6651:6831   */\n    tag_77:\n        /* \"#utility.yul\":6699:6776   */\n      0x4e487b7100000000000000000000000000000000000000000000000000000000\n        /* \"#utility.yul\":6696:6697   */\n      0x00\n        /* \"#utility.yul\":6689:6777   */\n      mstore\n        /* \"#utility.yul\":6796:6800   */\n      0x22\n        /* \"#utility.yul\":6793:6794   */\n      0x04\n        /* \"#utility.yul\":6786:6801   */\n      mstore\n        /* \"#utility.yul\":6820:6824   */\n      0x24\n        /* \"#utility.yul\":6817:6818   */\n      0x00\n        /* \"#utility.yul\":6810:6825   */\n      revert\n        /* \"#utility.yul\":6837:7157   */\n    tag_26:\n        /* \"#utility.yul\":6881:6887   */\n      0x00\n        /* \"#utility.yul\":6918:6919   */\n      0x02\n        /* \"#utility.yul\":6912:6916   */\n      dup3\n        /* \"#utility.yul\":6908:6920   */\n      div\n        /* \"#utility.yul\":6898:6920   */\n      swap1\n      pop\n        /* \"#utility.yul\":6965:6966   */\n      0x01\n        /* \"#utility.yul\":6959:6963   */\n      dup3\n        /* \"#utility.yul\":6955:6967   */\n      and\n        /* \"#utility.yul\":6986:7004   */\n      dup1\n        /* \"#utility.yul\":6976:7057   */\n      tag_172\n      jumpi\n        /* \"#utility.yul\":7042:7046   */\n      0x7f\n        /* \"#utility.yul\":7034:7040   */\n      dup3\n        /* \"#utility.yul\":7030:7047   */\n      and\n        /* \"#utility.yul\":7020:7047   */\n      swap2\n      pop\n        /* \"#utility.yul\":6976:7057   */\n    tag_172:\n        /* \"#utility.yul\":7104:7106   */\n      0x20\n        /* \"#utility.yul\":7096:7102   */\n      dup3\n        /* \"#utility.yul\":7093:7107   */\n      lt\n        /* \"#utility.yul\":7073:7091   */\n      dup2\n        /* \"#utility.yul\":7070:7108   */\n      sub\n        /* \"#utility.yul\":7067:7151   */\n      tag_173\n      jumpi\n        /* \"#utility.yul\":7123:7141   */\n      tag_174\n      tag_77\n      jump\t// in\n    tag_174:\n        /* \"#utility.yul\":7067:7151   */\n    tag_173:\n        /* \"#utility.yul\":6888:7157   */\n      pop\n        /* \"#utility.yul\":6837:7157   */\n      swap2\n      swap1\n      pop\n      jump\t// out\n        /* \"#utility.yul\":7163:7304   */\n    tag_78:\n        /* \"#utility.yul\":7212:7216   */\n      0x00\n        /* \"#utility.yul\":7235:7238   */\n      dup2\n        /* \"#utility.yul\":7227:7238   */\n      swap1\n      pop\n        /* \"#utility.yul\":7258:7261   */\n      dup2\n        /* \"#utility.yul\":7255:7256   */\n      0x00\n        /* \"#utility.yul\":7248:7262   */\n      mstore\n        /* \"#utility.yul\":7292:7296   */\n      0x20\n        /* \"#utility.yul\":7289:7290   */\n      0x00\n        /* \"#utility.yul\":7279:7297   */\n      keccak256\n        /* \"#utility.yul\":7271:7297   */\n      swap1\n      pop\n        /* \"#utility.yul\":7163:7304   */\n      swap2\n      swap1\n      pop\n      jump\t// out\n        /* \"#utility.yul\":7310:7403   */\n    tag_79:\n        /* \"#utility.yul\":7347:7353   */\n      0x00\n        /* \"#utility.yul\":7394:7396   */\n      0x20\n        /* \"#utility.yul\":7389:7391   */\n      0x1f\n        /* \"#utility.yul\":7382:7387   */\n      dup4\n        /* \"#utility.yul\":7378:7392   */\n      add\n        /* \"#utility.yul\":7374:7397   */\n      div\n        /* \"#utility.yul\":7364:7397   */\n      swap1\n      pop\n        /* \"#utility.yul\":7310:7403   */\n      swap2\n      swap1\n      pop\n      jump\t// out\n        /* \"#utility.yul\":7409:7516   */\n    tag_80:\n        /* \"#utility.yul\":7453:7461   */\n      0x00\n        /* \"#utility.yul\":7503:7508   */\n      dup3\n        /* \"#utility.yul\":7497:7501   */\n      dup3\n        /* \"#utility.yul\":7493:7509   */\n      shl\n        /* \"#utility.yul\":7472:7509   */\n      swap1\n      pop\n        /* \"#utility.yul\":7409:7516   */\n      swap3\n      swap2\n      pop\n      pop\n      jump\t// out\n        /* \"#utility.yul\":7522:7915   */\n    tag_81:\n        /* \"#utility.yul\":7591:7597   */\n      0x00\n        /* \"#utility.yul\":7641:7642   */\n      0x08\n        /* \"#utility.yul\":7629:7639   */\n      dup4\n        /* \"#utility.yul\":7625:7643   */\n      mul\n        /* \"#utility.yul\":7664:7761   */\n      tag_179\n        /* \"#utility.yul\":7694:7760   */\n      0xffffffffffffffffffffffffffffffffffffffffffffffffffffffffffffffff\n        /* \"#utility.yul\":7683:7692   */\n      dup3\n        /* \"#utility.yul\":7664:7761   */\n      tag_80\n      jump\t// in\n    tag_179:\n        /* \"#utility.yul\":7782:7821   */\n      tag_180\n        /* \"#utility.yul\":7812:7820   */\n      dup7\n        /* \"#utility.yul\":7801:7810   */\n      dup4\n        /* \"#utility.yul\":7782:7821   */\n      tag_80\n      jump\t// in\n    tag_180:\n        /* \"#utility.yul\":7770:7821   */\n      swap6\n      pop\n        /* \"#utility.yul\":7854:7858   */\n      dup1\n        /* \"#utility.yul\":7850:7859   */\n      not\n        /* \"#utility.yul\":7843:7848   */\n      dup5\n        /* \"#utility.yul\":7839:7860   */\n      and\n        /* \"#utility.yul\":7830:7860   */\n      swap4\n      pop\n        /* \"#utility.yul\":7903:7907   */\n      dup1\n        /* \"#utility.yul\":7893:7901   */\n      dup7\n        /* \"#utility.yul\":7889:7908   */\n      and\n        /* \"#utility.yul\":7882:7887   */\n      dup5\n        /* \"#utility.yul\":7879:7909   */\n      or\n        /* \"#utility.yul\":7869:7909   */\n      swap3\n      pop\n        /* \"#utility.yul\":7598:7915   */\n      pop\n      pop\n        /* \"#utility.yul\":7522:7915   */\n      swap4\n      swap3\n      pop\n      pop\n      pop\n      jump\t// out\n        /* \"#utility.yul\":7921:7981   */\n    tag_82:\n        /* \"#utility.yul\":7949:7952   */\n      0x00\n        /* \"#utility.yul\":7970:7975   */\n      dup2\n        /* \"#utility.yul\":7963:7975   */\n      swap1\n      pop\n        /* \"#utility.yul\":7921:7981   */\n      swap2\n      swap1\n      pop\n      jump\t// out\n        /* \"#utility.yul\":7987:8129   */\n    tag_83:\n        /* \"#utility.yul\":8037:8046   */\n      0x00\n        /* \"#utility.yul\":8070:8123   */\n      tag_183\n        /* \"#utility.yul\":8088:8122   */\n      tag_184\n        /* \"#utility.yul\":8097:8121   */\n      tag_185\n        /* \"#utility.yul\":8115:8120   */\n      dup5\n        /* \"#utility.yul\":8097:8121   */\n      tag_56\n      jump\t// in\n    tag_185:\n        /* \"#utility.yul\":8088:8122   */\n      tag_82\n      jump\t// in\n    tag_184:\n        /* \"#utility.yul\":8070:8123   */\n      tag_56\n      jump\t// in\n    tag_183:\n        /* \"#utility.yul\":8057:8123   */\n      swap1\n      pop\n        /* \"#utility.yul\":7987:8129   */\n      swap2\n      swap1\n      pop\n      jump\t// out\n        /* \"#utility.yul\":8135:8210   */\n    tag_84:\n        /* \"#utility.yul\":8178:8181   */\n      0x00\n        /* \"#utility.yul\":8199:8204   */\n      dup2\n        /* \"#utility.yul\":8192:8204   */\n      swap1\n      pop\n        /* \"#utility.yul\":8135:8210   */\n      swap2\n      swap1\n      pop\n      jump\t// out\n        /* \"#utility.yul\":8216:8485   */\n    tag_85:\n        /* \"#utility.yul\":8326:8365   */\n      tag_188\n        /* \"#utility.yul\":8357:8364   */\n      dup4\n        /* \"#utility.yul\":8326:8365   */\n      tag_83\n      jump\t// in\n    tag_188:\n        /* \"#utility.yul\":8387:8478   */\n      tag_189\n        /* \"#utility.yul\":8436:8477   */\n      tag_190\n        /* \"#utility.yul\":8460:8476   */\n      dup3\n        /* \"#utility.yul\":8436:8477   */\n      tag_84\n      jump\t// in\n    tag_190:\n        /* \"#utility.yul\":8428:8434   */\n      dup5\n        /* \"#utility.yul\":8421:8425   */\n      dup5\n        /* \"#utility.yul\":8415:8426   */\n      sload\n        /* \"#utility.yul\":8387:8478   */\n      tag_81\n      jump\t// in\n    tag_189:\n        /* \"#utility.yul\":8381:8385   */\n      dup3\n        /* \"#utility.yul\":8374:8479   */\n      sstore\n        /* \"#utility.yul\":8292:8485   */\n      pop\n        /* \"#utility.yul\":8216:8485   */\n      pop\n      pop\n      pop\n      jump\t// out\n        /* \"#utility.yul\":8491:8564   */\n    tag_86:\n        /* \"#utility.yul\":8536:8539   */\n      0x00\n        /* \"#utility.yul\":8491:8564   */\n      swap1\n      jump\t// out\n        /* \"#utility.yul\":8570:8759   */\n    tag_87:\n        /* \"#utility.yul\":8647:8679   */\n      tag_193\n      tag_86\n      jump\t// in\n    tag_193:\n        /* \"#utility.yul\":8688:8753   */\n      tag_194\n        /* \"#utility.yul\":8746:8752   */\n      dup2\n        /* \"#utility.yul\":8738:8744   */\n      dup5\n        /* \"#utility.yul\":8732:8736   */\n      dup5\n        /* \"#utility.yul\":8688:8753   */\n      tag_85\n      jump\t// in\n    tag_194:\n        /* \"#utility.yul\":8623:8759   */\n      pop\n        /* \"#utility.yul\":8570:8759   */\n      pop\n      pop\n      jump\t// out\n        /* \"#utility.yul\":8765:8951   */\n    tag_88:\n        /* \"#utility.yul\":8825:8945   */\n    tag_196:\n        /* \"#utility.yul\":8842:8845   */\n      dup2\n        /* \"#utility.yul\":8835:8840   */\n      dup2\n        /* \"#utility.yul\":8832:8846   */\n      lt\n        /* \"#utility.yul\":8825:8945   */\n      iszero\n      tag_198\n      jumpi\n        /* \"#utility.yul\":8896:8935   */\n      tag_199\n        /* \"#utility.yul\":8933:8934   */\n      0x00\n        /* \"#utility.yul\":8926:8931   */\n      dup3\n        /* \"#utility.yul\":8896:8935   */\n      tag_87\n      jump\t// in\n    tag_199:\n        /* \"#utility.yul\":8869:8870   */\n      0x01\n        /* \"#utility.yul\":8862:8867   */\n      dup2\n        /* \"#utility.yul\":8858:8871   */\n      add\n        /* \"#utility.yul\":8849:8871   */\n      swap1\n      pop\n        /* \"#utility.yul\":8825:8945   */\n      jump(tag_196)\n    tag_198:\n        /* \"#utility.yul\":8765:8951   */\n      pop\n      pop\n      jump\t// out\n        /* \"#utility.yul\":8957:9500   */\n    tag_89:\n        /* \"#utility.yul\":9058:9060   */\n      0x1f\n        /* \"#utility.yul\":9053:9056   */\n      dup3\n        /* \"#utility.yul\":9050:9061   */\n      gt\n        /* \"#utility.yul\":9047:9493   */\n      iszero\n      tag_201\n      jumpi\n        /* \"#utility.yul\":9092:9130   */\n      tag_202\n        /* \"#utility.yul\":9124:9129   */\n      dup2\n        /* \"#utility.yul\":9092:9130   */\n      tag_78\n      jump\t// in\n    tag_202:\n        /* \"#utility.yul\":9176:9205   */\n      tag_203\n        /* \"#utility.yul\":9194:9204   */\n      dup5\n        /* \"#utility.yul\":9176:9205   */\n      tag_79\n      jump\t// in\n    tag_203:\n        /* \"#utility.yul\":9166:9174   */\n      dup2\n        /* \"#utility.yul\":9162:9206   */\n      add\n        /* \"#utility.yul\":9359:9361   */\n      0x20\n        /* \"#utility.yul\":9347:9357   */\n      dup6\n        /* \"#utility.yul\":9344:9362   */\n      lt\n        /* \"#utility.yul\":9341:9390   */\n      iszero\n      tag_204\n      jumpi\n        /* \"#utility.yul\":9380:9388   */\n      dup2\n        /* \"#utility.yul\":9365:9388   */\n      swap1\n      pop\n        /* \"#utility.yul\":9341:9390   */\n    tag_204:\n        /* \"#utility.yul\":9403:9483   */\n      tag_205\n        /* \"#utility.yul\":9459:9481   */\n      tag_206\n        /* \"#utility.yul\":9477:9480   */\n      dup6\n        /* \"#utility.yul\":9459:9481   */\n      tag_79\n      jump\t// in\n    tag_206:\n        /* \"#utility.yul\":9449:9457   */\n      dup4\n        /* \"#utility.yul\":9445:9482   */\n      add\n        /* \"#utility.yul\":9432:9443   */\n      dup3\n        /* \"#utility.yul\":9403:9483   */\n      tag_88\n      jump\t// in\n    tag_205:\n        /* \"#utility.yul\":9062:9493   */\n      pop\n      pop\n        /* \"#utility.yul\":9047:9493   */\n    tag_201:\n        /* \"#utility.yul\":8957:9500   */\n      pop\n      pop\n      pop\n      jump\t// out\n        /* \"#utility.yul\":9506:9623   */\n    tag_90:\n        /* \"#utility.yul\":9560:9568   */\n      0x00\n        /* \"#utility.yul\":9610:9615   */\n      dup3\n        /* \"#utility.yul\":9604:9608   */\n      dup3\n        /* \"#utility.yul\":9600:9616   */\n      shr\n        /* \"#utility.yul\":9579:9616   */\n      swap1\n      pop\n        /* \"#utility.yul\":9506:9623   */\n      swap3\n      swap2\n      pop\n      pop\n      jump\t// out\n        /* \"#utility.yul\":9629:9798   */\n    tag_91:\n        /* \"#utility.yul\":9673:9679   */\n      0x00\n        /* \"#utility.yul\":9706:9757   */\n      tag_209\n        /* \"#utility.yul\":9754:9755   */\n      0x00\n        /* \"#utility.yul\":9750:9756   */\n      not\n        /* \"#utility.yul\":9742:9747   */\n      dup5\n        /* \"#utility.yul\":9739:9740   */\n      0x08\n        /* \"#utility.yul\":9735:9748   */\n      mul\n        /* \"#utility.yul\":9706:9757   */\n      tag_90\n      jump\t// in\n    tag_209:\n        /* \"#utility.yul\":9702:9758   */\n      not\n        /* \"#utility.yul\":9787:9791   */\n      dup1\n        /* \"#utility.yul\":9781:9785   */\n      dup4\n        /* \"#utility.yul\":9777:9792   */\n      and\n        /* \"#utility.yul\":9767:9792   */\n      swap2\n      pop\n        /* \"#utility.yul\":9680:9798   */\n      pop\n        /* \"#utility.yul\":9629:9798   */\n      swap3\n      swap2\n      pop\n      pop\n      jump\t// out\n        /* \"#utility.yul\":9803:10098   */\n    tag_92:\n        /* \"#utility.yul\":9879:9883   */\n      0x00\n        /* \"#utility.yul\":10025:10054   */\n      tag_211\n        /* \"#utility.yul\":10050:10053   */\n      dup4\n        /* \"#utility.yul\":10044:10048   */\n      dup4\n        /* \"#utility.yul\":10025:10054   */\n      tag_91\n      jump\t// in\n    tag_211:\n        /* \"#utility.yul\":10017:10054   */\n      swap2\n      pop\n        /* \"#utility.yul\":10087:10090   */\n      dup3\n        /* \"#utility.yul\":10084:10085   */\n      0x02\n        /* \"#utility.yul\":10080:10091   */\n      mul\n        /* \"#utility.yul\":10074:10078   */\n      dup3\n        /* \"#utility.yul\":10071:10092   */\n      or\n        /* \"#utility.yul\":10063:10092   */\n      swap1\n      pop\n        /* \"#utility.yul\":9803:10098   */\n      swap3\n      swap2\n      pop\n      pop\n      jump\t// out\n        /* \"#utility.yul\":10103:11498   */\n    tag_48:\n        /* \"#utility.yul\":10220:10257   */\n      tag_213\n        /* \"#utility.yul\":10253:10256   */\n      dup3\n        /* \"#utility.yul\":10220:10257   */\n      tag_59\n      jump\t// in\n    tag_213:\n        /* \"#utility.yul\":10322:10340   */\n      0xffffffffffffffff\n        /* \"#utility.yul\":10314:10320   */\n      dup2\n        /* \"#utility.yul\":10311:10341   */\n      gt\n        /* \"#utility.yul\":10308:10364   */\n      iszero\n      tag_214\n      jumpi\n        /* \"#utility.yul\":10344:10362   */\n      tag_215\n      tag_70\n      jump\t// in\n    tag_215:\n        /* \"#utility.yul\":10308:10364   */\n    tag_214:\n        /* \"#utility.yul\":10388:10426   */\n      tag_216\n        /* \"#utility.yul\":10420:10424   */\n      dup3\n        /* \"#utility.yul\":10414:10425   */\n      sload\n        /* \"#utility.yul\":10388:10426   */\n      tag_26\n      jump\t// in\n    tag_216:\n        /* \"#utility.yul\":10473:10540   */\n      tag_217\n        /* \"#utility.yul\":10533:10539   */\n      dup3\n        /* \"#utility.yul\":10525:10531   */\n      dup3\n        /* \"#utility.yul\":10519:10523   */\n      dup6\n        /* \"#utility.yul\":10473:10540   */\n      tag_89\n      jump\t// in\n    tag_217:\n        /* \"#utility.yul\":10567:10568   */\n      0x00\n        /* \"#utility.yul\":10591:10595   */\n      0x20\n        /* \"#utility.yul\":10578:10595   */\n      swap1\n      pop\n        /* \"#utility.yul\":10623:10625   */\n      0x1f\n        /* \"#utility.yul\":10615:10621   */\n      dup4\n        /* \"#utility.yul\":10612:10626   */\n      gt\n        /* \"#utility.yul\":10640:10641   */\n      0x01\n        /* \"#utility.yul\":10635:11253   */\n      dup2\n      eq\n      tag_219\n      jumpi\n        /* \"#utility.yul\":11297:11298   */\n      0x00\n        /* \"#utility.yul\":11314:11320   */\n      dup5\n        /* \"#utility.yul\":11311:11388   */\n      iszero\n      tag_220\n      jumpi\n        /* \"#utility.yul\":11363:11372   */\n      dup3\n        /* \"#utility.yul\":11358:11361   */\n      dup8\n        /* \"#utility.yul\":11354:11373   */\n      add\n        /* \"#utility.yul\":11348:11374   */\n      mload\n        /* \"#utility.yul\":11339:11374   */\n      swap1\n      pop\n        /* \"#utility.yul\":11311:11388   */\n    tag_220:\n        /* \"#utility.yul\":11414:11481   */\n      tag_221\n        /* \"#utility.yul\":11474:11480   */\n      dup6\n        /* \"#utility.yul\":11467:11472   */\n      dup3\n        /* \"#utility.yul\":11414:11481   */\n      tag_92\n      jump\t// in\n    tag_221:\n        /* \"#utility.yul\":11408:11412   */\n      dup7\n        /* \"#utility.yul\":11401:11482   */\n      sstore\n        /* \"#utility.yul\":11270:11492   */\n      pop\n        /* \"#utility.yul\":10605:11492   */\n      jump(tag_218)\n        /* \"#utility.yul\":10635:11253   */\n    tag_219:\n        /* \"#utility.yul\":10687:10691   */\n      0x1f\n        /* \"#utility.yul\":10683:10692   */\n      not\n        /* \"#utility.yul\":10675:10681   */\n      dup5\n        /* \"#utility.yul\":10671:10693   */\n      and\n        /* \"#utility.yul\":10721:10758   */\n      tag_222\n        /* \"#utility.yul\":10753:10757   */\n      dup7\n        /* \"#utility.yul\":10721:10758   */\n      tag_78\n      jump\t// in\n    tag_222:\n        /* \"#utility.yul\":10780:10781   */\n      0x00\n        /* \"#utility.yul\":10794:11002   */\n    tag_223:\n        /* \"#utility.yul\":10808:10815   */\n      dup3\n        /* \"#utility.yul\":10805:10806   */\n      dup2\n        /* \"#utility.yul\":10802:10816   */\n      lt\n        /* \"#utility.yul\":10794:11002   */\n      iszero\n      tag_225\n      jumpi\n        /* \"#utility.yul\":10887:10896   */\n      dup5\n        /* \"#utility.yul\":10882:10885   */\n      dup10\n        /* \"#utility.yul\":10878:10897   */\n      add\n        /* \"#utility.yul\":10872:10898   */\n      mload\n        /* \"#utility.yul\":10864:10870   */\n      dup3\n        /* \"#utility.yul\":10857:10899   */\n      sstore\n        /* \"#utility.yul\":10938:10939   */\n      0x01\n        /* \"#utility.yul\":10930:10936   */\n      dup3\n        /* \"#utility.yul\":10926:10940   */\n      add\n        /* \"#utility.yul\":10916:10940   */\n      swap2\n      pop\n        /* \"#utility.yul\":10985:10987   */\n      0x20\n        /* \"#utility.yul\":10974:10983   */\n      dup6\n        /* \"#utility.yul\":10970:10988   */\n      add\n        /* \"#utility.yul\":10957:10988   */\n      swap5\n      pop\n        /* \"#utility.yul\":10831:10835   */\n      0x20\n        /* \"#utility.yul\":10828:10829   */\n      dup2\n        /* \"#utility.yul\":10824:10836   */\n      add\n        /* \"#utility.yul\":10819:10836   */\n      swap1\n      pop\n        /* \"#utility.yul\":10794:11002   */\n      jump(tag_223)\n    tag_225:\n        /* \"#utility.yul\":11030:11036   */\n      dup7\n        /* \"#utility.yul\":11021:11028   */\n      dup4\n        /* \"#utility.yul\":11018:11037   */\n      lt\n        /* \"#utility.yul\":11015:11194   */\n      iszero\n      tag_226\n      jumpi\n        /* \"#utility.yul\":11088:11097   */\n      dup5\n        /* \"#utility.yul\":11083:11086   */\n      dup10\n        /* \"#utility.yul\":11079:11098   */\n      add\n        /* \"#utility.yul\":11073:11099   */\n      mload\n        /* \"#utility.yul\":11131:11179   */\n      tag_227\n        /* \"#utility.yul\":11173:11177   */\n      0x1f\n        /* \"#utility.yul\":11165:11171   */\n      dup10\n        /* \"#utility.yul\":11161:11178   */\n      and\n        /* \"#utility.yul\":11150:11159   */\n      dup3\n        /* \"#utility.yul\":11131:11179   */\n      tag_91\n      jump\t// in\n    tag_227:\n        /* \"#utility.yul\":11123:11129   */\n      dup4\n        /* \"#utility.yul\":11116:11180   */\n      sstore\n        /* \"#utility.yul\":11038:11194   */\n      pop\n        /* \"#utility.yul\":11015:11194   */\n    tag_226:\n        /* \"#utility.yul\":11240:11241   */\n      0x01\n        /* \"#utility.yul\":11236:11237   */\n      0x02\n        /* \"#utility.yul\":11228:11234   */\n      dup9\n        /* \"#utility.yul\":11224:11238   */\n      mul\n        /* \"#utility.yul\":11220:11242   */\n      add\n        /* \"#utility.yul\":11214:11218   */\n      dup9\n        /* \"#utility.yul\":11207:11243   */\n      sstore\n        /* \"#utility.yul\":10642:11253   */\n      pop\n      pop\n      pop\n        /* \"#utility.yul\":10605:11492   */\n    tag_218:\n      pop\n        /* \"#utility.yul\":10195:11498   */\n      pop\n      pop\n      pop\n        /* \"#utility.yul\":10103:11498   */\n      pop\n      pop\n      jump\t// out\n\n    auxdata: 0xa264697066735822122070a5d21247900e07dea4197cac3c1906d0064776afa0852299764b14fe625f2264736f6c63430008110033\n}\n",
				"bytecode": {
					"linkReferences": {},
					"object": "608060405234801561001057600080fd5b50610b04806100206000396000f3fe608060405234801561001057600080fd5b506004361061004c5760003560e01c806344a058b5146100515780634ffbcfcf14610082578063b47d006e146100b3578063f40f48c9146100cf575b600080fd5b61006b6004803603810190610066919061049e565b6100eb565b60405161007992919061055b565b60405180910390f35b61009c600480360381019061009791906105f0565b61021f565b6040516100aa92919061055b565b60405180910390f35b6100cd60048036038101906100c89190610765565b610360565b005b6100e960048036038101906100e49190610765565b6103f9565b005b600060205280600052604060002060009150905080600001805461010e9061081f565b80601f016020809104026020016040519081016040528092919081815260200182805461013a9061081f565b80156101875780601f1061015c57610100808354040283529160200191610187565b820191906000526020600020905b81548152906001019060200180831161016a57829003601f168201915b50505050509080600101805461019c9061081f565b80601f01602080910402602001604051908101604052809291908181526020018280546101c89061081f565b80156102155780601f106101ea57610100808354040283529160200191610215565b820191906000526020600020905b8154815290600101906020018083116101f857829003601f168201915b5050505050905082565b60016020528160005260406000206020528060005260406000206000915091505080600001805461024f9061081f565b80601f016020809104026020016040519081016040528092919081815260200182805461027b9061081f565b80156102c85780601f1061029d576101008083540402835291602001916102c8565b820191906000526020600020905b8154815290600101906020018083116102ab57829003601f168201915b5050505050908060010180546102dd9061081f565b80601f01602080910402602001604051908101604052809291908181526020018280546103099061081f565b80156103565780601f1061032b57610100808354040283529160200191610356565b820191906000526020600020905b81548152906001019060200180831161033957829003601f168201915b5050505050905082565b604051806040016040528083815260200182815250600160003373ffffffffffffffffffffffffffffffffffffffff1673ffffffffffffffffffffffffffffffffffffffff168152602001908152602001600020600085815260200190815260200160002060008201518160000190816103da91906109fc565b5060208201518160010190816103f091906109fc565b50905050505050565b604051806040016040528083815260200182815250600080858152602001908152602001600020600082015181600001908161043591906109fc565b50602082015181600101908161044b91906109fc565b50905050505050565b6000604051905090565b600080fd5b600080fd5b6000819050919050565b61047b81610468565b811461048657600080fd5b50565b60008135905061049881610472565b92915050565b6000602082840312156104b4576104b361045e565b5b60006104c284828501610489565b91505092915050565b600081519050919050565b600082825260208201905092915050565b60005b838110156105055780820151818401526020810190506104ea565b60008484015250505050565b6000601f19601f8301169050919050565b600061052d826104cb565b61053781856104d6565b93506105478185602086016104e7565b61055081610511565b840191505092915050565b600060408201905081810360008301526105758185610522565b905081810360208301526105898184610522565b90509392505050565b600073ffffffffffffffffffffffffffffffffffffffff82169050919050565b60006105bd82610592565b9050919050565b6105cd816105b2565b81146105d857600080fd5b50565b6000813590506105ea816105c4565b92915050565b600080604083850312156106075761060661045e565b5b6000610615858286016105db565b925050602061062685828601610489565b9150509250929050565b600080fd5b600080fd5b7f4e487b7100000000000000000000000000000000000000000000000000000000600052604160045260246000fd5b61067282610511565b810181811067ffffffffffffffff821117156106915761069061063a565b5b80604052505050565b60006106a4610454565b90506106b08282610669565b919050565b600067ffffffffffffffff8211156106d0576106cf61063a565b5b6106d982610511565b9050602081019050919050565b82818337600083830152505050565b6000610708610703846106b5565b61069a565b90508281526020810184848401111561072457610723610635565b5b61072f8482856106e6565b509392505050565b600082601f83011261074c5761074b610630565b5b813561075c8482602086016106f5565b91505092915050565b60008060006060848603121561077e5761077d61045e565b5b600061078c86828701610489565b935050602084013567ffffffffffffffff8111156107ad576107ac610463565b5b6107b986828701610737565b925050604084013567ffffffffffffffff8111156107da576107d9610463565b5b6107e686828701610737565b9150509250925092565b7f4e487b7100000000000000000000000000000000000000000000000000000000600052602260045260246000fd5b6000600282049050600182168061083757607f821691505b60208210810361084a576108496107f0565b5b50919050565b60008190508160005260206000209050919050565b60006020601f8301049050919050565b600082821b905092915050565b6000600883026108b27fffffffffffffffffffffffffffffffffffffffffffffffffffffffffffffffff82610875565b6108bc8683610875565b95508019841693508086168417925050509392505050565b6000819050919050565b60006108f96108f46108ef84610468565b6108d4565b610468565b9050919050565b6000819050919050565b610913836108de565b61092761091f82610900565b848454610882565b825550505050565b600090565b61093c61092f565b61094781848461090a565b505050565b5b8181101561096b57610960600082610934565b60018101905061094d565b5050565b601f8211156109b05761098181610850565b61098a84610865565b81016020851015610999578190505b6109ad6109a585610865565b83018261094c565b50505b505050565b600082821c905092915050565b60006109d3600019846008026109b5565b1980831691505092915050565b60006109ec83836109c2565b9150826002028217905092915050565b610a05826104cb565b67ffffffffffffffff811115610a1e57610a1d61063a565b5b610a28825461081f565b610a3382828561096f565b600060209050601f831160018114610a665760008415610a54578287015190505b610a5e85826109e0565b865550610ac6565b601f198416610a7486610850565b60005b82811015610a9c57848901518255600182019150602085019450602081019050610a77565b86831015610ab95784890151610ab5601f8916826109c2565b8355505b6001600288020188555050505b50505050505056fea264697066735822122070a5d21247900e07dea4197cac3c1906d0064776afa0852299764b14fe625f2264736f6c63430008110033",
					"opcodes": "PUSH1 0x80 PUSH1 0x40 MSTORE CALLVALUE DUP1 ISZERO PUSH2 0x10 JUMPI PUSH1 0x0 DUP1 REVERT JUMPDEST POP PUSH2 0xB04 DUP1 PUSH2 0x20 PUSH1 0x0 CODECOPY PUSH1 0x0 RETURN INVALID PUSH1 0x80 PUSH1 0x40 MSTORE CALLVALUE DUP1 ISZERO PUSH2 0x10 JUMPI PUSH1 0x0 DUP1 REVERT JUMPDEST POP PUSH1 0x4 CALLDATASIZE LT PUSH2 0x4C JUMPI PUSH1 0x0 CALLDATALOAD PUSH1 0xE0 SHR DUP1 PUSH4 0x44A058B5 EQ PUSH2 0x51 JUMPI DUP1 PUSH4 0x4FFBCFCF EQ PUSH2 0x82 JUMPI DUP1 PUSH4 0xB47D006E EQ PUSH2 0xB3 JUMPI DUP1 PUSH4 0xF40F48C9 EQ PUSH2 0xCF JUMPI JUMPDEST PUSH1 0x0 DUP1 REVERT JUMPDEST PUSH2 0x6B PUSH1 0x4 DUP1 CALLDATASIZE SUB DUP2 ADD SWAP1 PUSH2 0x66 SWAP2 SWAP1 PUSH2 0x49E JUMP JUMPDEST PUSH2 0xEB JUMP JUMPDEST PUSH1 0x40 MLOAD PUSH2 0x79 SWAP3 SWAP2 SWAP1 PUSH2 0x55B JUMP JUMPDEST PUSH1 0x40 MLOAD DUP1 SWAP2 SUB SWAP1 RETURN JUMPDEST PUSH2 0x9C PUSH1 0x4 DUP1 CALLDATASIZE SUB DUP2 ADD SWAP1 PUSH2 0x97 SWAP2 SWAP1 PUSH2 0x5F0 JUMP JUMPDEST PUSH2 0x21F JUMP JUMPDEST PUSH1 0x40 MLOAD PUSH2 0xAA SWAP3 SWAP2 SWAP1 PUSH2 0x55B JUMP JUMPDEST PUSH1 0x40 MLOAD DUP1 SWAP2 SUB SWAP1 RETURN JUMPDEST PUSH2 0xCD PUSH1 0x4 DUP1 CALLDATASIZE SUB DUP2 ADD SWAP1 PUSH2 0xC8 SWAP2 SWAP1 PUSH2 0x765 JUMP JUMPDEST PUSH2 0x360 JUMP JUMPDEST STOP JUMPDEST PUSH2 0xE9 PUSH1 0x4 DUP1 CALLDATASIZE SUB DUP2 ADD SWAP1 PUSH2 0xE4 SWAP2 SWAP1 PUSH2 0x765 JUMP JUMPDEST PUSH2 0x3F9 JUMP JUMPDEST STOP JUMPDEST PUSH1 0x0 PUSH1 0x20 MSTORE DUP1 PUSH1 0x0 MSTORE PUSH1 0x40 PUSH1 0x0 KECCAK256 PUSH1 0x0 SWAP2 POP SWAP1 POP DUP1 PUSH1 0x0 ADD DUP1 SLOAD PUSH2 0x10E SWAP1 PUSH2 0x81F JUMP JUMPDEST DUP1 PUSH1 0x1F ADD PUSH1 0x20 DUP1 SWAP2 DIV MUL PUSH1 0x20 ADD PUSH1 0x40 MLOAD SWAP1 DUP2 ADD PUSH1 0x40 MSTORE DUP1 SWAP3 SWAP2 SWAP1 DUP2 DUP2 MSTORE PUSH1 0x20 ADD DUP3 DUP1 SLOAD PUSH2 0x13A SWAP1 PUSH2 0x81F JUMP JUMPDEST DUP1 ISZERO PUSH2 0x187 JUMPI DUP1 PUSH1 0x1F LT PUSH2 0x15C JUMPI PUSH2 0x100 DUP1 DUP4 SLOAD DIV MUL DUP4 MSTORE SWAP2 PUSH1 0x20 ADD SWAP2 PUSH2 0x187 JUMP JUMPDEST DUP3 ADD SWAP2 SWAP1 PUSH1 0x0 MSTORE PUSH1 0x20 PUSH1 0x0 KECCAK256 SWAP1 JUMPDEST DUP2 SLOAD DUP2 MSTORE SWAP1 PUSH1 0x1 ADD SWAP1 PUSH1 0x20 ADD DUP1 DUP4 GT PUSH2 0x16A JUMPI DUP3 SWAP1 SUB PUSH1 0x1F AND DUP3 ADD SWAP2 JUMPDEST POP POP POP POP POP SWAP1 DUP1 PUSH1 0x1 ADD DUP1 SLOAD PUSH2 0x19C SWAP1 PUSH2 0x81F JUMP JUMPDEST DUP1 PUSH1 0x1F ADD PUSH1 0x20 DUP1 SWAP2 DIV MUL PUSH1 0x20 ADD PUSH1 0x40 MLOAD SWAP1 DUP2 ADD PUSH1 0x40 MSTORE DUP1 SWAP3 SWAP2 SWAP1 DUP2 DUP2 MSTORE PUSH1 0x20 ADD DUP3 DUP1 SLOAD PUSH2 0x1C8 SWAP1 PUSH2 0x81F JUMP JUMPDEST DUP1 ISZERO PUSH2 0x215 JUMPI DUP1 PUSH1 0x1F LT PUSH2 0x1EA JUMPI PUSH2 0x100 DUP1 DUP4 SLOAD DIV MUL DUP4 MSTORE SWAP2 PUSH1 0x20 ADD SWAP2 PUSH2 0x215 JUMP JUMPDEST DUP3 ADD SWAP2 SWAP1 PUSH1 0x0 MSTORE PUSH1 0x20 PUSH1 0x0 KECCAK256 SWAP1 JUMPDEST DUP2 SLOAD DUP2 MSTORE SWAP1 PUSH1 0x1 ADD SWAP1 PUSH1 0x20 ADD DUP1 DUP4 GT PUSH2 0x1F8 JUMPI DUP3 SWAP1 SUB PUSH1 0x1F AND DUP3 ADD SWAP2 JUMPDEST POP POP POP POP POP SWAP1 POP DUP3 JUMP JUMPDEST PUSH1 0x1 PUSH1 0x20 MSTORE DUP2 PUSH1 0x0 MSTORE PUSH1 0x40 PUSH1 0x0 KECCAK256 PUSH1 0x20 MSTORE DUP1 PUSH1 0x0 MSTORE PUSH1 0x40 PUSH1 0x0 KECCAK256 PUSH1 0x0 SWAP2 POP SWAP2 POP POP DUP1 PUSH1 0x0 ADD DUP1 SLOAD PUSH2 0x24F SWAP1 PUSH2 0x81F JUMP JUMPDEST DUP1 PUSH1 0x1F ADD PUSH1 0x20 DUP1 SWAP2 DIV MUL PUSH1 0x20 ADD PUSH1 0x40 MLOAD SWAP1 DUP2 ADD PUSH1 0x40 MSTORE DUP1 SWAP3 SWAP2 SWAP1 DUP2 DUP2 MSTORE PUSH1 0x20 ADD DUP3 DUP1 SLOAD PUSH2 0x27B SWAP1 PUSH2 0x81F JUMP JUMPDEST DUP1 ISZERO PUSH2 0x2C8 JUMPI DUP1 PUSH1 0x1F LT PUSH2 0x29D JUMPI PUSH2 0x100 DUP1 DUP4 SLOAD DIV MUL DUP4 MSTORE SWAP2 PUSH1 0x20 ADD SWAP2 PUSH2 0x2C8 JUMP JUMPDEST DUP3 ADD SWAP2 SWAP1 PUSH1 0x0 MSTORE PUSH1 0x20 PUSH1 0x0 KECCAK256 SWAP1 JUMPDEST DUP2 SLOAD DUP2 MSTORE SWAP1 PUSH1 0x1 ADD SWAP1 PUSH1 0x20 ADD DUP1 DUP4 GT PUSH2 0x2AB JUMPI DUP3 SWAP1 SUB PUSH1 0x1F AND DUP3 ADD SWAP2 JUMPDEST POP POP POP POP POP SWAP1 DUP1 PUSH1 0x1 ADD DUP1 SLOAD PUSH2 0x2DD SWAP1 PUSH2 0x81F JUMP JUMPDEST DUP1 PUSH1 0x1F ADD PUSH1 0x20 DUP1 SWAP2 DIV MUL PUSH1 0x20 ADD PUSH1 0x40 MLOAD SWAP1 DUP2 ADD PUSH1 0x40 MSTORE DUP1 SWAP3 SWAP2 SWAP1 DUP2 DUP2 MSTORE PUSH1 0x20 ADD DUP3 DUP1 SLOAD PUSH2 0x309 SWAP1 PUSH2 0x81F JUMP JUMPDEST DUP1 ISZERO PUSH2 0x356 JUMPI DUP1 PUSH1 0x1F LT PUSH2 0x32B JUMPI PUSH2 0x100 DUP1 DUP4 SLOAD DIV MUL DUP4 MSTORE SWAP2 PUSH1 0x20 ADD SWAP2 PUSH2 0x356 JUMP JUMPDEST DUP3 ADD SWAP2 SWAP1 PUSH1 0x0 MSTORE PUSH1 0x20 PUSH1 0x0 KECCAK256 SWAP1 JUMPDEST DUP2 SLOAD DUP2 MSTORE SWAP1 PUSH1 0x1 ADD SWAP1 PUSH1 0x20 ADD DUP1 DUP4 GT PUSH2 0x339 JUMPI DUP3 SWAP1 SUB PUSH1 0x1F AND DUP3 ADD SWAP2 JUMPDEST POP POP POP POP POP SWAP1 POP DUP3 JUMP JUMPDEST PUSH1 0x40 MLOAD DUP1 PUSH1 0x40 ADD PUSH1 0x40 MSTORE DUP1 DUP4 DUP2 MSTORE PUSH1 0x20 ADD DUP3 DUP2 MSTORE POP PUSH1 0x1 PUSH1 0x0 CALLER PUSH20 0xFFFFFFFFFFFFFFFFFFFFFFFFFFFFFFFFFFFFFFFF AND PUSH20 0xFFFFFFFFFFFFFFFFFFFFFFFFFFFFFFFFFFFFFFFF AND DUP2 MSTORE PUSH1 0x20 ADD SWAP1 DUP2 MSTORE PUSH1 0x20 ADD PUSH1 0x0 KECCAK256 PUSH1 0x0 DUP6 DUP2 MSTORE PUSH1 0x20 ADD SWAP1 DUP2 MSTORE PUSH1 0x20 ADD PUSH1 0x0 KECCAK256 PUSH1 0x0 DUP3 ADD MLOAD DUP2 PUSH1 0x0 ADD SWAP1 DUP2 PUSH2 0x3DA SWAP2 SWAP1 PUSH2 0x9FC JUMP JUMPDEST POP PUSH1 0x20 DUP3 ADD MLOAD DUP2 PUSH1 0x1 ADD SWAP1 DUP2 PUSH2 0x3F0 SWAP2 SWAP1 PUSH2 0x9FC JUMP JUMPDEST POP SWAP1 POP POP POP POP POP JUMP JUMPDEST PUSH1 0x40 MLOAD DUP1 PUSH1 0x40 ADD PUSH1 0x40 MSTORE DUP1 DUP4 DUP2 MSTORE PUSH1 0x20 ADD DUP3 DUP2 MSTORE POP PUSH1 0x0 DUP1 DUP6 DUP2 MSTORE PUSH1 0x20 ADD SWAP1 DUP2 MSTORE PUSH1 0x20 ADD PUSH1 0x0 KECCAK256 PUSH1 0x0 DUP3 ADD MLOAD DUP2 PUSH1 0x0 ADD SWAP1 DUP2 PUSH2 0x435 SWAP2 SWAP1 PUSH2 0x9FC JUMP JUMPDEST POP PUSH1 0x20 DUP3 ADD MLOAD DUP2 PUSH1 0x1 ADD SWAP1 DUP2 PUSH2 0x44B SWAP2 SWAP1 PUSH2 0x9FC JUMP JUMPDEST POP SWAP1 POP POP POP POP POP JUMP JUMPDEST PUSH1 0x0 PUSH1 0x40 MLOAD SWAP1 POP SWAP1 JUMP JUMPDEST PUSH1 0x0 DUP1 REVERT JUMPDEST PUSH1 0x0 DUP1 REVERT JUMPDEST PUSH1 0x0 DUP2 SWAP1 POP SWAP2 SWAP1 POP JUMP JUMPDEST PUSH2 0x47B DUP2 PUSH2 0x468 JUMP JUMPDEST DUP2 EQ PUSH2 0x486 JUMPI PUSH1 0x0 DUP1 REVERT JUMPDEST POP JUMP JUMPDEST PUSH1 0x0 DUP2 CALLDATALOAD SWAP1 POP PUSH2 0x498 DUP2 PUSH2 0x472 JUMP JUMPDEST SWAP3 SWAP2 POP POP JUMP JUMPDEST PUSH1 0x0 PUSH1 0x20 DUP3 DUP5 SUB SLT ISZERO PUSH2 0x4B4 JUMPI PUSH2 0x4B3 PUSH2 0x45E JUMP JUMPDEST JUMPDEST PUSH1 0x0 PUSH2 0x4C2 DUP5 DUP3 DUP6 ADD PUSH2 0x489 JUMP JUMPDEST SWAP2 POP POP SWAP3 SWAP2 POP POP JUMP JUMPDEST PUSH1 0x0 DUP2 MLOAD SWAP1 POP SWAP2 SWAP1 POP JUMP JUMPDEST PUSH1 0x0 DUP3 DUP3 MSTORE PUSH1 0x20 DUP3 ADD SWAP1 POP SWAP3 SWAP2 POP POP JUMP JUMPDEST PUSH1 0x0 JUMPDEST DUP4 DUP2 LT ISZERO PUSH2 0x505 JUMPI DUP1 DUP3 ADD MLOAD DUP2 DUP5 ADD MSTORE PUSH1 0x20 DUP2 ADD SWAP1 POP PUSH2 0x4EA JUMP JUMPDEST PUSH1 0x0 DUP5 DUP5 ADD MSTORE POP POP POP POP JUMP JUMPDEST PUSH1 0x0 PUSH1 0x1F NOT PUSH1 0x1F DUP4 ADD AND SWAP1 POP SWAP2 SWAP1 POP JUMP JUMPDEST PUSH1 0x0 PUSH2 0x52D DUP3 PUSH2 0x4CB JUMP JUMPDEST PUSH2 0x537 DUP2 DUP6 PUSH2 0x4D6 JUMP JUMPDEST SWAP4 POP PUSH2 0x547 DUP2 DUP6 PUSH1 0x20 DUP7 ADD PUSH2 0x4E7 JUMP JUMPDEST PUSH2 0x550 DUP2 PUSH2 0x511 JUMP JUMPDEST DUP5 ADD SWAP2 POP POP SWAP3 SWAP2 POP POP JUMP JUMPDEST PUSH1 0x0 PUSH1 0x40 DUP3 ADD SWAP1 POP DUP2 DUP2 SUB PUSH1 0x0 DUP4 ADD MSTORE PUSH2 0x575 DUP2 DUP6 PUSH2 0x522 JUMP JUMPDEST SWAP1 POP DUP2 DUP2 SUB PUSH1 0x20 DUP4 ADD MSTORE PUSH2 0x589 DUP2 DUP5 PUSH2 0x522 JUMP JUMPDEST SWAP1 POP SWAP4 SWAP3 POP POP POP JUMP JUMPDEST PUSH1 0x0 PUSH20 0xFFFFFFFFFFFFFFFFFFFFFFFFFFFFFFFFFFFFFFFF DUP3 AND SWAP1 POP SWAP2 SWAP1 POP JUMP JUMPDEST PUSH1 0x0 PUSH2 0x5BD DUP3 PUSH2 0x592 JUMP JUMPDEST SWAP1 POP SWAP2 SWAP1 POP JUMP JUMPDEST PUSH2 0x5CD DUP2 PUSH2 0x5B2 JUMP JUMPDEST DUP2 EQ PUSH2 0x5D8 JUMPI PUSH1 0x0 DUP1 REVERT JUMPDEST POP JUMP JUMPDEST PUSH1 0x0 DUP2 CALLDATALOAD SWAP1 POP PUSH2 0x5EA DUP2 PUSH2 0x5C4 JUMP JUMPDEST SWAP3 SWAP2 POP POP JUMP JUMPDEST PUSH1 0x0 DUP1 PUSH1 0x40 DUP4 DUP6 SUB SLT ISZERO PUSH2 0x607 JUMPI PUSH2 0x606 PUSH2 0x45E JUMP JUMPDEST JUMPDEST PUSH1 0x0 PUSH2 0x615 DUP6 DUP3 DUP7 ADD PUSH2 0x5DB JUMP JUMPDEST SWAP3 POP POP PUSH1 0x20 PUSH2 0x626 DUP6 DUP3 DUP7 ADD PUSH2 0x489 JUMP JUMPDEST SWAP2 POP POP SWAP3 POP SWAP3 SWAP1 POP JUMP JUMPDEST PUSH1 0x0 DUP1 REVERT JUMPDEST PUSH1 0x0 DUP1 REVERT JUMPDEST PUSH32 0x4E487B7100000000000000000000000000000000000000000000000000000000 PUSH1 0x0 MSTORE PUSH1 0x41 PUSH1 0x4 MSTORE PUSH1 0x24 PUSH1 0x0 REVERT JUMPDEST PUSH2 0x672 DUP3 PUSH2 0x511 JUMP JUMPDEST DUP2 ADD DUP2 DUP2 LT PUSH8 0xFFFFFFFFFFFFFFFF DUP3 GT OR ISZERO PUSH2 0x691 JUMPI PUSH2 0x690 PUSH2 0x63A JUMP JUMPDEST JUMPDEST DUP1 PUSH1 0x40 MSTORE POP POP POP JUMP JUMPDEST PUSH1 0x0 PUSH2 0x6A4 PUSH2 0x454 JUMP JUMPDEST SWAP1 POP PUSH2 0x6B0 DUP3 DUP3 PUSH2 0x669 JUMP JUMPDEST SWAP2 SWAP1 POP JUMP JUMPDEST PUSH1 0x0 PUSH8 0xFFFFFFFFFFFFFFFF DUP3 GT ISZERO PUSH2 0x6D0 JUMPI PUSH2 0x6CF PUSH2 0x63A JUMP JUMPDEST JUMPDEST PUSH2 0x6D9 DUP3 PUSH2 0x511 JUMP JUMPDEST SWAP1 POP PUSH1 0x20 DUP2 ADD SWAP1 POP SWAP2 SWAP1 POP JUMP JUMPDEST DUP3 DUP2 DUP4 CALLDATACOPY PUSH1 0x0 DUP4 DUP4 ADD MSTORE POP POP POP JUMP JUMPDEST PUSH1 0x0 PUSH2 0x708 PUSH2 0x703 DUP5 PUSH2 0x6B5 JUMP JUMPDEST PUSH2 0x69A JUMP JUMPDEST SWAP1 POP DUP3 DUP2 MSTORE PUSH1 0x20 DUP2 ADD DUP5 DUP5 DUP5 ADD GT ISZERO PUSH2 0x724 JUMPI PUSH2 0x723 PUSH2 0x635 JUMP JUMPDEST JUMPDEST PUSH2 0x72F DUP5 DUP3 DUP6 PUSH2 0x6E6 JUMP JUMPDEST POP SWAP4 SWAP3 POP POP POP JUMP JUMPDEST PUSH1 0x0 DUP3 PUSH1 0x1F DUP4 ADD SLT PUSH2 0x74C JUMPI PUSH2 0x74B PUSH2 0x630 JUMP JUMPDEST JUMPDEST DUP2 CALLDATALOAD PUSH2 0x75C DUP5 DUP3 PUSH1 0x20 DUP7 ADD PUSH2 0x6F5 JUMP JUMPDEST SWAP2 POP POP SWAP3 SWAP2 POP POP JUMP JUMPDEST PUSH1 0x0 DUP1 PUSH1 0x0 PUSH1 0x60 DUP5 DUP7 SUB SLT ISZERO PUSH2 0x77E JUMPI PUSH2 0x77D PUSH2 0x45E JUMP JUMPDEST JUMPDEST PUSH1 0x0 PUSH2 0x78C DUP7 DUP3 DUP8 ADD PUSH2 0x489 JUMP JUMPDEST SWAP4 POP POP PUSH1 0x20 DUP5 ADD CALLDATALOAD PUSH8 0xFFFFFFFFFFFFFFFF DUP2 GT ISZERO PUSH2 0x7AD JUMPI PUSH2 0x7AC PUSH2 0x463 JUMP JUMPDEST JUMPDEST PUSH2 0x7B9 DUP7 DUP3 DUP8 ADD PUSH2 0x737 JUMP JUMPDEST SWAP3 POP POP PUSH1 0x40 DUP5 ADD CALLDATALOAD PUSH8 0xFFFFFFFFFFFFFFFF DUP2 GT ISZERO PUSH2 0x7DA JUMPI PUSH2 0x7D9 PUSH2 0x463 JUMP JUMPDEST JUMPDEST PUSH2 0x7E6 DUP7 DUP3 DUP8 ADD PUSH2 0x737 JUMP JUMPDEST SWAP2 POP POP SWAP3 POP SWAP3 POP SWAP3 JUMP JUMPDEST PUSH32 0x4E487B7100000000000000000000000000000000000000000000000000000000 PUSH1 0x0 MSTORE PUSH1 0x22 PUSH1 0x4 MSTORE PUSH1 0x24 PUSH1 0x0 REVERT JUMPDEST PUSH1 0x0 PUSH1 0x2 DUP3 DIV SWAP1 POP PUSH1 0x1 DUP3 AND DUP1 PUSH2 0x837 JUMPI PUSH1 0x7F DUP3 AND SWAP2 POP JUMPDEST PUSH1 0x20 DUP3 LT DUP2 SUB PUSH2 0x84A JUMPI PUSH2 0x849 PUSH2 0x7F0 JUMP JUMPDEST JUMPDEST POP SWAP2 SWAP1 POP JUMP JUMPDEST PUSH1 0x0 DUP2 SWAP1 POP DUP2 PUSH1 0x0 MSTORE PUSH1 0x20 PUSH1 0x0 KECCAK256 SWAP1 POP SWAP2 SWAP1 POP JUMP JUMPDEST PUSH1 0x0 PUSH1 0x20 PUSH1 0x1F DUP4 ADD DIV SWAP1 POP SWAP2 SWAP1 POP JUMP JUMPDEST PUSH1 0x0 DUP3 DUP3 SHL SWAP1 POP SWAP3 SWAP2 POP POP JUMP JUMPDEST PUSH1 0x0 PUSH1 0x8 DUP4 MUL PUSH2 0x8B2 PUSH32 0xFFFFFFFFFFFFFFFFFFFFFFFFFFFFFFFFFFFFFFFFFFFFFFFFFFFFFFFFFFFFFFFF DUP3 PUSH2 0x875 JUMP JUMPDEST PUSH2 0x8BC DUP7 DUP4 PUSH2 0x875 JUMP JUMPDEST SWAP6 POP DUP1 NOT DUP5 AND SWAP4 POP DUP1 DUP7 AND DUP5 OR SWAP3 POP POP POP SWAP4 SWAP3 POP POP POP JUMP JUMPDEST PUSH1 0x0 DUP2 SWAP1 POP SWAP2 SWAP1 POP JUMP JUMPDEST PUSH1 0x0 PUSH2 0x8F9 PUSH2 0x8F4 PUSH2 0x8EF DUP5 PUSH2 0x468 JUMP JUMPDEST PUSH2 0x8D4 JUMP JUMPDEST PUSH2 0x468 JUMP JUMPDEST SWAP1 POP SWAP2 SWAP1 POP JUMP JUMPDEST PUSH1 0x0 DUP2 SWAP1 POP SWAP2 SWAP1 POP JUMP JUMPDEST PUSH2 0x913 DUP4 PUSH2 0x8DE JUMP JUMPDEST PUSH2 0x927 PUSH2 0x91F DUP3 PUSH2 0x900 JUMP JUMPDEST DUP5 DUP5 SLOAD PUSH2 0x882 JUMP JUMPDEST DUP3 SSTORE POP POP POP POP JUMP JUMPDEST PUSH1 0x0 SWAP1 JUMP JUMPDEST PUSH2 0x93C PUSH2 0x92F JUMP JUMPDEST PUSH2 0x947 DUP2 DUP5 DUP5 PUSH2 0x90A JUMP JUMPDEST POP POP POP JUMP JUMPDEST JUMPDEST DUP2 DUP2 LT ISZERO PUSH2 0x96B JUMPI PUSH2 0x960 PUSH1 0x0 DUP3 PUSH2 0x934 JUMP JUMPDEST PUSH1 0x1 DUP2 ADD SWAP1 POP PUSH2 0x94D JUMP JUMPDEST POP POP JUMP JUMPDEST PUSH1 0x1F DUP3 GT ISZERO PUSH2 0x9B0 JUMPI PUSH2 0x981 DUP2 PUSH2 0x850 JUMP JUMPDEST PUSH2 0x98A DUP5 PUSH2 0x865 JUMP JUMPDEST DUP2 ADD PUSH1 0x20 DUP6 LT ISZERO PUSH2 0x999 JUMPI DUP2 SWAP1 POP JUMPDEST PUSH2 0x9AD PUSH2 0x9A5 DUP6 PUSH2 0x865 JUMP JUMPDEST DUP4 ADD DUP3 PUSH2 0x94C JUMP JUMPDEST POP POP JUMPDEST POP POP POP JUMP JUMPDEST PUSH1 0x0 DUP3 DUP3 SHR SWAP1 POP SWAP3 SWAP2 POP POP JUMP JUMPDEST PUSH1 0x0 PUSH2 0x9D3 PUSH1 0x0 NOT DUP5 PUSH1 0x8 MUL PUSH2 0x9B5 JUMP JUMPDEST NOT DUP1 DUP4 AND SWAP2 POP POP SWAP3 SWAP2 POP POP JUMP JUMPDEST PUSH1 0x0 PUSH2 0x9EC DUP4 DUP4 PUSH2 0x9C2 JUMP JUMPDEST SWAP2 POP DUP3 PUSH1 0x2 MUL DUP3 OR SWAP1 POP SWAP3 SWAP2 POP POP JUMP JUMPDEST PUSH2 0xA05 DUP3 PUSH2 0x4CB JUMP JUMPDEST PUSH8 0xFFFFFFFFFFFFFFFF DUP2 GT ISZERO PUSH2 0xA1E JUMPI PUSH2 0xA1D PUSH2 0x63A JUMP JUMPDEST JUMPDEST PUSH2 0xA28 DUP3 SLOAD PUSH2 0x81F JUMP JUMPDEST PUSH2 0xA33 DUP3 DUP3 DUP6 PUSH2 0x96F JUMP JUMPDEST PUSH1 0x0 PUSH1 0x20 SWAP1 POP PUSH1 0x1F DUP4 GT PUSH1 0x1 DUP2 EQ PUSH2 0xA66 JUMPI PUSH1 0x0 DUP5 ISZERO PUSH2 0xA54 JUMPI DUP3 DUP8 ADD MLOAD SWAP1 POP JUMPDEST PUSH2 0xA5E DUP6 DUP3 PUSH2 0x9E0 JUMP JUMPDEST DUP7 SSTORE POP PUSH2 0xAC6 JUMP JUMPDEST PUSH1 0x1F NOT DUP5 AND PUSH2 0xA74 DUP7 PUSH2 0x850 JUMP JUMPDEST PUSH1 0x0 JUMPDEST DUP3 DUP2 LT ISZERO PUSH2 0xA9C JUMPI DUP5 DUP10 ADD MLOAD DUP3 SSTORE PUSH1 0x1 DUP3 ADD SWAP2 POP PUSH1 0x20 DUP6 ADD SWAP5 POP PUSH1 0x20 DUP2 ADD SWAP1 POP PUSH2 0xA77 JUMP JUMPDEST DUP7 DUP4 LT ISZERO PUSH2 0xAB9 JUMPI DUP5 DUP10 ADD MLOAD PUSH2 0xAB5 PUSH1 0x1F DUP10 AND DUP3 PUSH2 0x9C2 JUMP JUMPDEST DUP4 SSTORE POP JUMPDEST PUSH1 0x1 PUSH1 0x2 DUP9 MUL ADD DUP9 SSTORE POP POP POP JUMPDEST POP POP POP POP POP POP JUMP INVALID LOG2 PUSH5 0x6970667358 0x22 SLT KECCAK256 PUSH17 0xA5D21247900E07DEA4197CAC3C1906D006 SELFBALANCE PUSH23 0xAFA0852299764B14FE625F2264736F6C63430008110033 "
				},
				"gasEstimates": {
					"creation": {
						"codeDepositCost": "564000",
						"executionCost": "600",
						"totalCost": "564600"
					},
					"external": {
						"addMovie(uint256,string,string)": "infinite",
						"addYourMovie(uint256,string,string)": "infinite",
						"myMovie(uint256)": "infinite",
						"yourMovie(address,uint256)": "infinite"
					}
				},
				"methodIdentifiers": {
					"addMovie(uint256,string,string)": "f40f48c9",
					"addYourMovie(uint256,string,string)": "b47d006e",
					"myMovie(uint256)": "44a058b5",
					"yourMovie(address,uint256)": "4ffbcfcf"
				}
			},
			"storageLayout": {
				"storage": [
					{
						"astId": 11,
						"contract": "nestedMapping.sol:nestedMapping",
						"label": "myMovie",
						"offset": 0,
						"slot": "0",
						"type": "t_mapping(t_uint256,t_struct(movie)6_storage)"
					},
					{
						"astId": 18,
						"contract": "nestedMapping.sol:nestedMapping",
						"label": "yourMovie",
						"offset": 0,
						"slot": "1",
						"type": "t_mapping(t_address,t_mapping(t_uint256,t_struct(movie)6_storage))"
					}
				],
				"types": {
					"t_address": {
						"encoding": "inplace",
						"label": "address",
						"numberOfBytes": "20"
					},
					"t_mapping(t_address,t_mapping(t_uint256,t_struct(movie)6_storage))": {
						"encoding": "mapping",
						"key": "t_address",
						"label": "mapping(address => mapping(uint256 => struct nestedMapping.movie))",
						"numberOfBytes": "32",
						"value": "t_mapping(t_uint256,t_struct(movie)6_storage)"
					},
					"t_mapping(t_uint256,t_struct(movie)6_storage)": {
						"encoding": "mapping",
						"key": "t_uint256",
						"label": "mapping(uint256 => struct nestedMapping.movie)",
						"numberOfBytes": "32",
						"value": "t_struct(movie)6_storage"
					},
					"t_string_storage": {
						"encoding": "bytes",
						"label": "string",
						"numberOfBytes": "32"
					},
					"t_struct(movie)6_storage": {
						"encoding": "inplace",
						"label": "struct nestedMapping.movie",
						"members": [
							{
								"astId": 3,
								"contract": "nestedMapping.sol:nestedMapping",
								"label": "title",
								"offset": 0,
								"slot": "0",
								"type": "t_string_storage"
							},
							{
								"astId": 5,
								"contract": "nestedMapping.sol:nestedMapping",
								"label": "director",
								"offset": 0,
								"slot": "1",
								"type": "t_string_storage"
							}
						],
						"numberOfBytes": "64"
					},
					"t_uint256": {
						"encoding": "inplace",
						"label": "uint256",
						"numberOfBytes": "32"
					}
				}
			},
			"userdoc": {
				"kind": "user",
				"methods": {},
				"version": 1
			}
		}
	}
}