{
	"operators.sol": {
		"finalExercise": {
			"abi": [
				{
					"inputs": [],
					"name": "finalOperations",
					"outputs": [
						{
							"internalType": "uint256",
							"name": "",
							"type": "uint256"
						}
					],
					"stateMutability": "view",
					"type": "function"
				}
			],
			"devdoc": {
				"kind": "dev",
				"methods": {},
				"version": 1
			},
			"evm": {
				"assembly": "    /* \"operators.sol\":1137:1424  contract finalExercise... */\n  mstore(0x40, 0x80)\n    /* \"operators.sol\":1173:1176  300 */\n  0x012c\n    /* \"operators.sol\":1166:1176  uint a=300 */\n  0x00\n  sstore\n    /* \"operators.sol\":1189:1191  12 */\n  0x0c\n    /* \"operators.sol\":1182:1191  uint b=12 */\n  0x01\n  sstore\n    /* \"operators.sol\":1204:1206  47 */\n  0x2f\n    /* \"operators.sol\":1197:1206  uint f=47 */\n  0x02\n  sstore\n    /* \"operators.sol\":1137:1424  contract finalExercise... */\n  callvalue\n  dup1\n  iszero\n  tag_1\n  jumpi\n  0x00\n  dup1\n  revert\ntag_1:\n  pop\n  dataSize(sub_0)\n  dup1\n  dataOffset(sub_0)\n  0x00\n  codecopy\n  0x00\n  return\nstop\n\nsub_0: assembly {\n        /* \"operators.sol\":1137:1424  contract finalExercise... */\n      mstore(0x40, 0x80)\n      callvalue\n      dup1\n      iszero\n      tag_1\n      jumpi\n      0x00\n      dup1\n      revert\n    tag_1:\n      pop\n      jumpi(tag_2, lt(calldatasize, 0x04))\n      shr(0xe0, calldataload(0x00))\n      dup1\n      0x69aa06ed\n      eq\n      tag_3\n      jumpi\n    tag_2:\n      0x00\n      dup1\n      revert\n        /* \"operators.sol\":1213:1416  function finalOperations()public view returns(uint)... */\n    tag_3:\n      tag_4\n      tag_5\n      jump\t// in\n    tag_4:\n      mload(0x40)\n      tag_6\n      swap2\n      swap1\n      tag_7\n      jump\t// in\n    tag_6:\n      mload(0x40)\n      dup1\n      swap2\n      sub\n      swap1\n      return\n    tag_5:\n        /* \"operators.sol\":1259:1263  uint */\n      0x00\n        /* \"operators.sol\":1279:1285  uint d */\n      dup1\n        /* \"operators.sol\":1286:1288  23 */\n      0x17\n        /* \"operators.sol\":1279:1288  uint d=23 */\n      swap1\n      pop\n        /* \"operators.sol\":1304:1305  b */\n      sload(0x01)\n        /* \"operators.sol\":1301:1302  a */\n      sload(0x00)\n        /* \"operators.sol\":1301:1305  a>=b */\n      lt\n      iszero\n        /* \"operators.sol\":1301:1312  a>=b && b<f */\n      dup1\n      iszero\n      tag_9\n      jumpi\n      pop\n        /* \"operators.sol\":1311:1312  f */\n      sload(0x02)\n        /* \"operators.sol\":1309:1310  b */\n      sload(0x01)\n        /* \"operators.sol\":1309:1312  b<f */\n      lt\n        /* \"operators.sol\":1301:1312  a>=b && b<f */\n    tag_9:\n        /* \"operators.sol\":1298:1409  if(a>=b && b<f)... */\n      iszero\n      tag_10\n      jumpi\n        /* \"operators.sol\":1345:1346  b */\n      sload(0x01)\n        /* \"operators.sol\":1343:1344  d */\n      dup2\n        /* \"operators.sol\":1341:1342  d */\n      dup3\n        /* \"operators.sol\":1341:1344  d*d */\n      tag_11\n      swap2\n      swap1\n      tag_12\n      jump\t// in\n    tag_11:\n        /* \"operators.sol\":1341:1346  d*d-b */\n      tag_13\n      swap2\n      swap1\n      tag_14\n      jump\t// in\n    tag_13:\n        /* \"operators.sol\":1339:1346  d=d*d-b */\n      swap1\n      pop\n      dup1\n        /* \"operators.sol\":1332:1346  return d=d*d-b */\n      swap2\n      pop\n      pop\n      jump(tag_8)\n        /* \"operators.sol\":1298:1409  if(a>=b && b<f)... */\n    tag_10:\n        /* \"operators.sol\":1397:1398  d */\n      dup1\n        /* \"operators.sol\":1390:1398  return d */\n      swap2\n      pop\n      pop\n        /* \"operators.sol\":1213:1416  function finalOperations()public view returns(uint)... */\n    tag_8:\n      swap1\n      jump\t// out\n        /* \"#utility.yul\":7:84   */\n    tag_16:\n        /* \"#utility.yul\":44:51   */\n      0x00\n        /* \"#utility.yul\":73:78   */\n      dup2\n        /* \"#utility.yul\":62:78   */\n      swap1\n      pop\n        /* \"#utility.yul\":7:84   */\n      swap2\n      swap1\n      pop\n      jump\t// out\n        /* \"#utility.yul\":90:208   */\n    tag_17:\n        /* \"#utility.yul\":177:201   */\n      tag_22\n        /* \"#utility.yul\":195:200   */\n      dup2\n        /* \"#utility.yul\":177:201   */\n      tag_16\n      jump\t// in\n    tag_22:\n        /* \"#utility.yul\":172:175   */\n      dup3\n        /* \"#utility.yul\":165:202   */\n      mstore\n        /* \"#utility.yul\":90:208   */\n      pop\n      pop\n      jump\t// out\n        /* \"#utility.yul\":214:436   */\n    tag_7:\n        /* \"#utility.yul\":307:311   */\n      0x00\n        /* \"#utility.yul\":345:347   */\n      0x20\n        /* \"#utility.yul\":334:343   */\n      dup3\n        /* \"#utility.yul\":330:348   */\n      add\n        /* \"#utility.yul\":322:348   */\n      swap1\n      pop\n        /* \"#utility.yul\":358:429   */\n      tag_24\n        /* \"#utility.yul\":426:427   */\n      0x00\n        /* \"#utility.yul\":415:424   */\n      dup4\n        /* \"#utility.yul\":411:428   */\n      add\n        /* \"#utility.yul\":402:408   */\n      dup5\n        /* \"#utility.yul\":358:429   */\n      tag_17\n      jump\t// in\n    tag_24:\n        /* \"#utility.yul\":214:436   */\n      swap3\n      swap2\n      pop\n      pop\n      jump\t// out\n        /* \"#utility.yul\":442:622   */\n    tag_18:\n        /* \"#utility.yul\":490:567   */\n      0x4e487b7100000000000000000000000000000000000000000000000000000000\n        /* \"#utility.yul\":487:488   */\n      0x00\n        /* \"#utility.yul\":480:568   */\n      mstore\n        /* \"#utility.yul\":587:591   */\n      0x11\n        /* \"#utility.yul\":584:585   */\n      0x04\n        /* \"#utility.yul\":577:592   */\n      mstore\n        /* \"#utility.yul\":611:615   */\n      0x24\n        /* \"#utility.yul\":608:609   */\n      0x00\n        /* \"#utility.yul\":601:616   */\n      revert\n        /* \"#utility.yul\":628:1038   */\n    tag_12:\n        /* \"#utility.yul\":668:675   */\n      0x00\n        /* \"#utility.yul\":691:711   */\n      tag_27\n        /* \"#utility.yul\":709:710   */\n      dup3\n        /* \"#utility.yul\":691:711   */\n      tag_16\n      jump\t// in\n    tag_27:\n        /* \"#utility.yul\":686:711   */\n      swap2\n      pop\n        /* \"#utility.yul\":725:745   */\n      tag_28\n        /* \"#utility.yul\":743:744   */\n      dup4\n        /* \"#utility.yul\":725:745   */\n      tag_16\n      jump\t// in\n    tag_28:\n        /* \"#utility.yul\":720:745   */\n      swap3\n      pop\n        /* \"#utility.yul\":780:781   */\n      dup3\n        /* \"#utility.yul\":777:778   */\n      dup3\n        /* \"#utility.yul\":773:782   */\n      mul\n        /* \"#utility.yul\":802:832   */\n      tag_29\n        /* \"#utility.yul\":820:831   */\n      dup2\n        /* \"#utility.yul\":802:832   */\n      tag_16\n      jump\t// in\n    tag_29:\n        /* \"#utility.yul\":791:832   */\n      swap2\n      pop\n        /* \"#utility.yul\":981:982   */\n      dup3\n        /* \"#utility.yul\":972:979   */\n      dup3\n        /* \"#utility.yul\":968:983   */\n      div\n        /* \"#utility.yul\":965:966   */\n      dup5\n        /* \"#utility.yul\":962:984   */\n      eq\n        /* \"#utility.yul\":942:943   */\n      dup4\n        /* \"#utility.yul\":935:944   */\n      iszero\n        /* \"#utility.yul\":915:998   */\n      or\n        /* \"#utility.yul\":892:1031   */\n      tag_30\n      jumpi\n        /* \"#utility.yul\":1011:1029   */\n      tag_31\n      tag_18\n      jump\t// in\n    tag_31:\n        /* \"#utility.yul\":892:1031   */\n    tag_30:\n        /* \"#utility.yul\":676:1038   */\n      pop\n        /* \"#utility.yul\":628:1038   */\n      swap3\n      swap2\n      pop\n      pop\n      jump\t// out\n        /* \"#utility.yul\":1044:1238   */\n    tag_14:\n        /* \"#utility.yul\":1084:1088   */\n      0x00\n        /* \"#utility.yul\":1104:1124   */\n      tag_33\n        /* \"#utility.yul\":1122:1123   */\n      dup3\n        /* \"#utility.yul\":1104:1124   */\n      tag_16\n      jump\t// in\n    tag_33:\n        /* \"#utility.yul\":1099:1124   */\n      swap2\n      pop\n        /* \"#utility.yul\":1138:1158   */\n      tag_34\n        /* \"#utility.yul\":1156:1157   */\n      dup4\n        /* \"#utility.yul\":1138:1158   */\n      tag_16\n      jump\t// in\n    tag_34:\n        /* \"#utility.yul\":1133:1158   */\n      swap3\n      pop\n        /* \"#utility.yul\":1182:1183   */\n      dup3\n        /* \"#utility.yul\":1179:1180   */\n      dup3\n        /* \"#utility.yul\":1175:1184   */\n      sub\n        /* \"#utility.yul\":1167:1184   */\n      swap1\n      pop\n        /* \"#utility.yul\":1206:1207   */\n      dup2\n        /* \"#utility.yul\":1200:1204   */\n      dup2\n        /* \"#utility.yul\":1197:1208   */\n      gt\n        /* \"#utility.yul\":1194:1231   */\n      iszero\n      tag_35\n      jumpi\n        /* \"#utility.yul\":1211:1229   */\n      tag_36\n      tag_18\n      jump\t// in\n    tag_36:\n        /* \"#utility.yul\":1194:1231   */\n    tag_35:\n        /* \"#utility.yul\":1044:1238   */\n      swap3\n      swap2\n      pop\n      pop\n      jump\t// out\n\n    auxdata: 0xa26469706673582212206256fa3079aefd89843dbce87c25b2f9de070e052119c5c4df3fdc82cf7750aa64736f6c63430008110033\n}\n",
				"bytecode": {
					"linkReferences": {},
					"object": "608060405261012c600055600c600155602f60025534801561002057600080fd5b506101ac806100306000396000f3fe608060405234801561001057600080fd5b506004361061002b5760003560e01c806369aa06ed14610030575b600080fd5b61003861004e565b60405161004591906100b6565b60405180910390f35b600080601790506001546000541015801561006c5750600254600154105b156100955760015481826100809190610100565b61008a9190610142565b90508091505061009a565b809150505b90565b6000819050919050565b6100b08161009d565b82525050565b60006020820190506100cb60008301846100a7565b92915050565b7f4e487b7100000000000000000000000000000000000000000000000000000000600052601160045260246000fd5b600061010b8261009d565b91506101168361009d565b92508282026101248161009d565b9150828204841483151761013b5761013a6100d1565b5b5092915050565b600061014d8261009d565b91506101588361009d565b92508282039050818111156101705761016f6100d1565b5b9291505056fea26469706673582212206256fa3079aefd89843dbce87c25b2f9de070e052119c5c4df3fdc82cf7750aa64736f6c63430008110033",
					"opcodes": "PUSH1 0x80 PUSH1 0x40 MSTORE PUSH2 0x12C PUSH1 0x0 SSTORE PUSH1 0xC PUSH1 0x1 SSTORE PUSH1 0x2F PUSH1 0x2 SSTORE CALLVALUE DUP1 ISZERO PUSH2 0x20 JUMPI PUSH1 0x0 DUP1 REVERT JUMPDEST POP PUSH2 0x1AC DUP1 PUSH2 0x30 PUSH1 0x0 CODECOPY PUSH1 0x0 RETURN INVALID PUSH1 0x80 PUSH1 0x40 MSTORE CALLVALUE DUP1 ISZERO PUSH2 0x10 JUMPI PUSH1 0x0 DUP1 REVERT JUMPDEST POP PUSH1 0x4 CALLDATASIZE LT PUSH2 0x2B JUMPI PUSH1 0x0 CALLDATALOAD PUSH1 0xE0 SHR DUP1 PUSH4 0x69AA06ED EQ PUSH2 0x30 JUMPI JUMPDEST PUSH1 0x0 DUP1 REVERT JUMPDEST PUSH2 0x38 PUSH2 0x4E JUMP JUMPDEST PUSH1 0x40 MLOAD PUSH2 0x45 SWAP2 SWAP1 PUSH2 0xB6 JUMP JUMPDEST PUSH1 0x40 MLOAD DUP1 SWAP2 SUB SWAP1 RETURN JUMPDEST PUSH1 0x0 DUP1 PUSH1 0x17 SWAP1 POP PUSH1 0x1 SLOAD PUSH1 0x0 SLOAD LT ISZERO DUP1 ISZERO PUSH2 0x6C JUMPI POP PUSH1 0x2 SLOAD PUSH1 0x1 SLOAD LT JUMPDEST ISZERO PUSH2 0x95 JUMPI PUSH1 0x1 SLOAD DUP2 DUP3 PUSH2 0x80 SWAP2 SWAP1 PUSH2 0x100 JUMP JUMPDEST PUSH2 0x8A SWAP2 SWAP1 PUSH2 0x142 JUMP JUMPDEST SWAP1 POP DUP1 SWAP2 POP POP PUSH2 0x9A JUMP JUMPDEST DUP1 SWAP2 POP POP JUMPDEST SWAP1 JUMP JUMPDEST PUSH1 0x0 DUP2 SWAP1 POP SWAP2 SWAP1 POP JUMP JUMPDEST PUSH2 0xB0 DUP2 PUSH2 0x9D JUMP JUMPDEST DUP3 MSTORE POP POP JUMP JUMPDEST PUSH1 0x0 PUSH1 0x20 DUP3 ADD SWAP1 POP PUSH2 0xCB PUSH1 0x0 DUP4 ADD DUP5 PUSH2 0xA7 JUMP JUMPDEST SWAP3 SWAP2 POP POP JUMP JUMPDEST PUSH32 0x4E487B7100000000000000000000000000000000000000000000000000000000 PUSH1 0x0 MSTORE PUSH1 0x11 PUSH1 0x4 MSTORE PUSH1 0x24 PUSH1 0x0 REVERT JUMPDEST PUSH1 0x0 PUSH2 0x10B DUP3 PUSH2 0x9D JUMP JUMPDEST SWAP2 POP PUSH2 0x116 DUP4 PUSH2 0x9D JUMP JUMPDEST SWAP3 POP DUP3 DUP3 MUL PUSH2 0x124 DUP2 PUSH2 0x9D JUMP JUMPDEST SWAP2 POP DUP3 DUP3 DIV DUP5 EQ DUP4 ISZERO OR PUSH2 0x13B JUMPI PUSH2 0x13A PUSH2 0xD1 JUMP JUMPDEST JUMPDEST POP SWAP3 SWAP2 POP POP JUMP JUMPDEST PUSH1 0x0 PUSH2 0x14D DUP3 PUSH2 0x9D JUMP JUMPDEST SWAP2 POP PUSH2 0x158 DUP4 PUSH2 0x9D JUMP JUMPDEST SWAP3 POP DUP3 DUP3 SUB SWAP1 POP DUP2 DUP2 GT ISZERO PUSH2 0x170 JUMPI PUSH2 0x16F PUSH2 0xD1 JUMP JUMPDEST JUMPDEST SWAP3 SWAP2 POP POP JUMP INVALID LOG2 PUSH5 0x6970667358 0x22 SLT KECCAK256 PUSH3 0x56FA30 PUSH26 0xAEFD89843DBCE87C25B2F9DE070E052119C5C4DF3FDC82CF7750 0xAA PUSH5 0x736F6C6343 STOP ADDMOD GT STOP CALLER "
				},
				"gasEstimates": {
					"creation": {
						"codeDepositCost": "85600",
						"executionCost": "66453",
						"totalCost": "152053"
					},
					"external": {
						"finalOperations()": "infinite"
					}
				},
				"methodIdentifiers": {
					"finalOperations()": "69aa06ed"
				}
			},
			"storageLayout": {
				"storage": [
					{
						"astId": 137,
						"contract": "operators.sol:finalExercise",
						"label": "a",
						"offset": 0,
						"slot": "0",
						"type": "t_uint256"
					},
					{
						"astId": 140,
						"contract": "operators.sol:finalExercise",
						"label": "b",
						"offset": 0,
						"slot": "1",
						"type": "t_uint256"
					},
					{
						"astId": 143,
						"contract": "operators.sol:finalExercise",
						"label": "f",
						"offset": 0,
						"slot": "2",
						"type": "t_uint256"
					}
				],
				"types": {
					"t_uint256": {
						"encoding": "inplace",
						"label": "uint256",
						"numberOfBytes": "32"
					}
				}
			},
			"userdoc": {
				"kind": "user",
				"methods": {},
				"version": 1
			}
		}
	}
}