{
	"operators.sol": {
		"operator": {
			"abi": [
				{
					"inputs": [],
					"name": "calculator1",
					"outputs": [
						{
							"internalType": "uint256",
							"name": "",
							"type": "uint256"
						}
					],
					"stateMutability": "view",
					"type": "function"
				},
				{
					"inputs": [],
					"name": "calculator2",
					"outputs": [
						{
							"internalType": "uint256",
							"name": "",
							"type": "uint256"
						}
					],
					"stateMutability": "view",
					"type": "function"
				}
			],
			"devdoc": {
				"kind": "dev",
				"methods": {},
				"version": 1
			},
			"evm": {
				"assembly": "    /* \"operators.sol\":70:415  contract operator... */\n  mstore(0x40, 0x80)\n  callvalue\n  dup1\n  iszero\n  tag_1\n  jumpi\n  0x00\n  dup1\n  revert\ntag_1:\n  pop\n  dataSize(sub_0)\n  dup1\n  dataOffset(sub_0)\n  0x00\n  codecopy\n  0x00\n  return\nstop\n\nsub_0: assembly {\n        /* \"operators.sol\":70:415  contract operator... */\n      mstore(0x40, 0x80)\n      callvalue\n      dup1\n      iszero\n      tag_1\n      jumpi\n      0x00\n      dup1\n      revert\n    tag_1:\n      pop\n      jumpi(tag_2, lt(calldatasize, 0x04))\n      shr(0xe0, calldataload(0x00))\n      dup1\n      0x796c6543\n      eq\n      tag_3\n      jumpi\n      dup1\n      0x967b0778\n      eq\n      tag_4\n      jumpi\n    tag_2:\n      0x00\n      dup1\n      revert\n        /* \"operators.sol\":96:246  function calculator1() public view returns(uint)... */\n    tag_3:\n      tag_5\n      tag_6\n      jump\t// in\n    tag_5:\n      mload(0x40)\n      tag_7\n      swap2\n      swap1\n      tag_8\n      jump\t// in\n    tag_7:\n      mload(0x40)\n      dup1\n      swap2\n      sub\n      swap1\n      return\n        /* \"operators.sol\":255:406  function calculator2() public view returns(uint)... */\n    tag_4:\n      tag_9\n      tag_10\n      jump\t// in\n    tag_9:\n      mload(0x40)\n      tag_11\n      swap2\n      swap1\n      tag_8\n      jump\t// in\n    tag_11:\n      mload(0x40)\n      dup1\n      swap2\n      sub\n      swap1\n      return\n        /* \"operators.sol\":96:246  function calculator1() public view returns(uint)... */\n    tag_6:\n        /* \"operators.sol\":139:143  uint */\n      0x00\n        /* \"operators.sol\":163:169  uint a */\n      dup1\n        /* \"operators.sol\":170:171  5 */\n      0x05\n        /* \"operators.sol\":163:171  uint a=5 */\n      swap1\n      pop\n        /* \"operators.sol\":183:189  uint b */\n      0x00\n        /* \"operators.sol\":191:192  9 */\n      0x09\n        /* \"operators.sol\":183:192  uint b =9 */\n      swap1\n      pop\n        /* \"operators.sol\":236:237  b */\n      dup1\n        /* \"operators.sol\":234:235  a */\n      dup3\n        /* \"operators.sol\":234:237  a+b */\n      tag_13\n      swap2\n      swap1\n      tag_14\n      jump\t// in\n    tag_13:\n        /* \"operators.sol\":227:237  return a+b */\n      swap3\n      pop\n      pop\n      pop\n        /* \"operators.sol\":96:246  function calculator1() public view returns(uint)... */\n      swap1\n      jump\t// out\n        /* \"operators.sol\":255:406  function calculator2() public view returns(uint)... */\n    tag_10:\n        /* \"operators.sol\":298:302  uint */\n      0x00\n        /* \"operators.sol\":322:328  uint a */\n      dup1\n        /* \"operators.sol\":329:330  5 */\n      0x05\n        /* \"operators.sol\":322:330  uint a=5 */\n      swap1\n      pop\n        /* \"operators.sol\":342:348  uint b */\n      0x00\n        /* \"operators.sol\":350:351  9 */\n      0x09\n        /* \"operators.sol\":342:351  uint b =9 */\n      swap1\n      pop\n        /* \"operators.sol\":396:397  b */\n      dup1\n        /* \"operators.sol\":394:395  a */\n      dup3\n        /* \"operators.sol\":394:397  a%b */\n      tag_16\n      swap2\n      swap1\n      tag_17\n      jump\t// in\n    tag_16:\n        /* \"operators.sol\":387:397  return a%b */\n      swap3\n      pop\n      pop\n      pop\n        /* \"operators.sol\":255:406  function calculator2() public view returns(uint)... */\n      swap1\n      jump\t// out\n        /* \"#utility.yul\":7:84   */\n    tag_18:\n        /* \"#utility.yul\":44:51   */\n      0x00\n        /* \"#utility.yul\":73:78   */\n      dup2\n        /* \"#utility.yul\":62:78   */\n      swap1\n      pop\n        /* \"#utility.yul\":7:84   */\n      swap2\n      swap1\n      pop\n      jump\t// out\n        /* \"#utility.yul\":90:208   */\n    tag_19:\n        /* \"#utility.yul\":177:201   */\n      tag_25\n        /* \"#utility.yul\":195:200   */\n      dup2\n        /* \"#utility.yul\":177:201   */\n      tag_18\n      jump\t// in\n    tag_25:\n        /* \"#utility.yul\":172:175   */\n      dup3\n        /* \"#utility.yul\":165:202   */\n      mstore\n        /* \"#utility.yul\":90:208   */\n      pop\n      pop\n      jump\t// out\n        /* \"#utility.yul\":214:436   */\n    tag_8:\n        /* \"#utility.yul\":307:311   */\n      0x00\n        /* \"#utility.yul\":345:347   */\n      0x20\n        /* \"#utility.yul\":334:343   */\n      dup3\n        /* \"#utility.yul\":330:348   */\n      add\n        /* \"#utility.yul\":322:348   */\n      swap1\n      pop\n        /* \"#utility.yul\":358:429   */\n      tag_27\n        /* \"#utility.yul\":426:427   */\n      0x00\n        /* \"#utility.yul\":415:424   */\n      dup4\n        /* \"#utility.yul\":411:428   */\n      add\n        /* \"#utility.yul\":402:408   */\n      dup5\n        /* \"#utility.yul\":358:429   */\n      tag_19\n      jump\t// in\n    tag_27:\n        /* \"#utility.yul\":214:436   */\n      swap3\n      swap2\n      pop\n      pop\n      jump\t// out\n        /* \"#utility.yul\":442:622   */\n    tag_20:\n        /* \"#utility.yul\":490:567   */\n      0x4e487b7100000000000000000000000000000000000000000000000000000000\n        /* \"#utility.yul\":487:488   */\n      0x00\n        /* \"#utility.yul\":480:568   */\n      mstore\n        /* \"#utility.yul\":587:591   */\n      0x11\n        /* \"#utility.yul\":584:585   */\n      0x04\n        /* \"#utility.yul\":577:592   */\n      mstore\n        /* \"#utility.yul\":611:615   */\n      0x24\n        /* \"#utility.yul\":608:609   */\n      0x00\n        /* \"#utility.yul\":601:616   */\n      revert\n        /* \"#utility.yul\":628:819   */\n    tag_14:\n        /* \"#utility.yul\":668:671   */\n      0x00\n        /* \"#utility.yul\":687:707   */\n      tag_30\n        /* \"#utility.yul\":705:706   */\n      dup3\n        /* \"#utility.yul\":687:707   */\n      tag_18\n      jump\t// in\n    tag_30:\n        /* \"#utility.yul\":682:707   */\n      swap2\n      pop\n        /* \"#utility.yul\":721:741   */\n      tag_31\n        /* \"#utility.yul\":739:740   */\n      dup4\n        /* \"#utility.yul\":721:741   */\n      tag_18\n      jump\t// in\n    tag_31:\n        /* \"#utility.yul\":716:741   */\n      swap3\n      pop\n        /* \"#utility.yul\":764:765   */\n      dup3\n        /* \"#utility.yul\":761:762   */\n      dup3\n        /* \"#utility.yul\":757:766   */\n      add\n        /* \"#utility.yul\":750:766   */\n      swap1\n      pop\n        /* \"#utility.yul\":785:788   */\n      dup1\n        /* \"#utility.yul\":782:783   */\n      dup3\n        /* \"#utility.yul\":779:789   */\n      gt\n        /* \"#utility.yul\":776:812   */\n      iszero\n      tag_32\n      jumpi\n        /* \"#utility.yul\":792:810   */\n      tag_33\n      tag_20\n      jump\t// in\n    tag_33:\n        /* \"#utility.yul\":776:812   */\n    tag_32:\n        /* \"#utility.yul\":628:819   */\n      swap3\n      swap2\n      pop\n      pop\n      jump\t// out\n        /* \"#utility.yul\":825:1005   */\n    tag_21:\n        /* \"#utility.yul\":873:950   */\n      0x4e487b7100000000000000000000000000000000000000000000000000000000\n        /* \"#utility.yul\":870:871   */\n      0x00\n        /* \"#utility.yul\":863:951   */\n      mstore\n        /* \"#utility.yul\":970:974   */\n      0x12\n        /* \"#utility.yul\":967:968   */\n      0x04\n        /* \"#utility.yul\":960:975   */\n      mstore\n        /* \"#utility.yul\":994:998   */\n      0x24\n        /* \"#utility.yul\":991:992   */\n      0x00\n        /* \"#utility.yul\":984:999   */\n      revert\n        /* \"#utility.yul\":1011:1187   */\n    tag_17:\n        /* \"#utility.yul\":1043:1044   */\n      0x00\n        /* \"#utility.yul\":1060:1080   */\n      tag_36\n        /* \"#utility.yul\":1078:1079   */\n      dup3\n        /* \"#utility.yul\":1060:1080   */\n      tag_18\n      jump\t// in\n    tag_36:\n        /* \"#utility.yul\":1055:1080   */\n      swap2\n      pop\n        /* \"#utility.yul\":1094:1114   */\n      tag_37\n        /* \"#utility.yul\":1112:1113   */\n      dup4\n        /* \"#utility.yul\":1094:1114   */\n      tag_18\n      jump\t// in\n    tag_37:\n        /* \"#utility.yul\":1089:1114   */\n      swap3\n      pop\n        /* \"#utility.yul\":1133:1134   */\n      dup3\n        /* \"#utility.yul\":1123:1158   */\n      tag_38\n      jumpi\n        /* \"#utility.yul\":1138:1156   */\n      tag_39\n      tag_21\n      jump\t// in\n    tag_39:\n        /* \"#utility.yul\":1123:1158   */\n    tag_38:\n        /* \"#utility.yul\":1179:1180   */\n      dup3\n        /* \"#utility.yul\":1176:1177   */\n      dup3\n        /* \"#utility.yul\":1172:1181   */\n      mod\n        /* \"#utility.yul\":1167:1181   */\n      swap1\n      pop\n        /* \"#utility.yul\":1011:1187   */\n      swap3\n      swap2\n      pop\n      pop\n      jump\t// out\n\n    auxdata: 0xa2646970667358221220a8cd2b62bff1c7173fe8cdcb31edc7e8caa3cc6d287432cc406d3be72b0e043564736f6c63430008110033\n}\n",
				"bytecode": {
					"linkReferences": {},
					"object": "608060405234801561001057600080fd5b506101e4806100206000396000f3fe608060405234801561001057600080fd5b50600436106100365760003560e01c8063796c65431461003b578063967b077814610059575b600080fd5b610043610077565b60405161005091906100d0565b60405180910390f35b610061610097565b60405161006e91906100d0565b60405180910390f35b600080600590506000600990508082610090919061011a565b9250505090565b6000806005905060006009905080826100b0919061017d565b9250505090565b6000819050919050565b6100ca816100b7565b82525050565b60006020820190506100e560008301846100c1565b92915050565b7f4e487b7100000000000000000000000000000000000000000000000000000000600052601160045260246000fd5b6000610125826100b7565b9150610130836100b7565b9250828201905080821115610148576101476100eb565b5b92915050565b7f4e487b7100000000000000000000000000000000000000000000000000000000600052601260045260246000fd5b6000610188826100b7565b9150610193836100b7565b9250826101a3576101a261014e565b5b82820690509291505056fea2646970667358221220a8cd2b62bff1c7173fe8cdcb31edc7e8caa3cc6d287432cc406d3be72b0e043564736f6c63430008110033",
					"opcodes": "PUSH1 0x80 PUSH1 0x40 MSTORE CALLVALUE DUP1 ISZERO PUSH2 0x10 JUMPI PUSH1 0x0 DUP1 REVERT JUMPDEST POP PUSH2 0x1E4 DUP1 PUSH2 0x20 PUSH1 0x0 CODECOPY PUSH1 0x0 RETURN INVALID PUSH1 0x80 PUSH1 0x40 MSTORE CALLVALUE DUP1 ISZERO PUSH2 0x10 JUMPI PUSH1 0x0 DUP1 REVERT JUMPDEST POP PUSH1 0x4 CALLDATASIZE LT PUSH2 0x36 JUMPI PUSH1 0x0 CALLDATALOAD PUSH1 0xE0 SHR DUP1 PUSH4 0x796C6543 EQ PUSH2 0x3B JUMPI DUP1 PUSH4 0x967B0778 EQ PUSH2 0x59 JUMPI JUMPDEST PUSH1 0x0 DUP1 REVERT JUMPDEST PUSH2 0x43 PUSH2 0x77 JUMP JUMPDEST PUSH1 0x40 MLOAD PUSH2 0x50 SWAP2 SWAP1 PUSH2 0xD0 JUMP JUMPDEST PUSH1 0x40 MLOAD DUP1 SWAP2 SUB SWAP1 RETURN JUMPDEST PUSH2 0x61 PUSH2 0x97 JUMP JUMPDEST PUSH1 0x40 MLOAD PUSH2 0x6E SWAP2 SWAP1 PUSH2 0xD0 JUMP JUMPDEST PUSH1 0x40 MLOAD DUP1 SWAP2 SUB SWAP1 RETURN JUMPDEST PUSH1 0x0 DUP1 PUSH1 0x5 SWAP1 POP PUSH1 0x0 PUSH1 0x9 SWAP1 POP DUP1 DUP3 PUSH2 0x90 SWAP2 SWAP1 PUSH2 0x11A JUMP JUMPDEST SWAP3 POP POP POP SWAP1 JUMP JUMPDEST PUSH1 0x0 DUP1 PUSH1 0x5 SWAP1 POP PUSH1 0x0 PUSH1 0x9 SWAP1 POP DUP1 DUP3 PUSH2 0xB0 SWAP2 SWAP1 PUSH2 0x17D JUMP JUMPDEST SWAP3 POP POP POP SWAP1 JUMP JUMPDEST PUSH1 0x0 DUP2 SWAP1 POP SWAP2 SWAP1 POP JUMP JUMPDEST PUSH2 0xCA DUP2 PUSH2 0xB7 JUMP JUMPDEST DUP3 MSTORE POP POP JUMP JUMPDEST PUSH1 0x0 PUSH1 0x20 DUP3 ADD SWAP1 POP PUSH2 0xE5 PUSH1 0x0 DUP4 ADD DUP5 PUSH2 0xC1 JUMP JUMPDEST SWAP3 SWAP2 POP POP JUMP JUMPDEST PUSH32 0x4E487B7100000000000000000000000000000000000000000000000000000000 PUSH1 0x0 MSTORE PUSH1 0x11 PUSH1 0x4 MSTORE PUSH1 0x24 PUSH1 0x0 REVERT JUMPDEST PUSH1 0x0 PUSH2 0x125 DUP3 PUSH2 0xB7 JUMP JUMPDEST SWAP2 POP PUSH2 0x130 DUP4 PUSH2 0xB7 JUMP JUMPDEST SWAP3 POP DUP3 DUP3 ADD SWAP1 POP DUP1 DUP3 GT ISZERO PUSH2 0x148 JUMPI PUSH2 0x147 PUSH2 0xEB JUMP JUMPDEST JUMPDEST SWAP3 SWAP2 POP POP JUMP JUMPDEST PUSH32 0x4E487B7100000000000000000000000000000000000000000000000000000000 PUSH1 0x0 MSTORE PUSH1 0x12 PUSH1 0x4 MSTORE PUSH1 0x24 PUSH1 0x0 REVERT JUMPDEST PUSH1 0x0 PUSH2 0x188 DUP3 PUSH2 0xB7 JUMP JUMPDEST SWAP2 POP PUSH2 0x193 DUP4 PUSH2 0xB7 JUMP JUMPDEST SWAP3 POP DUP3 PUSH2 0x1A3 JUMPI PUSH2 0x1A2 PUSH2 0x14E JUMP JUMPDEST JUMPDEST DUP3 DUP3 MOD SWAP1 POP SWAP3 SWAP2 POP POP JUMP INVALID LOG2 PUSH5 0x6970667358 0x22 SLT KECCAK256 0xA8 0xCD 0x2B PUSH3 0xBFF1C7 OR EXTCODEHASH 0xE8 0xCD 0xCB BALANCE 0xED 0xC7 0xE8 0xCA LOG3 0xCC PUSH14 0x287432CC406D3BE72B0E04356473 PUSH16 0x6C634300081100330000000000000000 "
				},
				"gasEstimates": {
					"creation": {
						"codeDepositCost": "96800",
						"executionCost": "147",
						"totalCost": "96947"
					},
					"external": {
						"calculator1()": "infinite",
						"calculator2()": "infinite"
					}
				},
				"methodIdentifiers": {
					"calculator1()": "796c6543",
					"calculator2()": "967b0778"
				}
			},
			"storageLayout": {
				"storage": [],
				"types": null
			},
			"userdoc": {
				"kind": "user",
				"methods": {},
				"version": 1
			}
		}
	}
}