{
	"modulo.sol": {
		"loopContract": {
			"abi": [
				{
					"inputs": [
						{
							"internalType": "uint256",
							"name": "_num",
							"type": "uint256"
						},
						{
							"internalType": "uint256",
							"name": "_nums",
							"type": "uint256"
						}
					],
					"name": "checkMultiples",
					"outputs": [
						{
							"internalType": "bool",
							"name": "",
							"type": "bool"
						}
					],
					"stateMutability": "view",
					"type": "function"
				}
			],
			"devdoc": {
				"kind": "dev",
				"methods": {},
				"version": 1
			},
			"evm": {
				"assembly": "    /* \"modulo.sol\":70:447  contract loopContract... */\n  mstore(0x40, 0x80)\n  callvalue\n  dup1\n  iszero\n  tag_1\n  jumpi\n  0x00\n  dup1\n  revert\ntag_1:\n  pop\n  dataSize(sub_0)\n  dup1\n  dataOffset(sub_0)\n  0x00\n  codecopy\n  0x00\n  return\nstop\n\nsub_0: assembly {\n        /* \"modulo.sol\":70:447  contract loopContract... */\n      mstore(0x40, 0x80)\n      callvalue\n      dup1\n      iszero\n      tag_1\n      jumpi\n      0x00\n      dup1\n      revert\n    tag_1:\n      pop\n      jumpi(tag_2, lt(calldatasize, 0x04))\n      shr(0xe0, calldataload(0x00))\n      dup1\n      0x36e94be5\n      eq\n      tag_3\n      jumpi\n    tag_2:\n      0x00\n      dup1\n      revert\n        /* \"modulo.sol\":165:445  function checkMultiples(uint _num,uint _nums) public view returns(bool)... */\n    tag_3:\n      tag_4\n      0x04\n      dup1\n      calldatasize\n      sub\n      dup2\n      add\n      swap1\n      tag_5\n      swap2\n      swap1\n      tag_6\n      jump\t// in\n    tag_5:\n      tag_7\n      jump\t// in\n    tag_4:\n      mload(0x40)\n      tag_8\n      swap2\n      swap1\n      tag_9\n      jump\t// in\n    tag_8:\n      mload(0x40)\n      dup1\n      swap2\n      sub\n      swap1\n      return\n    tag_7:\n        /* \"modulo.sol\":231:235  bool */\n      0x00\n        /* \"modulo.sol\":333:334  0 */\n      dup1\n        /* \"modulo.sol\":326:331  _nums */\n      dup3\n        /* \"modulo.sol\":321:325  _num */\n      dup5\n        /* \"modulo.sol\":321:331  _num%_nums */\n      tag_11\n      swap2\n      swap1\n      tag_12\n      jump\t// in\n    tag_11:\n        /* \"modulo.sol\":321:334  _num%_nums==0 */\n      sub\n        /* \"modulo.sol\":318:439  if(_num%_nums==0)... */\n      tag_13\n      jumpi\n        /* \"modulo.sol\":365:369  true */\n      0x01\n        /* \"modulo.sol\":358:369  return true */\n      swap1\n      pop\n      jump(tag_10)\n        /* \"modulo.sol\":318:439  if(_num%_nums==0)... */\n    tag_13:\n        /* \"modulo.sol\":423:428  false */\n      0x00\n        /* \"modulo.sol\":416:428  return false */\n      swap1\n      pop\n        /* \"modulo.sol\":165:445  function checkMultiples(uint _num,uint _nums) public view returns(bool)... */\n    tag_10:\n      swap3\n      swap2\n      pop\n      pop\n      jump\t// out\n        /* \"#utility.yul\":88:205   */\n    tag_16:\n        /* \"#utility.yul\":197:198   */\n      0x00\n        /* \"#utility.yul\":194:195   */\n      dup1\n        /* \"#utility.yul\":187:199   */\n      revert\n        /* \"#utility.yul\":334:411   */\n    tag_18:\n        /* \"#utility.yul\":371:378   */\n      0x00\n        /* \"#utility.yul\":400:405   */\n      dup2\n        /* \"#utility.yul\":389:405   */\n      swap1\n      pop\n        /* \"#utility.yul\":334:411   */\n      swap2\n      swap1\n      pop\n      jump\t// out\n        /* \"#utility.yul\":417:539   */\n    tag_19:\n        /* \"#utility.yul\":490:514   */\n      tag_30\n        /* \"#utility.yul\":508:513   */\n      dup2\n        /* \"#utility.yul\":490:514   */\n      tag_18\n      jump\t// in\n    tag_30:\n        /* \"#utility.yul\":483:488   */\n      dup2\n        /* \"#utility.yul\":480:515   */\n      eq\n        /* \"#utility.yul\":470:533   */\n      tag_31\n      jumpi\n        /* \"#utility.yul\":529:530   */\n      0x00\n        /* \"#utility.yul\":526:527   */\n      dup1\n        /* \"#utility.yul\":519:531   */\n      revert\n        /* \"#utility.yul\":470:533   */\n    tag_31:\n        /* \"#utility.yul\":417:539   */\n      pop\n      jump\t// out\n        /* \"#utility.yul\":545:684   */\n    tag_20:\n        /* \"#utility.yul\":591:596   */\n      0x00\n        /* \"#utility.yul\":629:635   */\n      dup2\n        /* \"#utility.yul\":616:636   */\n      calldataload\n        /* \"#utility.yul\":607:636   */\n      swap1\n      pop\n        /* \"#utility.yul\":645:678   */\n      tag_33\n        /* \"#utility.yul\":672:677   */\n      dup2\n        /* \"#utility.yul\":645:678   */\n      tag_19\n      jump\t// in\n    tag_33:\n        /* \"#utility.yul\":545:684   */\n      swap3\n      swap2\n      pop\n      pop\n      jump\t// out\n        /* \"#utility.yul\":690:1164   */\n    tag_6:\n        /* \"#utility.yul\":758:764   */\n      0x00\n        /* \"#utility.yul\":766:772   */\n      dup1\n        /* \"#utility.yul\":815:817   */\n      0x40\n        /* \"#utility.yul\":803:812   */\n      dup4\n        /* \"#utility.yul\":794:801   */\n      dup6\n        /* \"#utility.yul\":790:813   */\n      sub\n        /* \"#utility.yul\":786:818   */\n      slt\n        /* \"#utility.yul\":783:902   */\n      iszero\n      tag_35\n      jumpi\n        /* \"#utility.yul\":821:900   */\n      tag_36\n      tag_16\n      jump\t// in\n    tag_36:\n        /* \"#utility.yul\":783:902   */\n    tag_35:\n        /* \"#utility.yul\":941:942   */\n      0x00\n        /* \"#utility.yul\":966:1019   */\n      tag_37\n        /* \"#utility.yul\":1011:1018   */\n      dup6\n        /* \"#utility.yul\":1002:1008   */\n      dup3\n        /* \"#utility.yul\":991:1000   */\n      dup7\n        /* \"#utility.yul\":987:1009   */\n      add\n        /* \"#utility.yul\":966:1019   */\n      tag_20\n      jump\t// in\n    tag_37:\n        /* \"#utility.yul\":956:1019   */\n      swap3\n      pop\n        /* \"#utility.yul\":912:1029   */\n      pop\n        /* \"#utility.yul\":1068:1070   */\n      0x20\n        /* \"#utility.yul\":1094:1147   */\n      tag_38\n        /* \"#utility.yul\":1139:1146   */\n      dup6\n        /* \"#utility.yul\":1130:1136   */\n      dup3\n        /* \"#utility.yul\":1119:1128   */\n      dup7\n        /* \"#utility.yul\":1115:1137   */\n      add\n        /* \"#utility.yul\":1094:1147   */\n      tag_20\n      jump\t// in\n    tag_38:\n        /* \"#utility.yul\":1084:1147   */\n      swap2\n      pop\n        /* \"#utility.yul\":1039:1157   */\n      pop\n        /* \"#utility.yul\":690:1164   */\n      swap3\n      pop\n      swap3\n      swap1\n      pop\n      jump\t// out\n        /* \"#utility.yul\":1170:1260   */\n    tag_21:\n        /* \"#utility.yul\":1204:1211   */\n      0x00\n        /* \"#utility.yul\":1247:1252   */\n      dup2\n        /* \"#utility.yul\":1240:1253   */\n      iszero\n        /* \"#utility.yul\":1233:1254   */\n      iszero\n        /* \"#utility.yul\":1222:1254   */\n      swap1\n      pop\n        /* \"#utility.yul\":1170:1260   */\n      swap2\n      swap1\n      pop\n      jump\t// out\n        /* \"#utility.yul\":1266:1375   */\n    tag_22:\n        /* \"#utility.yul\":1347:1368   */\n      tag_41\n        /* \"#utility.yul\":1362:1367   */\n      dup2\n        /* \"#utility.yul\":1347:1368   */\n      tag_21\n      jump\t// in\n    tag_41:\n        /* \"#utility.yul\":1342:1345   */\n      dup3\n        /* \"#utility.yul\":1335:1369   */\n      mstore\n        /* \"#utility.yul\":1266:1375   */\n      pop\n      pop\n      jump\t// out\n        /* \"#utility.yul\":1381:1591   */\n    tag_9:\n        /* \"#utility.yul\":1468:1472   */\n      0x00\n        /* \"#utility.yul\":1506:1508   */\n      0x20\n        /* \"#utility.yul\":1495:1504   */\n      dup3\n        /* \"#utility.yul\":1491:1509   */\n      add\n        /* \"#utility.yul\":1483:1509   */\n      swap1\n      pop\n        /* \"#utility.yul\":1519:1584   */\n      tag_43\n        /* \"#utility.yul\":1581:1582   */\n      0x00\n        /* \"#utility.yul\":1570:1579   */\n      dup4\n        /* \"#utility.yul\":1566:1583   */\n      add\n        /* \"#utility.yul\":1557:1563   */\n      dup5\n        /* \"#utility.yul\":1519:1584   */\n      tag_22\n      jump\t// in\n    tag_43:\n        /* \"#utility.yul\":1381:1591   */\n      swap3\n      swap2\n      pop\n      pop\n      jump\t// out\n        /* \"#utility.yul\":1597:1777   */\n    tag_23:\n        /* \"#utility.yul\":1645:1722   */\n      0x4e487b7100000000000000000000000000000000000000000000000000000000\n        /* \"#utility.yul\":1642:1643   */\n      0x00\n        /* \"#utility.yul\":1635:1723   */\n      mstore\n        /* \"#utility.yul\":1742:1746   */\n      0x12\n        /* \"#utility.yul\":1739:1740   */\n      0x04\n        /* \"#utility.yul\":1732:1747   */\n      mstore\n        /* \"#utility.yul\":1766:1770   */\n      0x24\n        /* \"#utility.yul\":1763:1764   */\n      0x00\n        /* \"#utility.yul\":1756:1771   */\n      revert\n        /* \"#utility.yul\":1783:1959   */\n    tag_12:\n        /* \"#utility.yul\":1815:1816   */\n      0x00\n        /* \"#utility.yul\":1832:1852   */\n      tag_46\n        /* \"#utility.yul\":1850:1851   */\n      dup3\n        /* \"#utility.yul\":1832:1852   */\n      tag_18\n      jump\t// in\n    tag_46:\n        /* \"#utility.yul\":1827:1852   */\n      swap2\n      pop\n        /* \"#utility.yul\":1866:1886   */\n      tag_47\n        /* \"#utility.yul\":1884:1885   */\n      dup4\n        /* \"#utility.yul\":1866:1886   */\n      tag_18\n      jump\t// in\n    tag_47:\n        /* \"#utility.yul\":1861:1886   */\n      swap3\n      pop\n        /* \"#utility.yul\":1905:1906   */\n      dup3\n        /* \"#utility.yul\":1895:1930   */\n      tag_48\n      jumpi\n        /* \"#utility.yul\":1910:1928   */\n      tag_49\n      tag_23\n      jump\t// in\n    tag_49:\n        /* \"#utility.yul\":1895:1930   */\n    tag_48:\n        /* \"#utility.yul\":1951:1952   */\n      dup3\n        /* \"#utility.yul\":1948:1949   */\n      dup3\n        /* \"#utility.yul\":1944:1953   */\n      mod\n        /* \"#utility.yul\":1939:1953   */\n      swap1\n      pop\n        /* \"#utility.yul\":1783:1959   */\n      swap3\n      swap2\n      pop\n      pop\n      jump\t// out\n\n    auxdata: 0xa2646970667358221220c2cdaf64e81c6b03f89286526167dc01b48284dc71cee9b971a579e1bbc0586864736f6c63430008110033\n}\n",
				"bytecode": {
					"linkReferences": {},
					"object": "608060405234801561001057600080fd5b506101cf806100206000396000f3fe608060405234801561001057600080fd5b506004361061002b5760003560e01c806336e94be514610030575b600080fd5b61004a600480360381019061004591906100c3565b610060565b604051610057919061011e565b60405180910390f35b600080828461006f9190610168565b0361007d5760019050610082565b600090505b92915050565b600080fd5b6000819050919050565b6100a08161008d565b81146100ab57600080fd5b50565b6000813590506100bd81610097565b92915050565b600080604083850312156100da576100d9610088565b5b60006100e8858286016100ae565b92505060206100f9858286016100ae565b9150509250929050565b60008115159050919050565b61011881610103565b82525050565b6000602082019050610133600083018461010f565b92915050565b7f4e487b7100000000000000000000000000000000000000000000000000000000600052601260045260246000fd5b60006101738261008d565b915061017e8361008d565b92508261018e5761018d610139565b5b82820690509291505056fea2646970667358221220c2cdaf64e81c6b03f89286526167dc01b48284dc71cee9b971a579e1bbc0586864736f6c63430008110033",
					"opcodes": "PUSH1 0x80 PUSH1 0x40 MSTORE CALLVALUE DUP1 ISZERO PUSH2 0x10 JUMPI PUSH1 0x0 DUP1 REVERT JUMPDEST POP PUSH2 0x1CF DUP1 PUSH2 0x20 PUSH1 0x0 CODECOPY PUSH1 0x0 RETURN INVALID PUSH1 0x80 PUSH1 0x40 MSTORE CALLVALUE DUP1 ISZERO PUSH2 0x10 JUMPI PUSH1 0x0 DUP1 REVERT JUMPDEST POP PUSH1 0x4 CALLDATASIZE LT PUSH2 0x2B JUMPI PUSH1 0x0 CALLDATALOAD PUSH1 0xE0 SHR DUP1 PUSH4 0x36E94BE5 EQ PUSH2 0x30 JUMPI JUMPDEST PUSH1 0x0 DUP1 REVERT JUMPDEST PUSH2 0x4A PUSH1 0x4 DUP1 CALLDATASIZE SUB DUP2 ADD SWAP1 PUSH2 0x45 SWAP2 SWAP1 PUSH2 0xC3 JUMP JUMPDEST PUSH2 0x60 JUMP JUMPDEST PUSH1 0x40 MLOAD PUSH2 0x57 SWAP2 SWAP1 PUSH2 0x11E JUMP JUMPDEST PUSH1 0x40 MLOAD DUP1 SWAP2 SUB SWAP1 RETURN JUMPDEST PUSH1 0x0 DUP1 DUP3 DUP5 PUSH2 0x6F SWAP2 SWAP1 PUSH2 0x168 JUMP JUMPDEST SUB PUSH2 0x7D JUMPI PUSH1 0x1 SWAP1 POP PUSH2 0x82 JUMP JUMPDEST PUSH1 0x0 SWAP1 POP JUMPDEST SWAP3 SWAP2 POP POP JUMP JUMPDEST PUSH1 0x0 DUP1 REVERT JUMPDEST PUSH1 0x0 DUP2 SWAP1 POP SWAP2 SWAP1 POP JUMP JUMPDEST PUSH2 0xA0 DUP2 PUSH2 0x8D JUMP JUMPDEST DUP2 EQ PUSH2 0xAB JUMPI PUSH1 0x0 DUP1 REVERT JUMPDEST POP JUMP JUMPDEST PUSH1 0x0 DUP2 CALLDATALOAD SWAP1 POP PUSH2 0xBD DUP2 PUSH2 0x97 JUMP JUMPDEST SWAP3 SWAP2 POP POP JUMP JUMPDEST PUSH1 0x0 DUP1 PUSH1 0x40 DUP4 DUP6 SUB SLT ISZERO PUSH2 0xDA JUMPI PUSH2 0xD9 PUSH2 0x88 JUMP JUMPDEST JUMPDEST PUSH1 0x0 PUSH2 0xE8 DUP6 DUP3 DUP7 ADD PUSH2 0xAE JUMP JUMPDEST SWAP3 POP POP PUSH1 0x20 PUSH2 0xF9 DUP6 DUP3 DUP7 ADD PUSH2 0xAE JUMP JUMPDEST SWAP2 POP POP SWAP3 POP SWAP3 SWAP1 POP JUMP JUMPDEST PUSH1 0x0 DUP2 ISZERO ISZERO SWAP1 POP SWAP2 SWAP1 POP JUMP JUMPDEST PUSH2 0x118 DUP2 PUSH2 0x103 JUMP JUMPDEST DUP3 MSTORE POP POP JUMP JUMPDEST PUSH1 0x0 PUSH1 0x20 DUP3 ADD SWAP1 POP PUSH2 0x133 PUSH1 0x0 DUP4 ADD DUP5 PUSH2 0x10F JUMP JUMPDEST SWAP3 SWAP2 POP POP JUMP JUMPDEST PUSH32 0x4E487B7100000000000000000000000000000000000000000000000000000000 PUSH1 0x0 MSTORE PUSH1 0x12 PUSH1 0x4 MSTORE PUSH1 0x24 PUSH1 0x0 REVERT JUMPDEST PUSH1 0x0 PUSH2 0x173 DUP3 PUSH2 0x8D JUMP JUMPDEST SWAP2 POP PUSH2 0x17E DUP4 PUSH2 0x8D JUMP JUMPDEST SWAP3 POP DUP3 PUSH2 0x18E JUMPI PUSH2 0x18D PUSH2 0x139 JUMP JUMPDEST JUMPDEST DUP3 DUP3 MOD SWAP1 POP SWAP3 SWAP2 POP POP JUMP INVALID LOG2 PUSH5 0x6970667358 0x22 SLT KECCAK256 0xC2 0xCD 0xAF PUSH5 0xE81C6B03F8 SWAP3 DUP7 MSTORE PUSH2 0x67DC ADD 0xB4 DUP3 DUP5 0xDC PUSH18 0xCEE9B971A579E1BBC0586864736F6C634300 ADDMOD GT STOP CALLER "
				},
				"gasEstimates": {
					"creation": {
						"codeDepositCost": "92600",
						"executionCost": "141",
						"totalCost": "92741"
					},
					"external": {
						"checkMultiples(uint256,uint256)": "infinite"
					}
				},
				"methodIdentifiers": {
					"checkMultiples(uint256,uint256)": "36e94be5"
				}
			},
			"storageLayout": {
				"storage": [],
				"types": null
			},
			"userdoc": {
				"kind": "user",
				"methods": {},
				"version": 1
			}
		}
	}
}