{
	"loop.sol": {
		"loopContract": {
			"abi": [
				{
					"inputs": [
						{
							"internalType": "uint256",
							"name": "_number",
							"type": "uint256"
						}
					],
					"name": "checkMultiples",
					"outputs": [
						{
							"internalType": "uint256",
							"name": "",
							"type": "uint256"
						}
					],
					"stateMutability": "view",
					"type": "function"
				},
				{
					"inputs": [
						{
							"internalType": "uint256",
							"name": "",
							"type": "uint256"
						}
					],
					"name": "numberList",
					"outputs": [
						{
							"internalType": "uint256",
							"name": "",
							"type": "uint256"
						}
					],
					"stateMutability": "view",
					"type": "function"
				}
			],
			"devdoc": {
				"kind": "dev",
				"methods": {},
				"version": 1
			},
			"evm": {
				"assembly": "    /* \"loop.sol\":70:590  contract loopContract... */\n  mstore(0x40, 0x80)\n    /* \"loop.sol\":141:188  uint[] public numberList=[1,2,3,4,5,6,7,8,9,10] */\n  mload(0x40)\n  dup1\n  0x0140\n  add\n  0x40\n  mstore\n  dup1\n    /* \"loop.sol\":167:168  1 */\n  0x01\n    /* \"loop.sol\":141:188  uint[] public numberList=[1,2,3,4,5,6,7,8,9,10] */\n  0xff\n  and\n  dup2\n  mstore\n  0x20\n  add\n    /* \"loop.sol\":169:170  2 */\n  0x02\n    /* \"loop.sol\":141:188  uint[] public numberList=[1,2,3,4,5,6,7,8,9,10] */\n  0xff\n  and\n  dup2\n  mstore\n  0x20\n  add\n    /* \"loop.sol\":171:172  3 */\n  0x03\n    /* \"loop.sol\":141:188  uint[] public numberList=[1,2,3,4,5,6,7,8,9,10] */\n  0xff\n  and\n  dup2\n  mstore\n  0x20\n  add\n    /* \"loop.sol\":173:174  4 */\n  0x04\n    /* \"loop.sol\":141:188  uint[] public numberList=[1,2,3,4,5,6,7,8,9,10] */\n  0xff\n  and\n  dup2\n  mstore\n  0x20\n  add\n    /* \"loop.sol\":175:176  5 */\n  0x05\n    /* \"loop.sol\":141:188  uint[] public numberList=[1,2,3,4,5,6,7,8,9,10] */\n  0xff\n  and\n  dup2\n  mstore\n  0x20\n  add\n    /* \"loop.sol\":177:178  6 */\n  0x06\n    /* \"loop.sol\":141:188  uint[] public numberList=[1,2,3,4,5,6,7,8,9,10] */\n  0xff\n  and\n  dup2\n  mstore\n  0x20\n  add\n    /* \"loop.sol\":179:180  7 */\n  0x07\n    /* \"loop.sol\":141:188  uint[] public numberList=[1,2,3,4,5,6,7,8,9,10] */\n  0xff\n  and\n  dup2\n  mstore\n  0x20\n  add\n    /* \"loop.sol\":181:182  8 */\n  0x08\n    /* \"loop.sol\":141:188  uint[] public numberList=[1,2,3,4,5,6,7,8,9,10] */\n  0xff\n  and\n  dup2\n  mstore\n  0x20\n  add\n    /* \"loop.sol\":183:184  9 */\n  0x09\n    /* \"loop.sol\":141:188  uint[] public numberList=[1,2,3,4,5,6,7,8,9,10] */\n  0xff\n  and\n  dup2\n  mstore\n  0x20\n  add\n    /* \"loop.sol\":185:187  10 */\n  0x0a\n    /* \"loop.sol\":141:188  uint[] public numberList=[1,2,3,4,5,6,7,8,9,10] */\n  0xff\n  and\n  dup2\n  mstore\n  pop\n  0x00\n  swap1\n  0x0a\n  tag_1\n  swap3\n  swap2\n  swap1\n  tag_2\n  jump\t// in\ntag_1:\n  pop\n    /* \"loop.sol\":70:590  contract loopContract... */\n  callvalue\n  dup1\n  iszero\n  tag_3\n  jumpi\n  0x00\n  dup1\n  revert\ntag_3:\n  pop\n  jump(tag_4)\ntag_2:\n  dup3\n  dup1\n  sload\n  dup3\n  dup3\n  sstore\n  swap1\n  0x00\n  mstore\n  keccak256(0x00, 0x20)\n  swap1\n  dup2\n  add\n  swap3\n  dup3\n  iszero\n  tag_5\n  jumpi\n  swap2\n  0x20\n  mul\n  dup3\n  add\ntag_6:\n  dup3\n  dup2\n  gt\n  iszero\n  tag_7\n  jumpi\n  dup3\n  mload\n  dup3\n  swap1\n  0xff\n  and\n  swap1\n  sstore\n  swap2\n  0x20\n  add\n  swap2\n  swap1\n  0x01\n  add\n  swap1\n  jump(tag_6)\ntag_7:\ntag_5:\n  pop\n  swap1\n  pop\n  tag_8\n  swap2\n  swap1\n  tag_9\n  jump\t// in\ntag_8:\n  pop\n  swap1\n  jump\t// out\ntag_9:\ntag_10:\n  dup1\n  dup3\n  gt\n  iszero\n  tag_11\n  jumpi\n  0x00\n  dup2\n  0x00\n  swap1\n  sstore\n  pop\n  0x01\n  add\n  jump(tag_10)\ntag_11:\n  pop\n  swap1\n  jump\t// out\ntag_4:\n  dataSize(sub_0)\n  dup1\n  dataOffset(sub_0)\n  0x00\n  codecopy\n  0x00\n  return\nstop\n\nsub_0: assembly {\n        /* \"loop.sol\":70:590  contract loopContract... */\n      mstore(0x40, 0x80)\n      callvalue\n      dup1\n      iszero\n      tag_1\n      jumpi\n      0x00\n      dup1\n      revert\n    tag_1:\n      pop\n      jumpi(tag_2, lt(calldatasize, 0x04))\n      shr(0xe0, calldataload(0x00))\n      dup1\n      0x16421dbf\n      eq\n      tag_3\n      jumpi\n      dup1\n      0x46c0d4d2\n      eq\n      tag_4\n      jumpi\n    tag_2:\n      0x00\n      dup1\n      revert\n        /* \"loop.sol\":141:188  uint[] public numberList=[1,2,3,4,5,6,7,8,9,10] */\n    tag_3:\n      tag_5\n      0x04\n      dup1\n      calldatasize\n      sub\n      dup2\n      add\n      swap1\n      tag_6\n      swap2\n      swap1\n      tag_7\n      jump\t// in\n    tag_6:\n      tag_8\n      jump\t// in\n    tag_5:\n      mload(0x40)\n      tag_9\n      swap2\n      swap1\n      tag_10\n      jump\t// in\n    tag_9:\n      mload(0x40)\n      dup1\n      swap2\n      sub\n      swap1\n      return\n        /* \"loop.sol\":280:588  function checkMultiples(uint _number) public view returns(uint)... */\n    tag_4:\n      tag_11\n      0x04\n      dup1\n      calldatasize\n      sub\n      dup2\n      add\n      swap1\n      tag_12\n      swap2\n      swap1\n      tag_7\n      jump\t// in\n    tag_12:\n      tag_13\n      jump\t// in\n    tag_11:\n      mload(0x40)\n      tag_14\n      swap2\n      swap1\n      tag_10\n      jump\t// in\n    tag_14:\n      mload(0x40)\n      dup1\n      swap2\n      sub\n      swap1\n      return\n        /* \"loop.sol\":141:188  uint[] public numberList=[1,2,3,4,5,6,7,8,9,10] */\n    tag_8:\n      0x00\n      dup2\n      dup2\n      sload\n      dup2\n      lt\n      tag_15\n      jumpi\n      0x00\n      dup1\n      revert\n    tag_15:\n      swap1\n      0x00\n      mstore\n      keccak256(0x00, 0x20)\n      add\n      0x00\n      swap2\n      pop\n      swap1\n      pop\n      sload\n      dup2\n      jump\t// out\n        /* \"loop.sol\":280:588  function checkMultiples(uint _number) public view returns(uint)... */\n    tag_13:\n        /* \"loop.sol\":338:342  uint */\n      0x00\n        /* \"loop.sol\":359:369  uint count */\n      dup1\n        /* \"loop.sol\":370:371  0 */\n      0x00\n        /* \"loop.sol\":359:371  uint count=0 */\n      swap1\n      pop\n        /* \"loop.sol\":388:394  uint i */\n      0x00\n        /* \"loop.sol\":384:557  for(uint i=0;i<numberList.length;i++)... */\n    tag_18:\n        /* \"loop.sol\":399:409  numberList */\n      0x00\n        /* \"loop.sol\":399:416  numberList.length */\n      dup1\n      sload\n      swap1\n      pop\n        /* \"loop.sol\":397:398  i */\n      dup2\n        /* \"loop.sol\":397:416  i<numberList.length */\n      lt\n        /* \"loop.sol\":384:557  for(uint i=0;i<numberList.length;i++)... */\n      iszero\n      tag_19\n      jumpi\n        /* \"loop.sol\":477:478  0 */\n      0x00\n        /* \"loop.sol\":468:475  _number */\n      dup5\n        /* \"loop.sol\":454:464  numberList */\n      0x00\n        /* \"loop.sol\":465:466  i */\n      dup4\n        /* \"loop.sol\":454:467  numberList[i] */\n      dup2\n      sload\n      dup2\n      lt\n      tag_21\n      jumpi\n      tag_22\n      tag_23\n      jump\t// in\n    tag_22:\n    tag_21:\n      swap1\n      0x00\n      mstore\n      keccak256(0x00, 0x20)\n      add\n      sload\n        /* \"loop.sol\":454:475  numberList[i]%_number */\n      tag_25\n      swap2\n      swap1\n      tag_26\n      jump\t// in\n    tag_25:\n        /* \"loop.sol\":454:478  numberList[i]%_number==0 */\n      sub\n        /* \"loop.sol\":451:544  if(numberList[i]%_number==0)... */\n      tag_27\n      jumpi\n        /* \"loop.sol\":518:525  count++ */\n      dup2\n      dup1\n      tag_28\n      swap1\n      tag_29\n      jump\t// in\n    tag_28:\n      swap3\n      pop\n      pop\n        /* \"loop.sol\":451:544  if(numberList[i]%_number==0)... */\n    tag_27:\n        /* \"loop.sol\":417:420  i++ */\n      dup1\n      dup1\n      tag_30\n      swap1\n      tag_29\n      jump\t// in\n    tag_30:\n      swap2\n      pop\n      pop\n        /* \"loop.sol\":384:557  for(uint i=0;i<numberList.length;i++)... */\n      jump(tag_18)\n    tag_19:\n      pop\n        /* \"loop.sol\":576:581  count */\n      dup1\n        /* \"loop.sol\":569:581  return count */\n      swap2\n      pop\n      pop\n        /* \"loop.sol\":280:588  function checkMultiples(uint _number) public view returns(uint)... */\n      swap2\n      swap1\n      pop\n      jump\t// out\n        /* \"#utility.yul\":88:205   */\n    tag_32:\n        /* \"#utility.yul\":197:198   */\n      0x00\n        /* \"#utility.yul\":194:195   */\n      dup1\n        /* \"#utility.yul\":187:199   */\n      revert\n        /* \"#utility.yul\":334:411   */\n    tag_34:\n        /* \"#utility.yul\":371:378   */\n      0x00\n        /* \"#utility.yul\":400:405   */\n      dup2\n        /* \"#utility.yul\":389:405   */\n      swap1\n      pop\n        /* \"#utility.yul\":334:411   */\n      swap2\n      swap1\n      pop\n      jump\t// out\n        /* \"#utility.yul\":417:539   */\n    tag_35:\n        /* \"#utility.yul\":490:514   */\n      tag_46\n        /* \"#utility.yul\":508:513   */\n      dup2\n        /* \"#utility.yul\":490:514   */\n      tag_34\n      jump\t// in\n    tag_46:\n        /* \"#utility.yul\":483:488   */\n      dup2\n        /* \"#utility.yul\":480:515   */\n      eq\n        /* \"#utility.yul\":470:533   */\n      tag_47\n      jumpi\n        /* \"#utility.yul\":529:530   */\n      0x00\n        /* \"#utility.yul\":526:527   */\n      dup1\n        /* \"#utility.yul\":519:531   */\n      revert\n        /* \"#utility.yul\":470:533   */\n    tag_47:\n        /* \"#utility.yul\":417:539   */\n      pop\n      jump\t// out\n        /* \"#utility.yul\":545:684   */\n    tag_36:\n        /* \"#utility.yul\":591:596   */\n      0x00\n        /* \"#utility.yul\":629:635   */\n      dup2\n        /* \"#utility.yul\":616:636   */\n      calldataload\n        /* \"#utility.yul\":607:636   */\n      swap1\n      pop\n        /* \"#utility.yul\":645:678   */\n      tag_49\n        /* \"#utility.yul\":672:677   */\n      dup2\n        /* \"#utility.yul\":645:678   */\n      tag_35\n      jump\t// in\n    tag_49:\n        /* \"#utility.yul\":545:684   */\n      swap3\n      swap2\n      pop\n      pop\n      jump\t// out\n        /* \"#utility.yul\":690:1019   */\n    tag_7:\n        /* \"#utility.yul\":749:755   */\n      0x00\n        /* \"#utility.yul\":798:800   */\n      0x20\n        /* \"#utility.yul\":786:795   */\n      dup3\n        /* \"#utility.yul\":777:784   */\n      dup5\n        /* \"#utility.yul\":773:796   */\n      sub\n        /* \"#utility.yul\":769:801   */\n      slt\n        /* \"#utility.yul\":766:885   */\n      iszero\n      tag_51\n      jumpi\n        /* \"#utility.yul\":804:883   */\n      tag_52\n      tag_32\n      jump\t// in\n    tag_52:\n        /* \"#utility.yul\":766:885   */\n    tag_51:\n        /* \"#utility.yul\":924:925   */\n      0x00\n        /* \"#utility.yul\":949:1002   */\n      tag_53\n        /* \"#utility.yul\":994:1001   */\n      dup5\n        /* \"#utility.yul\":985:991   */\n      dup3\n        /* \"#utility.yul\":974:983   */\n      dup6\n        /* \"#utility.yul\":970:992   */\n      add\n        /* \"#utility.yul\":949:1002   */\n      tag_36\n      jump\t// in\n    tag_53:\n        /* \"#utility.yul\":939:1002   */\n      swap2\n      pop\n        /* \"#utility.yul\":895:1012   */\n      pop\n        /* \"#utility.yul\":690:1019   */\n      swap3\n      swap2\n      pop\n      pop\n      jump\t// out\n        /* \"#utility.yul\":1025:1143   */\n    tag_37:\n        /* \"#utility.yul\":1112:1136   */\n      tag_55\n        /* \"#utility.yul\":1130:1135   */\n      dup2\n        /* \"#utility.yul\":1112:1136   */\n      tag_34\n      jump\t// in\n    tag_55:\n        /* \"#utility.yul\":1107:1110   */\n      dup3\n        /* \"#utility.yul\":1100:1137   */\n      mstore\n        /* \"#utility.yul\":1025:1143   */\n      pop\n      pop\n      jump\t// out\n        /* \"#utility.yul\":1149:1371   */\n    tag_10:\n        /* \"#utility.yul\":1242:1246   */\n      0x00\n        /* \"#utility.yul\":1280:1282   */\n      0x20\n        /* \"#utility.yul\":1269:1278   */\n      dup3\n        /* \"#utility.yul\":1265:1283   */\n      add\n        /* \"#utility.yul\":1257:1283   */\n      swap1\n      pop\n        /* \"#utility.yul\":1293:1364   */\n      tag_57\n        /* \"#utility.yul\":1361:1362   */\n      0x00\n        /* \"#utility.yul\":1350:1359   */\n      dup4\n        /* \"#utility.yul\":1346:1363   */\n      add\n        /* \"#utility.yul\":1337:1343   */\n      dup5\n        /* \"#utility.yul\":1293:1364   */\n      tag_37\n      jump\t// in\n    tag_57:\n        /* \"#utility.yul\":1149:1371   */\n      swap3\n      swap2\n      pop\n      pop\n      jump\t// out\n        /* \"#utility.yul\":1377:1557   */\n    tag_23:\n        /* \"#utility.yul\":1425:1502   */\n      0x4e487b7100000000000000000000000000000000000000000000000000000000\n        /* \"#utility.yul\":1422:1423   */\n      0x00\n        /* \"#utility.yul\":1415:1503   */\n      mstore\n        /* \"#utility.yul\":1522:1526   */\n      0x32\n        /* \"#utility.yul\":1519:1520   */\n      0x04\n        /* \"#utility.yul\":1512:1527   */\n      mstore\n        /* \"#utility.yul\":1546:1550   */\n      0x24\n        /* \"#utility.yul\":1543:1544   */\n      0x00\n        /* \"#utility.yul\":1536:1551   */\n      revert\n        /* \"#utility.yul\":1563:1743   */\n    tag_38:\n        /* \"#utility.yul\":1611:1688   */\n      0x4e487b7100000000000000000000000000000000000000000000000000000000\n        /* \"#utility.yul\":1608:1609   */\n      0x00\n        /* \"#utility.yul\":1601:1689   */\n      mstore\n        /* \"#utility.yul\":1708:1712   */\n      0x12\n        /* \"#utility.yul\":1705:1706   */\n      0x04\n        /* \"#utility.yul\":1698:1713   */\n      mstore\n        /* \"#utility.yul\":1732:1736   */\n      0x24\n        /* \"#utility.yul\":1729:1730   */\n      0x00\n        /* \"#utility.yul\":1722:1737   */\n      revert\n        /* \"#utility.yul\":1749:1925   */\n    tag_26:\n        /* \"#utility.yul\":1781:1782   */\n      0x00\n        /* \"#utility.yul\":1798:1818   */\n      tag_61\n        /* \"#utility.yul\":1816:1817   */\n      dup3\n        /* \"#utility.yul\":1798:1818   */\n      tag_34\n      jump\t// in\n    tag_61:\n        /* \"#utility.yul\":1793:1818   */\n      swap2\n      pop\n        /* \"#utility.yul\":1832:1852   */\n      tag_62\n        /* \"#utility.yul\":1850:1851   */\n      dup4\n        /* \"#utility.yul\":1832:1852   */\n      tag_34\n      jump\t// in\n    tag_62:\n        /* \"#utility.yul\":1827:1852   */\n      swap3\n      pop\n        /* \"#utility.yul\":1871:1872   */\n      dup3\n        /* \"#utility.yul\":1861:1896   */\n      tag_63\n      jumpi\n        /* \"#utility.yul\":1876:1894   */\n      tag_64\n      tag_38\n      jump\t// in\n    tag_64:\n        /* \"#utility.yul\":1861:1896   */\n    tag_63:\n        /* \"#utility.yul\":1917:1918   */\n      dup3\n        /* \"#utility.yul\":1914:1915   */\n      dup3\n        /* \"#utility.yul\":1910:1919   */\n      mod\n        /* \"#utility.yul\":1905:1919   */\n      swap1\n      pop\n        /* \"#utility.yul\":1749:1925   */\n      swap3\n      swap2\n      pop\n      pop\n      jump\t// out\n        /* \"#utility.yul\":1931:2111   */\n    tag_39:\n        /* \"#utility.yul\":1979:2056   */\n      0x4e487b7100000000000000000000000000000000000000000000000000000000\n        /* \"#utility.yul\":1976:1977   */\n      0x00\n        /* \"#utility.yul\":1969:2057   */\n      mstore\n        /* \"#utility.yul\":2076:2080   */\n      0x11\n        /* \"#utility.yul\":2073:2074   */\n      0x04\n        /* \"#utility.yul\":2066:2081   */\n      mstore\n        /* \"#utility.yul\":2100:2104   */\n      0x24\n        /* \"#utility.yul\":2097:2098   */\n      0x00\n        /* \"#utility.yul\":2090:2105   */\n      revert\n        /* \"#utility.yul\":2117:2350   */\n    tag_29:\n        /* \"#utility.yul\":2156:2159   */\n      0x00\n        /* \"#utility.yul\":2179:2203   */\n      tag_67\n        /* \"#utility.yul\":2197:2202   */\n      dup3\n        /* \"#utility.yul\":2179:2203   */\n      tag_34\n      jump\t// in\n    tag_67:\n        /* \"#utility.yul\":2170:2203   */\n      swap2\n      pop\n        /* \"#utility.yul\":2225:2291   */\n      0xffffffffffffffffffffffffffffffffffffffffffffffffffffffffffffffff\n        /* \"#utility.yul\":2218:2223   */\n      dup3\n        /* \"#utility.yul\":2215:2292   */\n      sub\n        /* \"#utility.yul\":2212:2315   */\n      tag_68\n      jumpi\n        /* \"#utility.yul\":2295:2313   */\n      tag_69\n      tag_39\n      jump\t// in\n    tag_69:\n        /* \"#utility.yul\":2212:2315   */\n    tag_68:\n        /* \"#utility.yul\":2342:2343   */\n      0x01\n        /* \"#utility.yul\":2335:2340   */\n      dup3\n        /* \"#utility.yul\":2331:2344   */\n      add\n        /* \"#utility.yul\":2324:2344   */\n      swap1\n      pop\n        /* \"#utility.yul\":2117:2350   */\n      swap2\n      swap1\n      pop\n      jump\t// out\n\n    auxdata: 0xa26469706673582212203473724c80ade916995dcd942f4c03729befe29515a9c8091812f9a0ceed5be464736f6c63430008110033\n}\n",
				"bytecode": {
					"linkReferences": {},
					"object": "6080604052604051806101400160405280600160ff168152602001600260ff168152602001600360ff168152602001600460ff168152602001600560ff168152602001600660ff168152602001600760ff168152602001600860ff168152602001600960ff168152602001600a60ff16815250600090600a610082929190610095565b5034801561008f57600080fd5b50610104565b8280548282559060005260206000209081019282156100d6579160200282015b828111156100d5578251829060ff169055916020019190600101906100b5565b5b5090506100e391906100e7565b5090565b5b808211156101005760008160009055506001016100e8565b5090565b610301806101136000396000f3fe608060405234801561001057600080fd5b50600436106100365760003560e01c806316421dbf1461003b57806346c0d4d21461006b575b600080fd5b6100556004803603810190610050919061016e565b61009b565b60405161006291906101aa565b60405180910390f35b6100856004803603810190610080919061016e565b6100bf565b60405161009291906101aa565b60405180910390f35b600081815481106100ab57600080fd5b906000526020600020016000915090505481565b6000806000905060005b60008054905081101561012957600084600083815481106100ed576100ec6101c5565b5b90600052602060002001546101029190610223565b0361011657818061011290610283565b9250505b808061012190610283565b9150506100c9565b5080915050919050565b600080fd5b6000819050919050565b61014b81610138565b811461015657600080fd5b50565b60008135905061016881610142565b92915050565b60006020828403121561018457610183610133565b5b600061019284828501610159565b91505092915050565b6101a481610138565b82525050565b60006020820190506101bf600083018461019b565b92915050565b7f4e487b7100000000000000000000000000000000000000000000000000000000600052603260045260246000fd5b7f4e487b7100000000000000000000000000000000000000000000000000000000600052601260045260246000fd5b600061022e82610138565b915061023983610138565b925082610249576102486101f4565b5b828206905092915050565b7f4e487b7100000000000000000000000000000000000000000000000000000000600052601160045260246000fd5b600061028e82610138565b91507fffffffffffffffffffffffffffffffffffffffffffffffffffffffffffffffff82036102c0576102bf610254565b5b60018201905091905056fea26469706673582212203473724c80ade916995dcd942f4c03729befe29515a9c8091812f9a0ceed5be464736f6c63430008110033",
					"opcodes": "PUSH1 0x80 PUSH1 0x40 MSTORE PUSH1 0x40 MLOAD DUP1 PUSH2 0x140 ADD PUSH1 0x40 MSTORE DUP1 PUSH1 0x1 PUSH1 0xFF AND DUP2 MSTORE PUSH1 0x20 ADD PUSH1 0x2 PUSH1 0xFF AND DUP2 MSTORE PUSH1 0x20 ADD PUSH1 0x3 PUSH1 0xFF AND DUP2 MSTORE PUSH1 0x20 ADD PUSH1 0x4 PUSH1 0xFF AND DUP2 MSTORE PUSH1 0x20 ADD PUSH1 0x5 PUSH1 0xFF AND DUP2 MSTORE PUSH1 0x20 ADD PUSH1 0x6 PUSH1 0xFF AND DUP2 MSTORE PUSH1 0x20 ADD PUSH1 0x7 PUSH1 0xFF AND DUP2 MSTORE PUSH1 0x20 ADD PUSH1 0x8 PUSH1 0xFF AND DUP2 MSTORE PUSH1 0x20 ADD PUSH1 0x9 PUSH1 0xFF AND DUP2 MSTORE PUSH1 0x20 ADD PUSH1 0xA PUSH1 0xFF AND DUP2 MSTORE POP PUSH1 0x0 SWAP1 PUSH1 0xA PUSH2 0x82 SWAP3 SWAP2 SWAP1 PUSH2 0x95 JUMP JUMPDEST POP CALLVALUE DUP1 ISZERO PUSH2 0x8F JUMPI PUSH1 0x0 DUP1 REVERT JUMPDEST POP PUSH2 0x104 JUMP JUMPDEST DUP3 DUP1 SLOAD DUP3 DUP3 SSTORE SWAP1 PUSH1 0x0 MSTORE PUSH1 0x20 PUSH1 0x0 KECCAK256 SWAP1 DUP2 ADD SWAP3 DUP3 ISZERO PUSH2 0xD6 JUMPI SWAP2 PUSH1 0x20 MUL DUP3 ADD JUMPDEST DUP3 DUP2 GT ISZERO PUSH2 0xD5 JUMPI DUP3 MLOAD DUP3 SWAP1 PUSH1 0xFF AND SWAP1 SSTORE SWAP2 PUSH1 0x20 ADD SWAP2 SWAP1 PUSH1 0x1 ADD SWAP1 PUSH2 0xB5 JUMP JUMPDEST JUMPDEST POP SWAP1 POP PUSH2 0xE3 SWAP2 SWAP1 PUSH2 0xE7 JUMP JUMPDEST POP SWAP1 JUMP JUMPDEST JUMPDEST DUP1 DUP3 GT ISZERO PUSH2 0x100 JUMPI PUSH1 0x0 DUP2 PUSH1 0x0 SWAP1 SSTORE POP PUSH1 0x1 ADD PUSH2 0xE8 JUMP JUMPDEST POP SWAP1 JUMP JUMPDEST PUSH2 0x301 DUP1 PUSH2 0x113 PUSH1 0x0 CODECOPY PUSH1 0x0 RETURN INVALID PUSH1 0x80 PUSH1 0x40 MSTORE CALLVALUE DUP1 ISZERO PUSH2 0x10 JUMPI PUSH1 0x0 DUP1 REVERT JUMPDEST POP PUSH1 0x4 CALLDATASIZE LT PUSH2 0x36 JUMPI PUSH1 0x0 CALLDATALOAD PUSH1 0xE0 SHR DUP1 PUSH4 0x16421DBF EQ PUSH2 0x3B JUMPI DUP1 PUSH4 0x46C0D4D2 EQ PUSH2 0x6B JUMPI JUMPDEST PUSH1 0x0 DUP1 REVERT JUMPDEST PUSH2 0x55 PUSH1 0x4 DUP1 CALLDATASIZE SUB DUP2 ADD SWAP1 PUSH2 0x50 SWAP2 SWAP1 PUSH2 0x16E JUMP JUMPDEST PUSH2 0x9B JUMP JUMPDEST PUSH1 0x40 MLOAD PUSH2 0x62 SWAP2 SWAP1 PUSH2 0x1AA JUMP JUMPDEST PUSH1 0x40 MLOAD DUP1 SWAP2 SUB SWAP1 RETURN JUMPDEST PUSH2 0x85 PUSH1 0x4 DUP1 CALLDATASIZE SUB DUP2 ADD SWAP1 PUSH2 0x80 SWAP2 SWAP1 PUSH2 0x16E JUMP JUMPDEST PUSH2 0xBF JUMP JUMPDEST PUSH1 0x40 MLOAD PUSH2 0x92 SWAP2 SWAP1 PUSH2 0x1AA JUMP JUMPDEST PUSH1 0x40 MLOAD DUP1 SWAP2 SUB SWAP1 RETURN JUMPDEST PUSH1 0x0 DUP2 DUP2 SLOAD DUP2 LT PUSH2 0xAB JUMPI PUSH1 0x0 DUP1 REVERT JUMPDEST SWAP1 PUSH1 0x0 MSTORE PUSH1 0x20 PUSH1 0x0 KECCAK256 ADD PUSH1 0x0 SWAP2 POP SWAP1 POP SLOAD DUP2 JUMP JUMPDEST PUSH1 0x0 DUP1 PUSH1 0x0 SWAP1 POP PUSH1 0x0 JUMPDEST PUSH1 0x0 DUP1 SLOAD SWAP1 POP DUP2 LT ISZERO PUSH2 0x129 JUMPI PUSH1 0x0 DUP5 PUSH1 0x0 DUP4 DUP2 SLOAD DUP2 LT PUSH2 0xED JUMPI PUSH2 0xEC PUSH2 0x1C5 JUMP JUMPDEST JUMPDEST SWAP1 PUSH1 0x0 MSTORE PUSH1 0x20 PUSH1 0x0 KECCAK256 ADD SLOAD PUSH2 0x102 SWAP2 SWAP1 PUSH2 0x223 JUMP JUMPDEST SUB PUSH2 0x116 JUMPI DUP2 DUP1 PUSH2 0x112 SWAP1 PUSH2 0x283 JUMP JUMPDEST SWAP3 POP POP JUMPDEST DUP1 DUP1 PUSH2 0x121 SWAP1 PUSH2 0x283 JUMP JUMPDEST SWAP2 POP POP PUSH2 0xC9 JUMP JUMPDEST POP DUP1 SWAP2 POP POP SWAP2 SWAP1 POP JUMP JUMPDEST PUSH1 0x0 DUP1 REVERT JUMPDEST PUSH1 0x0 DUP2 SWAP1 POP SWAP2 SWAP1 POP JUMP JUMPDEST PUSH2 0x14B DUP2 PUSH2 0x138 JUMP JUMPDEST DUP2 EQ PUSH2 0x156 JUMPI PUSH1 0x0 DUP1 REVERT JUMPDEST POP JUMP JUMPDEST PUSH1 0x0 DUP2 CALLDATALOAD SWAP1 POP PUSH2 0x168 DUP2 PUSH2 0x142 JUMP JUMPDEST SWAP3 SWAP2 POP POP JUMP JUMPDEST PUSH1 0x0 PUSH1 0x20 DUP3 DUP5 SUB SLT ISZERO PUSH2 0x184 JUMPI PUSH2 0x183 PUSH2 0x133 JUMP JUMPDEST JUMPDEST PUSH1 0x0 PUSH2 0x192 DUP5 DUP3 DUP6 ADD PUSH2 0x159 JUMP JUMPDEST SWAP2 POP POP SWAP3 SWAP2 POP POP JUMP JUMPDEST PUSH2 0x1A4 DUP2 PUSH2 0x138 JUMP JUMPDEST DUP3 MSTORE POP POP JUMP JUMPDEST PUSH1 0x0 PUSH1 0x20 DUP3 ADD SWAP1 POP PUSH2 0x1BF PUSH1 0x0 DUP4 ADD DUP5 PUSH2 0x19B JUMP JUMPDEST SWAP3 SWAP2 POP POP JUMP JUMPDEST PUSH32 0x4E487B7100000000000000000000000000000000000000000000000000000000 PUSH1 0x0 MSTORE PUSH1 0x32 PUSH1 0x4 MSTORE PUSH1 0x24 PUSH1 0x0 REVERT JUMPDEST PUSH32 0x4E487B7100000000000000000000000000000000000000000000000000000000 PUSH1 0x0 MSTORE PUSH1 0x12 PUSH1 0x4 MSTORE PUSH1 0x24 PUSH1 0x0 REVERT JUMPDEST PUSH1 0x0 PUSH2 0x22E DUP3 PUSH2 0x138 JUMP JUMPDEST SWAP2 POP PUSH2 0x239 DUP4 PUSH2 0x138 JUMP JUMPDEST SWAP3 POP DUP3 PUSH2 0x249 JUMPI PUSH2 0x248 PUSH2 0x1F4 JUMP JUMPDEST JUMPDEST DUP3 DUP3 MOD SWAP1 POP SWAP3 SWAP2 POP POP JUMP JUMPDEST PUSH32 0x4E487B7100000000000000000000000000000000000000000000000000000000 PUSH1 0x0 MSTORE PUSH1 0x11 PUSH1 0x4 MSTORE PUSH1 0x24 PUSH1 0x0 REVERT JUMPDEST PUSH1 0x0 PUSH2 0x28E DUP3 PUSH2 0x138 JUMP JUMPDEST SWAP2 POP PUSH32 0xFFFFFFFFFFFFFFFFFFFFFFFFFFFFFFFFFFFFFFFFFFFFFFFFFFFFFFFFFFFFFFFF DUP3 SUB PUSH2 0x2C0 JUMPI PUSH2 0x2BF PUSH2 0x254 JUMP JUMPDEST JUMPDEST PUSH1 0x1 DUP3 ADD SWAP1 POP SWAP2 SWAP1 POP JUMP INVALID LOG2 PUSH5 0x6970667358 0x22 SLT KECCAK256 CALLVALUE PUSH20 0x724C80ADE916995DCD942F4C03729BEFE29515A9 0xC8 MULMOD XOR SLT 0xF9 LOG0 0xCE 0xED JUMPDEST 0xE4 PUSH5 0x736F6C6343 STOP ADDMOD GT STOP CALLER "
				},
				"gasEstimates": {
					"creation": {
						"codeDepositCost": "153800",
						"executionCost": "infinite",
						"totalCost": "infinite"
					},
					"external": {
						"checkMultiples(uint256)": "infinite",
						"numberList(uint256)": "infinite"
					}
				},
				"methodIdentifiers": {
					"checkMultiples(uint256)": "46c0d4d2",
					"numberList(uint256)": "16421dbf"
				}
			},
			"storageLayout": {
				"storage": [
					{
						"astId": 15,
						"contract": "loop.sol:loopContract",
						"label": "numberList",
						"offset": 0,
						"slot": "0",
						"type": "t_array(t_uint256)dyn_storage"
					}
				],
				"types": {
					"t_array(t_uint256)dyn_storage": {
						"base": "t_uint256",
						"encoding": "dynamic_array",
						"label": "uint256[]",
						"numberOfBytes": "32"
					},
					"t_uint256": {
						"encoding": "inplace",
						"label": "uint256",
						"numberOfBytes": "32"
					}
				}
			},
			"userdoc": {
				"kind": "user",
				"methods": {},
				"version": 1
			}
		}
	}
}