{
	"data": {
		"bytecode": {
			"linkReferences": {},
			"object": "608060405234801561001057600080fd5b5060d98061001f6000396000f3fe6080604052348015600f57600080fd5b506004361060285760003560e01c806316ada54714602d575b600080fd5b60336035565b005b603c801460435760426074565b5b610e10801460525760516074565b5b62015180801460625760616074565b5b62093a80801460725760716074565b5b565b7f4e487b7100000000000000000000000000000000000000000000000000000000600052600160045260246000fdfea2646970667358221220be2a09cc9ffac5bd29211315fa1b4899bb9fbc8689a87c514442a9b91d6160e064736f6c63430008110033",
			"opcodes": "PUSH1 0x80 PUSH1 0x40 MSTORE CALLVALUE DUP1 ISZERO PUSH2 0x10 JUMPI PUSH1 0x0 DUP1 REVERT JUMPDEST POP PUSH1 0xD9 DUP1 PUSH2 0x1F PUSH1 0x0 CODECOPY PUSH1 0x0 RETURN INVALID PUSH1 0x80 PUSH1 0x40 MSTORE CALLVALUE DUP1 ISZERO PUSH1 0xF JUMPI PUSH1 0x0 DUP1 REVERT JUMPDEST POP PUSH1 0x4 CALLDATASIZE LT PUSH1 0x28 JUMPI PUSH1 0x0 CALLDATALOAD PUSH1 0xE0 SHR DUP1 PUSH4 0x16ADA547 EQ PUSH1 0x2D JUMPI JUMPDEST PUSH1 0x0 DUP1 REVERT JUMPDEST PUSH1 0x33 PUSH1 0x35 JUMP JUMPDEST STOP JUMPDEST PUSH1 0x3C DUP1 EQ PUSH1 0x43 JUMPI PUSH1 0x42 PUSH1 0x74 JUMP JUMPDEST JUMPDEST PUSH2 0xE10 DUP1 EQ PUSH1 0x52 JUMPI PUSH1 0x51 PUSH1 0x74 JUMP JUMPDEST JUMPDEST PUSH3 0x15180 DUP1 EQ PUSH1 0x62 JUMPI PUSH1 0x61 PUSH1 0x74 JUMP JUMPDEST JUMPDEST PUSH3 0x93A80 DUP1 EQ PUSH1 0x72 JUMPI PUSH1 0x71 PUSH1 0x74 JUMP JUMPDEST JUMPDEST JUMP JUMPDEST PUSH32 0x4E487B7100000000000000000000000000000000000000000000000000000000 PUSH1 0x0 MSTORE PUSH1 0x1 PUSH1 0x4 MSTORE PUSH1 0x24 PUSH1 0x0 REVERT INVALID LOG2 PUSH5 0x6970667358 0x22 SLT KECCAK256 0xBE 0x2A MULMOD 0xCC SWAP16 STATICCALL 0xC5 0xBD 0x29 0x21 SGT ISZERO STATICCALL SHL BASEFEE SWAP10 0xBB SWAP16 0xBC DUP7 DUP10 0xA8 PUSH29 0x514442A9B91D6160E064736F6C63430008110033000000000000000000 "
		},
		"gasEstimates": {
			"creation": {
				"codeDepositCost": "43400",
				"executionCost": "93",
				"totalCost": "43493"
			},
			"external": {
				"time()": "214"
			}
		},
		"methodIdentifiers": {
			"time()": "16ada547"
		}
	},
	"abi": [
		{
			"inputs": [],
			"name": "time",
			"outputs": [],
			"stateMutability": "nonpayable",
			"type": "function"
		}
	]
}