{
	"data": {
		"bytecode": {
			"linkReferences": {},
			"object": "60806040526004600055600560015534801561001a57600080fd5b506102798061002a6000396000f3fe608060405234801561001057600080fd5b50600436106100365760003560e01c80632415d8201461003b578063d7dfa0dd14610059575b600080fd5b610043610077565b6040516100509190610123565b60405180910390f35b6100616100cf565b60405161006e9190610123565b60405180910390f35b6000806000905060006011905060006020905081811180156100995750808214155b156100c85780826100aa919061016d565b9250600081846100ba91906101de565b9050809450505050506100cc565b5050505b90565b600080600090506001546000541080156100eb57506004600054145b1561010357600154600054610100919061020f565b90505b8091505090565b6000819050919050565b61011d8161010a565b82525050565b60006020820190506101386000830184610114565b92915050565b7f4e487b7100000000000000000000000000000000000000000000000000000000600052601160045260246000fd5b60006101788261010a565b91506101838361010a565b92508282026101918161010a565b915082820484148315176101a8576101a761013e565b5b5092915050565b7f4e487b7100000000000000000000000000000000000000000000000000000000600052601260045260246000fd5b60006101e98261010a565b91506101f48361010a565b925082610204576102036101af565b5b828204905092915050565b600061021a8261010a565b91506102258361010a565b925082820190508082111561023d5761023c61013e565b5b9291505056fea26469706673582212208a494d0722d5750e035a9dbbeee1598eec7a18138e338b64938b100f98014d5564736f6c63430008110033",
			"opcodes": "PUSH1 0x80 PUSH1 0x40 MSTORE PUSH1 0x4 PUSH1 0x0 SSTORE PUSH1 0x5 PUSH1 0x1 SSTORE CALLVALUE DUP1 ISZERO PUSH2 0x1A JUMPI PUSH1 0x0 DUP1 REVERT JUMPDEST POP PUSH2 0x279 DUP1 PUSH2 0x2A PUSH1 0x0 CODECOPY PUSH1 0x0 RETURN INVALID PUSH1 0x80 PUSH1 0x40 MSTORE CALLVALUE DUP1 ISZERO PUSH2 0x10 JUMPI PUSH1 0x0 DUP1 REVERT JUMPDEST POP PUSH1 0x4 CALLDATASIZE LT PUSH2 0x36 JUMPI PUSH1 0x0 CALLDATALOAD PUSH1 0xE0 SHR DUP1 PUSH4 0x2415D820 EQ PUSH2 0x3B JUMPI DUP1 PUSH4 0xD7DFA0DD EQ PUSH2 0x59 JUMPI JUMPDEST PUSH1 0x0 DUP1 REVERT JUMPDEST PUSH2 0x43 PUSH2 0x77 JUMP JUMPDEST PUSH1 0x40 MLOAD PUSH2 0x50 SWAP2 SWAP1 PUSH2 0x123 JUMP JUMPDEST PUSH1 0x40 MLOAD DUP1 SWAP2 SUB SWAP1 RETURN JUMPDEST PUSH2 0x61 PUSH2 0xCF JUMP JUMPDEST PUSH1 0x40 MLOAD PUSH2 0x6E SWAP2 SWAP1 PUSH2 0x123 JUMP JUMPDEST PUSH1 0x40 MLOAD DUP1 SWAP2 SUB SWAP1 RETURN JUMPDEST PUSH1 0x0 DUP1 PUSH1 0x0 SWAP1 POP PUSH1 0x0 PUSH1 0x11 SWAP1 POP PUSH1 0x0 PUSH1 0x20 SWAP1 POP DUP2 DUP2 GT DUP1 ISZERO PUSH2 0x99 JUMPI POP DUP1 DUP3 EQ ISZERO JUMPDEST ISZERO PUSH2 0xC8 JUMPI DUP1 DUP3 PUSH2 0xAA SWAP2 SWAP1 PUSH2 0x16D JUMP JUMPDEST SWAP3 POP PUSH1 0x0 DUP2 DUP5 PUSH2 0xBA SWAP2 SWAP1 PUSH2 0x1DE JUMP JUMPDEST SWAP1 POP DUP1 SWAP5 POP POP POP POP POP PUSH2 0xCC JUMP JUMPDEST POP POP POP JUMPDEST SWAP1 JUMP JUMPDEST PUSH1 0x0 DUP1 PUSH1 0x0 SWAP1 POP PUSH1 0x1 SLOAD PUSH1 0x0 SLOAD LT DUP1 ISZERO PUSH2 0xEB JUMPI POP PUSH1 0x4 PUSH1 0x0 SLOAD EQ JUMPDEST ISZERO PUSH2 0x103 JUMPI PUSH1 0x1 SLOAD PUSH1 0x0 SLOAD PUSH2 0x100 SWAP2 SWAP1 PUSH2 0x20F JUMP JUMPDEST SWAP1 POP JUMPDEST DUP1 SWAP2 POP POP SWAP1 JUMP JUMPDEST PUSH1 0x0 DUP2 SWAP1 POP SWAP2 SWAP1 POP JUMP JUMPDEST PUSH2 0x11D DUP2 PUSH2 0x10A JUMP JUMPDEST DUP3 MSTORE POP POP JUMP JUMPDEST PUSH1 0x0 PUSH1 0x20 DUP3 ADD SWAP1 POP PUSH2 0x138 PUSH1 0x0 DUP4 ADD DUP5 PUSH2 0x114 JUMP JUMPDEST SWAP3 SWAP2 POP POP JUMP JUMPDEST PUSH32 0x4E487B7100000000000000000000000000000000000000000000000000000000 PUSH1 0x0 MSTORE PUSH1 0x11 PUSH1 0x4 MSTORE PUSH1 0x24 PUSH1 0x0 REVERT JUMPDEST PUSH1 0x0 PUSH2 0x178 DUP3 PUSH2 0x10A JUMP JUMPDEST SWAP2 POP PUSH2 0x183 DUP4 PUSH2 0x10A JUMP JUMPDEST SWAP3 POP DUP3 DUP3 MUL PUSH2 0x191 DUP2 PUSH2 0x10A JUMP JUMPDEST SWAP2 POP DUP3 DUP3 DIV DUP5 EQ DUP4 ISZERO OR PUSH2 0x1A8 JUMPI PUSH2 0x1A7 PUSH2 0x13E JUMP JUMPDEST JUMPDEST POP SWAP3 SWAP2 POP POP JUMP JUMPDEST PUSH32 0x4E487B7100000000000000000000000000000000000000000000000000000000 PUSH1 0x0 MSTORE PUSH1 0x12 PUSH1 0x4 MSTORE PUSH1 0x24 PUSH1 0x0 REVERT JUMPDEST PUSH1 0x0 PUSH2 0x1E9 DUP3 PUSH2 0x10A JUMP JUMPDEST SWAP2 POP PUSH2 0x1F4 DUP4 PUSH2 0x10A JUMP JUMPDEST SWAP3 POP DUP3 PUSH2 0x204 JUMPI PUSH2 0x203 PUSH2 0x1AF JUMP JUMPDEST JUMPDEST DUP3 DUP3 DIV SWAP1 POP SWAP3 SWAP2 POP POP JUMP JUMPDEST PUSH1 0x0 PUSH2 0x21A DUP3 PUSH2 0x10A JUMP JUMPDEST SWAP2 POP PUSH2 0x225 DUP4 PUSH2 0x10A JUMP JUMPDEST SWAP3 POP DUP3 DUP3 ADD SWAP1 POP DUP1 DUP3 GT ISZERO PUSH2 0x23D JUMPI PUSH2 0x23C PUSH2 0x13E JUMP JUMPDEST JUMPDEST SWAP3 SWAP2 POP POP JUMP INVALID LOG2 PUSH5 0x6970667358 0x22 SLT KECCAK256 DUP11 0x49 0x4D SMOD 0x22 0xD5 PUSH22 0xE035A9DBBEEE1598EEC7A18138E338B64938B100F98 ADD 0x4D SSTORE PUSH5 0x736F6C6343 STOP ADDMOD GT STOP CALLER "
		},
		"gasEstimates": {
			"creation": {
				"codeDepositCost": "126600",
				"executionCost": "44383",
				"totalCost": "170983"
			},
			"external": {
				"logic()": "infinite",
				"logic1()": "infinite"
			}
		},
		"methodIdentifiers": {
			"logic()": "d7dfa0dd",
			"logic1()": "2415d820"
		}
	},
	"abi": [
		{
			"inputs": [],
			"name": "logic",
			"outputs": [
				{
					"internalType": "uint256",
					"name": "",
					"type": "uint256"
				}
			],
			"stateMutability": "view",
			"type": "function"
		},
		{
			"inputs": [],
			"name": "logic1",
			"outputs": [
				{
					"internalType": "uint256",
					"name": "",
					"type": "uint256"
				}
			],
			"stateMutability": "view",
			"type": "function"
		}
	]
}